{
  "contractName": "FlightSuretyData",
  "abi": [
    {
      "inputs": [],
      "stateMutability": "nonpayable",
      "type": "constructor"
    },
    {
      "anonymous": false,
      "inputs": [
        {
          "indexed": false,
          "internalType": "address payable",
          "name": "newAddress",
          "type": "address"
        }
      ],
      "name": "AuthorizedAppContractUpdated",
      "type": "event"
    },
    {
      "anonymous": false,
      "inputs": [
        {
          "indexed": false,
          "internalType": "address payable",
          "name": "airline",
          "type": "address"
        }
      ],
      "name": "NewAirlineRegistered",
      "type": "event"
    },
    {
      "anonymous": false,
      "inputs": [
        {
          "indexed": true,
          "internalType": "address",
          "name": "oldOwner",
          "type": "address"
        },
        {
          "indexed": true,
          "internalType": "address",
          "name": "newOwner",
          "type": "address"
        }
      ],
      "name": "TransferOwnership",
      "type": "event"
    },
    {
      "anonymous": false,
      "inputs": [
        {
          "indexed": false,
          "internalType": "bool",
          "name": "mode",
          "type": "bool"
        }
      ],
      "name": "UpdateOperationalStatus",
      "type": "event"
    },
    {
      "stateMutability": "payable",
      "type": "fallback",
      "payable": true
    },
    {
      "inputs": [],
      "name": "isOperational",
      "outputs": [
        {
          "internalType": "bool",
          "name": "",
          "type": "bool"
        }
      ],
      "stateMutability": "view",
      "type": "function",
      "constant": true
    },
    {
      "inputs": [],
      "name": "isOwner",
      "outputs": [
        {
          "internalType": "bool",
          "name": "",
          "type": "bool"
        }
      ],
      "stateMutability": "view",
      "type": "function",
      "constant": true
    },
    {
      "inputs": [],
      "name": "kill",
      "outputs": [],
      "stateMutability": "nonpayable",
      "type": "function"
    },
    {
      "inputs": [],
      "name": "owner",
      "outputs": [
        {
          "internalType": "address",
          "name": "",
          "type": "address"
        }
      ],
      "stateMutability": "view",
      "type": "function",
      "constant": true
    },
    {
      "inputs": [],
      "name": "renounceOwnership",
      "outputs": [],
      "stateMutability": "nonpayable",
      "type": "function"
    },
    {
      "inputs": [
        {
          "internalType": "bool",
          "name": "mode",
          "type": "bool"
        }
      ],
      "name": "setOperationalStatus",
      "outputs": [],
      "stateMutability": "nonpayable",
      "type": "function"
    },
    {
      "inputs": [
        {
          "internalType": "address payable",
          "name": "newOwner",
          "type": "address"
        }
      ],
      "name": "transferOwnership",
      "outputs": [],
      "stateMutability": "nonpayable",
      "type": "function"
    },
    {
      "inputs": [
        {
          "internalType": "address payable",
          "name": "newAddress",
          "type": "address"
        }
      ],
      "name": "updateAuthorizedAppContract",
      "outputs": [],
      "stateMutability": "nonpayable",
      "type": "function"
    },
    {
      "inputs": [
        {
          "internalType": "address payable",
          "name": "airline",
          "type": "address"
        },
        {
          "internalType": "string",
          "name": "name",
          "type": "string"
        }
      ],
      "name": "registerAirline",
      "outputs": [],
      "stateMutability": "nonpayable",
      "type": "function"
    },
    {
      "inputs": [],
      "name": "buy",
      "outputs": [],
      "stateMutability": "payable",
      "type": "function",
      "payable": true
    },
    {
      "inputs": [],
      "name": "creditInsurees",
      "outputs": [],
      "stateMutability": "pure",
      "type": "function",
      "constant": true
    },
    {
      "inputs": [],
      "name": "pay",
      "outputs": [],
      "stateMutability": "pure",
      "type": "function",
      "constant": true
    },
    {
      "inputs": [],
      "name": "fund",
      "outputs": [],
      "stateMutability": "payable",
      "type": "function",
      "payable": true
    }
  ],
  "bytecode": "0x608060405260016000806101000a81548160ff02191690831515021790555034801561002a57600080fd5b5033600060016101000a81548173ffffffffffffffffffffffffffffffffffffffff021916908373ffffffffffffffffffffffffffffffffffffffff160217905550600060019054906101000a900473ffffffffffffffffffffffffffffffffffffffff1673ffffffffffffffffffffffffffffffffffffffff16600073ffffffffffffffffffffffffffffffffffffffff167f5c486528ec3e3f0ea91181cff8116f02bfa350e03b8b6f12e00765adbb5af85c60405160405180910390a3610e32806100f86000396000f3fe6080604052600436106100c65760003560e01c80638da5cb5b1161007f578063b60d428811610059578063b60d42881461024b578063cd905dff14610255578063ee38a74914610284578063f2fde38b1461032a576100c7565b80638da5cb5b146101bb5780638f32d59b14610212578063a6f2ae3a14610241576100c7565b80631b9265b8146100d157806336cee484146100e857806341c0e1b5146100ff5780635122cb381461011657806353a50a0d14610153578063715018a6146101a4576100c7565b5b6100cf61037b565b005b3480156100dd57600080fd5b506100e661037d565b005b3480156100f457600080fd5b506100fd61037f565b005b34801561010b57600080fd5b50610114610381565b005b34801561012257600080fd5b506101516004803603602081101561013957600080fd5b81019080803515159060200190929190505050610414565b005b34801561015f57600080fd5b506101a26004803603602081101561017657600080fd5b81019080803573ffffffffffffffffffffffffffffffffffffffff1690602001909291905050506104c8565b005b3480156101b057600080fd5b506101b9610531565b005b3480156101c757600080fd5b506101d061064e565b604051808273ffffffffffffffffffffffffffffffffffffffff1673ffffffffffffffffffffffffffffffffffffffff16815260200191505060405180910390f35b34801561021e57600080fd5b50610227610677565b604051808215151515815260200191505060405180910390f35b6102496106ce565b005b61025361037b565b005b34801561026157600080fd5b5061026a6106d0565b604051808215151515815260200191505060405180910390f35b34801561029057600080fd5b50610328600480360360408110156102a757600080fd5b81019080803573ffffffffffffffffffffffffffffffffffffffff169060200190929190803590602001906401000000008111156102e457600080fd5b8201836020820111156102f657600080fd5b8035906020019184600183028401116401000000008311171561031857600080fd5b90919293919293905050506106e6565b005b34801561033657600080fd5b506103796004803603602081101561034d57600080fd5b81019080803573ffffffffffffffffffffffffffffffffffffffff1690602001909291905050506109b9565b005b565b565b565b600060019054906101000a900473ffffffffffffffffffffffffffffffffffffffff1673ffffffffffffffffffffffffffffffffffffffff163373ffffffffffffffffffffffffffffffffffffffff16141561041257600060019054906101000a900473ffffffffffffffffffffffffffffffffffffffff1673ffffffffffffffffffffffffffffffffffffffff16ff5b565b61041c610677565b610471576040517f08c379a0000000000000000000000000000000000000000000000000000000008152600401808060200182810382526029815260200180610db36029913960400191505060405180910390fd5b7fb6d5f5457d1c101e27891c7154e37f1578a63e19a5396705b34a4b3596b0cab581604051808215151515815260200191505060405180910390a1806000806101000a81548160ff02191690831515021790555050565b6104d0610677565b610525576040517f08c379a0000000000000000000000000000000000000000000000000000000008152600401808060200182810382526029815260200180610db36029913960400191505060405180910390fd5b61052e81610a22565b50565b610539610677565b61058e576040517f08c379a0000000000000000000000000000000000000000000000000000000008152600401808060200182810382526029815260200180610db36029913960400191505060405180910390fd5b600073ffffffffffffffffffffffffffffffffffffffff16600060019054906101000a900473ffffffffffffffffffffffffffffffffffffffff1673ffffffffffffffffffffffffffffffffffffffff167f5c486528ec3e3f0ea91181cff8116f02bfa350e03b8b6f12e00765adbb5af85c60405160405180910390a360008060016101000a81548173ffffffffffffffffffffffffffffffffffffffff021916908373ffffffffffffffffffffffffffffffffffffffff160217905550565b60008060019054906101000a900473ffffffffffffffffffffffffffffffffffffffff16905090565b60008060019054906101000a900473ffffffffffffffffffffffffffffffffffffffff1673ffffffffffffffffffffffffffffffffffffffff163373ffffffffffffffffffffffffffffffffffffffff1614905090565b565b60008060009054906101000a900460ff16905090565b600160009054906101000a900473ffffffffffffffffffffffffffffffffffffffff1673ffffffffffffffffffffffffffffffffffffffff163373ffffffffffffffffffffffffffffffffffffffff161461078c576040517f08c379a0000000000000000000000000000000000000000000000000000000008152600401808060200182810382526027815260200180610d606027913960400191505060405180910390fd5b6000600260008573ffffffffffffffffffffffffffffffffffffffff1673ffffffffffffffffffffffffffffffffffffffff16815260200190815260200160002060010180546001816001161561010002031660029004905011610858576040517f08c379a000000000000000000000000000000000000000000000000000000000815260040180806020018281038252601a8152602001807f4169726c696e6520616c7265616479207265676973746572656400000000000081525060200191505060405180910390fd5b610860610c95565b60405180604001604052806001600281111561087857fe5b815260200184848080601f016020809104026020016040519081016040528093929190818152602001838380828437600081840152601f19601f82011690508083019250505050505050815250905080600260008673ffffffffffffffffffffffffffffffffffffffff1673ffffffffffffffffffffffffffffffffffffffff16815260200190815260200160002060008201518160000160006101000a81548160ff0219169083600281111561092b57fe5b0217905550602082015181600101908051906020019061094c929190610cba565b509050507f53f16340874f686d239bb80161aeda17688bcb49ef5405c9090973a5d0426fa684604051808273ffffffffffffffffffffffffffffffffffffffff1673ffffffffffffffffffffffffffffffffffffffff16815260200191505060405180910390a150505050565b6109c1610677565b610a16576040517f08c379a0000000000000000000000000000000000000000000000000000000008152600401808060200182810382526029815260200180610db36029913960400191505060405180910390fd5b610a1f81610b4f565b50565b600073ffffffffffffffffffffffffffffffffffffffff168173ffffffffffffffffffffffffffffffffffffffff161415610aa8576040517f08c379a000000000000000000000000000000000000000000000000000000000815260040180806020018281038252602c815260200180610d87602c913960400191505060405180910390fd5b80600160006101000a81548173ffffffffffffffffffffffffffffffffffffffff021916908373ffffffffffffffffffffffffffffffffffffffff1602179055507fb58d590ed56d56a6fa0d8a7637ff54c9117435e0366ae25ca47b29296f47ac0381604051808273ffffffffffffffffffffffffffffffffffffffff1673ffffffffffffffffffffffffffffffffffffffff16815260200191505060405180910390a150565b600073ffffffffffffffffffffffffffffffffffffffff168173ffffffffffffffffffffffffffffffffffffffff161415610bd5576040517f08c379a0000000000000000000000000000000000000000000000000000000008152600401808060200182810382526021815260200180610ddc6021913960400191505060405180910390fd5b8073ffffffffffffffffffffffffffffffffffffffff16600060019054906101000a900473ffffffffffffffffffffffffffffffffffffffff1673ffffffffffffffffffffffffffffffffffffffff167f5c486528ec3e3f0ea91181cff8116f02bfa350e03b8b6f12e00765adbb5af85c60405160405180910390a380600060016101000a81548173ffffffffffffffffffffffffffffffffffffffff021916908373ffffffffffffffffffffffffffffffffffffffff16021790555050565b604051806040016040528060006002811115610cad57fe5b8152602001606081525090565b828054600181600116156101000203166002900490600052602060002090601f016020900481019282601f10610cfb57805160ff1916838001178555610d29565b82800160010185558215610d29579182015b82811115610d28578251825591602001919060010190610d0d565b5b509050610d369190610d3a565b5090565b610d5c91905b80821115610d58576000816000905550600101610d40565b5090565b9056fe43616c6c6572206e6f7420617574686f72697a656420746f206d616b6520746869732063616c6c546865206e657720636f6e747261637420616464726573732063616e6e6f74206265206164647265737320304f6e6c7920746865206f776e65722063616e20706572666f726d2074686973206f7065726174696f6e546865206e6577204f776e65722063616e6e6f7420626520616464726573732030a26469706673582212207a74df2b83767d1f6761babc5be41a356002d10c1923ce2a096cc7f21e9d7ce264736f6c63430006040033",
  "source": "pragma solidity ^0.6.4;\r\n\r\nimport \"./SafeMath.sol\";\r\nimport \"./OperationalOwnable.sol\";\r\n\r\ncontract FlightSuretyData is OperationalOwnable {\r\n    using SafeMath for uint256;\r\n\r\n    /********************************************************************************************/\r\n    /*                                       DATA VARIABLES                                     */\r\n    /********************************************************************************************/\r\n\r\n    address payable private authorizedAppContract;\r\n\r\n    mapping(address => Airline) private airlines;\r\n\r\n    enum AirlineStatus {\r\n        PendingApproval, \r\n        Registered, \r\n        Paid\r\n    }\r\n\r\n    struct Airline {\r\n        AirlineStatus status;\r\n        string name;\r\n    }\r\n\r\n    struct Flight {\r\n        bool isRegistered;\r\n        uint8 statusCode;\r\n        uint256 updatedTimestamp;\r\n        address payable airline;\r\n    }\r\n\r\n    mapping(bytes32 => Flight) private flights;\r\n\r\n    /********************************************************************************************/\r\n    /*                                       EVENT DEFINITIONS                                  */\r\n    /********************************************************************************************/\r\n\r\n    event AuthorizedAppContractUpdated(address payable newAddress);\r\n\r\n    event NewAirlineRegistered(address payable airline);\r\n\r\n    /**\r\n     * @dev Constructor\r\n     *      The deploying account becomes contractOwner\r\n     */\r\n    constructor() public {}\r\n\r\n    /**\r\n     * @dev Fallback function for funding smart contract.\r\n     */\r\n    fallback() external payable {\r\n        fund();\r\n    }\r\n\r\n    /********************************************************************************************/\r\n    /*                                       FUNCTION MODIFIERS                                 */\r\n    /********************************************************************************************/\r\n\r\n    // Modifiers help avoid duplication of code. They are typically used to validate something\r\n    // before a function is allowed to be executed.\r\n\r\n    modifier onlyAuthorizedContract() {\r\n        require(msg.sender == authorizedAppContract, \"Caller not authorized to make this call\");\r\n        _;\r\n    }\r\n\r\n    /********************************************************************************************/\r\n    /*                                     SMART CONTRACT FUNCTIONS                             */\r\n    /********************************************************************************************/\r\n\r\n    /**\r\n     *   @dev Update the authorized app contract address\r\n     *\r\n     */\r\n    function updateAuthorizedAppContract(address payable newAddress)\r\n        public\r\n        onlyOwner\r\n    {\r\n        _updateAuthorizedAppContract(newAddress);\r\n    }\r\n\r\n    /**\r\n     *   @dev Update the authorized app contract address\r\n     *\r\n     */\r\n    function _updateAuthorizedAppContract(address payable newAddress) internal {\r\n        require(\r\n            newAddress != address(0),\r\n            \"The new contract address cannot be address 0\"\r\n        );\r\n        authorizedAppContract = newAddress;\r\n        emit AuthorizedAppContractUpdated(newAddress);\r\n    }\r\n\r\n    /**\r\n     * @dev Add an airline to the registration queue\r\n     *      Can only be called from FlightSuretyApp contract\r\n     *\r\n     */\r\n\r\n    function registerAirline(address payable airline, string calldata name)\r\n        external\r\n        onlyAuthorizedContract\r\n    {\r\n        require(bytes(airlines[airline].name).length > 0, \"Airline already registered\");\r\n        Airline memory newAirline = Airline(AirlineStatus.Registered, name);\r\n        airlines[airline] = newAirline;\r\n        emit NewAirlineRegistered(airline);\r\n    }\r\n\r\n    /**\r\n     * @dev Buy insurance for a flight\r\n     *\r\n     */\r\n\r\n    function buy() external payable {}\r\n\r\n    /**\r\n     *  @dev Credits payouts to insurees\r\n     */\r\n    function creditInsurees() external pure {}\r\n\r\n    /**\r\n     *  @dev Transfers eligible payout funds to insuree\r\n     *\r\n     */\r\n    function pay() external pure {}\r\n\r\n    /********************************************************************************************/\r\n    /*                                       UTILITY FUNCTIONS                                  */\r\n    /********************************************************************************************/\r\n\r\n    /**\r\n     * @dev Initial funding for the insurance. Unless there are too many delayed flights\r\n     *      resulting in insurance payouts, the contract should be self-sustaining\r\n     *\r\n     */\r\n\r\n    function fund() public payable {}\r\n\r\n    function getFlightKey(\r\n        address airline,\r\n        string memory flight,\r\n        uint256 timestamp\r\n    ) internal pure returns (bytes32) {\r\n        return keccak256(abi.encodePacked(airline, flight, timestamp));\r\n    }\r\n}\r\n",
  "sourcePath": "/media/indigo/backup/AXEL/Personal/Tutorials/blocksurety/blockchain-flight-surety/contracts/FlightSuretyData.sol",
  "compiler": {
    "name": "solc",
    "version": "0.6.4+commit.1dca32f3.Emscripten.clang"
  },
  "schemaVersion": "3.0.23",
  "updatedAt": "2020-07-13T03:08:34.279Z",
  "networkType": "ethereum",
  "devdoc": {
    "methods": {
      "buy()": {
        "details": "Buy insurance for a flight      "
      },
      "constructor": {
        "details": "Constructor     The deploying account becomes contractOwner"
      },
      "creditInsurees()": {
        "details": "Credits payouts to insurees"
      },
      "fund()": {
        "details": "Initial funding for the insurance. Unless there are too many delayed flights     resulting in insurance payouts, the contract should be self-sustaining      "
      },
      "isOperational()": {
        "details": "Get operating status of contract",
        "returns": {
          "_0": "A bool that is the current operating status"
        }
      },
      "pay()": {
        "details": "Transfers eligible payout funds to insuree      "
      },
      "registerAirline(address,string)": {
        "details": "Add an airline to the registration queue     Can only be called from FlightSuretyApp contract      "
      },
      "setOperationalStatus(bool)": {
        "details": "Sets contract operations on/off     * When operational mode is disabled, all write transactions except for this one will fail"
      },
      "updateAuthorizedAppContract(address)": {
        "details": "Update the authorized app contract address      "
      }
    }
  },
  "userdoc": {
    "methods": {}
  }
}