{
  "contractName": "FlightSuretyData",
  "abi": [
    {
      "inputs": [],
      "stateMutability": "nonpayable",
      "type": "constructor"
    },
    {
      "anonymous": false,
      "inputs": [
        {
          "indexed": false,
          "internalType": "address payable",
          "name": "newAddress",
          "type": "address"
        }
      ],
      "name": "AuthorizedAppContractUpdated",
      "type": "event"
    },
    {
      "anonymous": false,
      "inputs": [
        {
          "components": [
            {
              "internalType": "enum FlightSuretyData.AirlineStatus",
              "name": "status",
              "type": "uint8"
            },
            {
              "internalType": "string",
              "name": "name",
              "type": "string"
            },
            {
              "internalType": "address payable",
              "name": "airlineAddress",
              "type": "address"
            }
          ],
          "indexed": false,
          "internalType": "struct FlightSuretyData.Airline",
          "name": "airline",
          "type": "tuple"
        }
      ],
      "name": "NewAirlineRegistered",
      "type": "event"
    },
    {
      "anonymous": false,
      "inputs": [
        {
          "indexed": false,
          "internalType": "string",
          "name": "airlineName",
          "type": "string"
        },
        {
          "indexed": false,
          "internalType": "string",
          "name": "flightName",
          "type": "string"
        },
        {
          "indexed": false,
          "internalType": "uint256",
          "name": "timestamp",
          "type": "uint256"
        }
      ],
      "name": "NewFlightRegistered",
      "type": "event"
    },
    {
      "anonymous": false,
      "inputs": [
        {
          "indexed": false,
          "internalType": "bool",
          "name": "value",
          "type": "bool"
        }
      ],
      "name": "TestBooleanValue",
      "type": "event"
    },
    {
      "anonymous": false,
      "inputs": [
        {
          "indexed": false,
          "internalType": "uint256",
          "name": "value",
          "type": "uint256"
        }
      ],
      "name": "TestIntValue",
      "type": "event"
    },
    {
      "anonymous": false,
      "inputs": [
        {
          "indexed": false,
          "internalType": "string",
          "name": "value",
          "type": "string"
        }
      ],
      "name": "TestStringValue",
      "type": "event"
    },
    {
      "anonymous": false,
      "inputs": [
        {
          "indexed": true,
          "internalType": "address",
          "name": "oldOwner",
          "type": "address"
        },
        {
          "indexed": true,
          "internalType": "address",
          "name": "newOwner",
          "type": "address"
        }
      ],
      "name": "TransferOwnership",
      "type": "event"
    },
    {
      "anonymous": false,
      "inputs": [
        {
          "indexed": false,
          "internalType": "bool",
          "name": "mode",
          "type": "bool"
        }
      ],
      "name": "UpdateOperationalStatus",
      "type": "event"
    },
    {
      "stateMutability": "payable",
      "type": "fallback",
      "payable": true
    },
    {
      "inputs": [],
      "name": "isOperational",
      "outputs": [
        {
          "internalType": "bool",
          "name": "",
          "type": "bool"
        }
      ],
      "stateMutability": "view",
      "type": "function",
      "constant": true
    },
    {
      "inputs": [],
      "name": "isOwner",
      "outputs": [
        {
          "internalType": "bool",
          "name": "",
          "type": "bool"
        }
      ],
      "stateMutability": "view",
      "type": "function",
      "constant": true
    },
    {
      "inputs": [],
      "name": "kill",
      "outputs": [],
      "stateMutability": "nonpayable",
      "type": "function"
    },
    {
      "inputs": [],
      "name": "owner",
      "outputs": [
        {
          "internalType": "address",
          "name": "",
          "type": "address"
        }
      ],
      "stateMutability": "view",
      "type": "function",
      "constant": true
    },
    {
      "inputs": [],
      "name": "renounceOwnership",
      "outputs": [],
      "stateMutability": "nonpayable",
      "type": "function"
    },
    {
      "inputs": [
        {
          "internalType": "bool",
          "name": "mode",
          "type": "bool"
        }
      ],
      "name": "setOperationalStatus",
      "outputs": [],
      "stateMutability": "nonpayable",
      "type": "function"
    },
    {
      "inputs": [
        {
          "internalType": "address payable",
          "name": "newOwner",
          "type": "address"
        }
      ],
      "name": "transferOwnership",
      "outputs": [],
      "stateMutability": "nonpayable",
      "type": "function"
    },
    {
      "stateMutability": "payable",
      "type": "receive",
      "payable": true
    },
    {
      "inputs": [
        {
          "internalType": "address payable",
          "name": "newAddress",
          "type": "address"
        }
      ],
      "name": "updateAuthorizedAppContract",
      "outputs": [],
      "stateMutability": "nonpayable",
      "type": "function"
    },
    {
      "inputs": [
        {
          "internalType": "address payable",
          "name": "airlineAddress",
          "type": "address"
        },
        {
          "internalType": "string",
          "name": "name",
          "type": "string"
        }
      ],
      "name": "registerAirline",
      "outputs": [],
      "stateMutability": "nonpayable",
      "type": "function"
    },
    {
      "inputs": [],
      "name": "allAirlines",
      "outputs": [
        {
          "components": [
            {
              "internalType": "enum FlightSuretyData.AirlineStatus",
              "name": "status",
              "type": "uint8"
            },
            {
              "internalType": "string",
              "name": "name",
              "type": "string"
            },
            {
              "internalType": "address payable",
              "name": "airlineAddress",
              "type": "address"
            }
          ],
          "internalType": "struct FlightSuretyData.Airline[]",
          "name": "",
          "type": "tuple[]"
        }
      ],
      "stateMutability": "view",
      "type": "function",
      "constant": true
    },
    {
      "inputs": [],
      "name": "allFlights",
      "outputs": [
        {
          "components": [
            {
              "internalType": "bool",
              "name": "isRegistered",
              "type": "bool"
            },
            {
              "internalType": "uint8",
              "name": "statusCode",
              "type": "uint8"
            },
            {
              "internalType": "uint256",
              "name": "updatedTimestamp",
              "type": "uint256"
            },
            {
              "internalType": "string",
              "name": "name",
              "type": "string"
            },
            {
              "components": [
                {
                  "internalType": "enum FlightSuretyData.AirlineStatus",
                  "name": "status",
                  "type": "uint8"
                },
                {
                  "internalType": "string",
                  "name": "name",
                  "type": "string"
                },
                {
                  "internalType": "address payable",
                  "name": "airlineAddress",
                  "type": "address"
                }
              ],
              "internalType": "struct FlightSuretyData.Airline",
              "name": "airline",
              "type": "tuple"
            }
          ],
          "internalType": "struct FlightSuretyData.Flight[]",
          "name": "",
          "type": "tuple[]"
        }
      ],
      "stateMutability": "view",
      "type": "function",
      "constant": true
    },
    {
      "inputs": [
        {
          "internalType": "address payable",
          "name": "airlineAddress",
          "type": "address"
        },
        {
          "internalType": "string",
          "name": "flightName",
          "type": "string"
        },
        {
          "internalType": "uint256",
          "name": "flightTime",
          "type": "uint256"
        }
      ],
      "name": "registerFlight",
      "outputs": [],
      "stateMutability": "nonpayable",
      "type": "function"
    },
    {
      "inputs": [],
      "name": "buy",
      "outputs": [],
      "stateMutability": "payable",
      "type": "function",
      "payable": true
    },
    {
      "inputs": [],
      "name": "creditInsurees",
      "outputs": [],
      "stateMutability": "pure",
      "type": "function",
      "constant": true
    },
    {
      "inputs": [],
      "name": "pay",
      "outputs": [],
      "stateMutability": "pure",
      "type": "function",
      "constant": true
    },
    {
      "inputs": [],
      "name": "fund",
      "outputs": [],
      "stateMutability": "payable",
      "type": "function",
      "payable": true
    }
  ],
  "bytecode": "0x608060405260016000806101000a81548160ff02191690831515021790555034801561002a57600080fd5b5033600060016101000a81548173ffffffffffffffffffffffffffffffffffffffff021916908373ffffffffffffffffffffffffffffffffffffffff160217905550600060019054906101000a900473ffffffffffffffffffffffffffffffffffffffff1673ffffffffffffffffffffffffffffffffffffffff16600073ffffffffffffffffffffffffffffffffffffffff167f5c486528ec3e3f0ea91181cff8116f02bfa350e03b8b6f12e00765adbb5af85c60405160405180910390a3612548806100f86000396000f3fe6080604052600436106100f75760003560e01c8063715018a61161008a578063b60d428811610059578063b60d428814610295578063cd905dff1461029f578063ee38a749146102ca578063f2fde38b146102f3576100fe565b8063715018a61461021e5780638da5cb5b146102355780638f32d59b14610260578063a6f2ae3a1461028b576100fe565b80633cc0be9c116100c65780633cc0be9c1461018c57806341c0e1b5146101b55780635122cb38146101cc57806353a50a0d146101f5576100fe565b80631b9265b8146101085780632c49615f1461011f5780632d4b06b61461014a57806336cee48414610175576100fe565b366100fe57005b61010661031c565b005b34801561011457600080fd5b5061011d61031e565b005b34801561012b57600080fd5b50610134610320565b604051610141919061206a565b60405180910390f35b34801561015657600080fd5b5061015f6104ee565b60405161016c919061208c565b60405180910390f35b34801561018157600080fd5b5061018a6107a4565b005b34801561019857600080fd5b506101b360048036038101906101ae91906119b6565b6107a6565b005b3480156101c157600080fd5b506101ca610da6565b005b3480156101d857600080fd5b506101f360048036038101906101ee9190611a1d565b610e39565b005b34801561020157600080fd5b5061021c60048036038101906102179190611935565b610ed3565b005b34801561022a57600080fd5b50610233610f26565b005b34801561024157600080fd5b5061024a61102d565b6040516102579190612034565b60405180910390f35b34801561026c57600080fd5b50610275611056565b60405161028291906120ae565b60405180910390f35b6102936110ad565b005b61029d61031c565b005b3480156102ab57600080fd5b506102b46110af565b6040516102c191906120ae565b60405180910390f35b3480156102d657600080fd5b506102f160048036038101906102ec919061195e565b6110c5565b005b3480156102ff57600080fd5b5061031a60048036038101906103159190611935565b6111bc565b005b565b565b60606004805480602002602001604051908101604052809291908181526020016000905b828210156104e557838290600052602060002090600302016040518060600160405290816000820160009054906101000a900460ff1660028111156103b2577f4e487b7100000000000000000000000000000000000000000000000000000000600052602160045260246000fd5b60028111156103ea577f4e487b7100000000000000000000000000000000000000000000000000000000600052602160045260246000fd5b81526020016001820180546103fe906123e9565b80601f016020809104026020016040519081016040528092919081815260200182805461042a906123e9565b80156104775780601f1061044c57610100808354040283529160200191610477565b820191906000526020600020905b81548152906001019060200180831161045a57829003601f168201915b505050505081526020016002820160009054906101000a900473ffffffffffffffffffffffffffffffffffffffff1673ffffffffffffffffffffffffffffffffffffffff1673ffffffffffffffffffffffffffffffffffffffff168152505081526020019060010190610344565b50505050905090565b60606005805480602002602001604051908101604052809291908181526020016000905b8282101561079b57838290600052602060002090600602016040518060a00160405290816000820160009054906101000a900460ff161515151581526020016000820160019054906101000a900460ff1660ff1660ff16815260200160018201548152602001600282018054610587906123e9565b80601f01602080910402602001604051908101604052809291908181526020018280546105b3906123e9565b80156106005780601f106105d557610100808354040283529160200191610600565b820191906000526020600020905b8154815290600101906020018083116105e357829003601f168201915b50505050508152602001600382016040518060600160405290816000820160009054906101000a900460ff166002811115610664577f4e487b7100000000000000000000000000000000000000000000000000000000600052602160045260246000fd5b600281111561069c577f4e487b7100000000000000000000000000000000000000000000000000000000600052602160045260246000fd5b81526020016001820180546106b0906123e9565b80601f01602080910402602001604051908101604052809291908181526020018280546106dc906123e9565b80156107295780601f106106fe57610100808354040283529160200191610729565b820191906000526020600020905b81548152906001019060200180831161070c57829003601f168201915b505050505081526020016002820160009054906101000a900473ffffffffffffffffffffffffffffffffffffffff1673ffffffffffffffffffffffffffffffffffffffff1673ffffffffffffffffffffffffffffffffffffffff16815250508152505081526020019060010190610512565b50505050905090565b565b600160009054906101000a900473ffffffffffffffffffffffffffffffffffffffff1673ffffffffffffffffffffffffffffffffffffffff163373ffffffffffffffffffffffffffffffffffffffff1614610836576040517f08c379a000000000000000000000000000000000000000000000000000000000815260040161082d9061212e565b60405180910390fd5b61083f8261120f565b1561087f576040517f08c379a00000000000000000000000000000000000000000000000000000000081526004016108769061214e565b60405180910390fd5b61088883611247565b6108c7576040517f08c379a00000000000000000000000000000000000000000000000000000000081526004016108be9061210e565b60405180910390fd5b6000600260008573ffffffffffffffffffffffffffffffffffffffff1673ffffffffffffffffffffffffffffffffffffffff1681526020019081526020016000206040518060600160405290816000820160009054906101000a900460ff16600281111561095e577f4e487b7100000000000000000000000000000000000000000000000000000000600052602160045260246000fd5b6002811115610996577f4e487b7100000000000000000000000000000000000000000000000000000000600052602160045260246000fd5b81526020016001820180546109aa906123e9565b80601f01602080910402602001604051908101604052809291908181526020018280546109d6906123e9565b8015610a235780601f106109f857610100808354040283529160200191610a23565b820191906000526020600020905b815481529060010190602001808311610a0657829003601f168201915b505050505081526020016002820160009054906101000a900473ffffffffffffffffffffffffffffffffffffffff1673ffffffffffffffffffffffffffffffffffffffff1673ffffffffffffffffffffffffffffffffffffffff1681525050905060006040518060a00160405280600115158152602001600060ff16815260200184815260200185815260200183815250905080600385604051610ac7919061201d565b908152602001604051809103902060008201518160000160006101000a81548160ff02191690831515021790555060208201518160000160016101000a81548160ff021916908360ff160217905550604082015181600101556060820151816002019080519060200190610b3c9291906117a1565b5060808201518160030160008201518160000160006101000a81548160ff02191690836002811115610b97577f4e487b7100000000000000000000000000000000000000000000000000000000600052602160045260246000fd5b02179055506020820151816001019080519060200190610bb89291906117a1565b5060408201518160020160006101000a81548173ffffffffffffffffffffffffffffffffffffffff021916908373ffffffffffffffffffffffffffffffffffffffff1602179055505050905050600581908060018154018082558091505060019003906000526020600020906006020160009091909190915060008201518160000160006101000a81548160ff02191690831515021790555060208201518160000160016101000a81548160ff021916908360ff160217905550604082015181600101556060820151816002019080519060200190610c989291906117a1565b5060808201518160030160008201518160000160006101000a81548160ff02191690836002811115610cf3577f4e487b7100000000000000000000000000000000000000000000000000000000600052602160045260246000fd5b02179055506020820151816001019080519060200190610d149291906117a1565b5060408201518160020160006101000a81548173ffffffffffffffffffffffffffffffffffffffff021916908373ffffffffffffffffffffffffffffffffffffffff160217905550505050507fd4bbba53ce61e9efb0a8a74165962291978bb51342d6545ed0963af55635321382602001518585604051610d97939291906120c9565b60405180910390a15050505050565b600060019054906101000a900473ffffffffffffffffffffffffffffffffffffffff1673ffffffffffffffffffffffffffffffffffffffff163373ffffffffffffffffffffffffffffffffffffffff161415610e3757600060019054906101000a900473ffffffffffffffffffffffffffffffffffffffff1673ffffffffffffffffffffffffffffffffffffffff16ff5b565b610e41611056565b610e80576040517f08c379a0000000000000000000000000000000000000000000000000000000008152600401610e779061218e565b60405180910390fd5b7fb6d5f5457d1c101e27891c7154e37f1578a63e19a5396705b34a4b3596b0cab581604051610eaf91906120ae565b60405180910390a1806000806101000a81548160ff02191690831515021790555050565b610edb611056565b610f1a576040517f08c379a0000000000000000000000000000000000000000000000000000000008152600401610f119061218e565b60405180910390fd5b610f23816112a2565b50565b610f2e611056565b610f6d576040517f08c379a0000000000000000000000000000000000000000000000000000000008152600401610f649061218e565b60405180910390fd5b600073ffffffffffffffffffffffffffffffffffffffff16600060019054906101000a900473ffffffffffffffffffffffffffffffffffffffff1673ffffffffffffffffffffffffffffffffffffffff167f5c486528ec3e3f0ea91181cff8116f02bfa350e03b8b6f12e00765adbb5af85c60405160405180910390a360008060016101000a81548173ffffffffffffffffffffffffffffffffffffffff021916908373ffffffffffffffffffffffffffffffffffffffff160217905550565b60008060019054906101000a900473ffffffffffffffffffffffffffffffffffffffff16905090565b60008060019054906101000a900473ffffffffffffffffffffffffffffffffffffffff1673ffffffffffffffffffffffffffffffffffffffff163373ffffffffffffffffffffffffffffffffffffffff1614905090565b565b60008060009054906101000a900460ff16905090565b600160009054906101000a900473ffffffffffffffffffffffffffffffffffffffff1673ffffffffffffffffffffffffffffffffffffffff163373ffffffffffffffffffffffffffffffffffffffff1614611155576040517f08c379a000000000000000000000000000000000000000000000000000000000815260040161114c9061212e565b60405180910390fd5b61115d61138d565b156111ac5761116b83611247565b156111ab576040517f08c379a00000000000000000000000000000000000000000000000000000000081526004016111a2906121ce565b60405180910390fd5b5b6111b783838361139d565b505050565b6111c4611056565b611203576040517f08c379a00000000000000000000000000000000000000000000000000000000081526004016111fa9061218e565b60405180910390fd5b61120c81611671565b50565b6000600382604051611221919061201d565b908152602001604051809103902060000160009054906101000a900460ff169050919050565b60006001600260008473ffffffffffffffffffffffffffffffffffffffff1673ffffffffffffffffffffffffffffffffffffffff1681526020019081526020016000206001018054611298906123e9565b9050119050919050565b600073ffffffffffffffffffffffffffffffffffffffff168173ffffffffffffffffffffffffffffffffffffffff161415611312576040517f08c379a00000000000000000000000000000000000000000000000000000000081526004016113099061216e565b60405180910390fd5b80600160006101000a81548173ffffffffffffffffffffffffffffffffffffffff021916908373ffffffffffffffffffffffffffffffffffffffff1602179055507fb58d590ed56d56a6fa0d8a7637ff54c9117435e0366ae25ca47b29296f47ac0381604051611382919061204f565b60405180910390a150565b6000600480805490501015905090565b60006040518060600160405280600160028111156113e4577f4e487b7100000000000000000000000000000000000000000000000000000000600052602160045260246000fd5b815260200184848080601f016020809104026020016040519081016040528093929190818152602001838380828437600081840152601f19601f8201169050808301925050505050505081526020018573ffffffffffffffffffffffffffffffffffffffff16815250905080600260008673ffffffffffffffffffffffffffffffffffffffff1673ffffffffffffffffffffffffffffffffffffffff16815260200190815260200160002060008201518160000160006101000a81548160ff021916908360028111156114e0577f4e487b7100000000000000000000000000000000000000000000000000000000600052602160045260246000fd5b021790555060208201518160010190805190602001906115019291906117a1565b5060408201518160020160006101000a81548173ffffffffffffffffffffffffffffffffffffffff021916908373ffffffffffffffffffffffffffffffffffffffff1602179055509050507ff552aa4c67473ff91f76059999074821b16f99df5ffd2cc08f0d13d5502caf5c8160405161157b91906121ee565b60405180910390a1600481908060018154018082558091505060019003906000526020600020906003020160009091909190915060008201518160000160006101000a81548160ff02191690836002811115611600577f4e487b7100000000000000000000000000000000000000000000000000000000600052602160045260246000fd5b021790555060208201518160010190805190602001906116219291906117a1565b5060408201518160020160006101000a81548173ffffffffffffffffffffffffffffffffffffffff021916908373ffffffffffffffffffffffffffffffffffffffff160217905550505050505050565b600073ffffffffffffffffffffffffffffffffffffffff168173ffffffffffffffffffffffffffffffffffffffff1614156116e1576040517f08c379a00000000000000000000000000000000000000000000000000000000081526004016116d8906121ae565b60405180910390fd5b80600060016101000a81548173ffffffffffffffffffffffffffffffffffffffff021916908373ffffffffffffffffffffffffffffffffffffffff1602179055508073ffffffffffffffffffffffffffffffffffffffff16600060019054906101000a900473ffffffffffffffffffffffffffffffffffffffff1673ffffffffffffffffffffffffffffffffffffffff167f5c486528ec3e3f0ea91181cff8116f02bfa350e03b8b6f12e00765adbb5af85c60405160405180910390a350565b8280546117ad906123e9565b90600052602060002090601f0160209004810192826117cf5760008555611816565b82601f106117e857805160ff1916838001178555611816565b82800160010185558215611816579182015b828111156118155782518255916020019190600101906117fa565b5b5090506118239190611827565b5090565b5b80821115611840576000816000905550600101611828565b5090565b600061185761185284612241565b612210565b90508281526020810184848401111561186f57600080fd5b61187a8482856123a7565b509392505050565b600081359050611891816124cd565b92915050565b6000813590506118a6816124e4565b92915050565b60008083601f8401126118be57600080fd5b8235905067ffffffffffffffff8111156118d757600080fd5b6020830191508360018202830111156118ef57600080fd5b9250929050565b600082601f83011261190757600080fd5b8135611917848260208601611844565b91505092915050565b60008135905061192f816124fb565b92915050565b60006020828403121561194757600080fd5b600061195584828501611882565b91505092915050565b60008060006040848603121561197357600080fd5b600061198186828701611882565b935050602084013567ffffffffffffffff81111561199e57600080fd5b6119aa868287016118ac565b92509250509250925092565b6000806000606084860312156119cb57600080fd5b60006119d986828701611882565b935050602084013567ffffffffffffffff8111156119f657600080fd5b611a02868287016118f6565b9250506040611a1386828701611920565b9150509250925092565b600060208284031215611a2f57600080fd5b6000611a3d84828501611897565b91505092915050565b6000611a528383611ed3565b905092915050565b6000611a668383611f73565b905092915050565b611a778161232d565b82525050565b611a868161232d565b82525050565b611a958161231b565b82525050565b6000611aa682612291565b611ab081856122cc565b935083602082028501611ac285612271565b8060005b85811015611afe5784840389528151611adf8582611a46565b9450611aea836122b2565b925060208a01995050600181019050611ac6565b50829750879550505050505092915050565b6000611b1b8261229c565b611b2581856122dd565b935083602082028501611b3785612281565b8060005b85811015611b735784840389528151611b548582611a5a565b9450611b5f836122bf565b925060208a01995050600181019050611b3b565b50829750879550505050505092915050565b611b8e8161233f565b82525050565b611b9d8161233f565b82525050565b611bac81612395565b82525050565b6000611bbd826122a7565b611bc781856122ee565b9350611bd78185602086016123b6565b611be0816124a8565b840191505092915050565b6000611bf6826122a7565b611c0081856122ff565b9350611c108185602086016123b6565b611c19816124a8565b840191505092915050565b6000611c2f826122a7565b611c398185612310565b9350611c498185602086016123b6565b80840191505092915050565b6000611c626016836122ff565b91507f4169726c696e6520646f6573206e6f74206578697374000000000000000000006000830152602082019050919050565b6000611ca26027836122ff565b91507f43616c6c6572206e6f7420617574686f72697a656420746f206d616b6520746860008301527f69732063616c6c000000000000000000000000000000000000000000000000006020830152604082019050919050565b6000611d08601e836122ff565b91507f466c69676874206e616d6520616c7265616479207265676973746572656400006000830152602082019050919050565b6000611d48602c836122ff565b91507f546865206e657720636f6e747261637420616464726573732063616e6e6f742060008301527f62652061646472657373203000000000000000000000000000000000000000006020830152604082019050919050565b6000611dae6029836122ff565b91507f4f6e6c7920746865206f776e65722063616e20706572666f726d20746869732060008301527f6f7065726174696f6e00000000000000000000000000000000000000000000006020830152604082019050919050565b6000611e146021836122ff565b91507f546865206e6577204f776e65722063616e6e6f7420626520616464726573732060008301527f30000000000000000000000000000000000000000000000000000000000000006020830152604082019050919050565b6000611e7a602e836122ff565b91507f54686973206163636f756e742068617320616e204169726c696e6520616c726560008301527f61647920726567697374657265640000000000000000000000000000000000006020830152604082019050919050565b6000606083016000830151611eeb6000860182611ba3565b5060208301518482036020860152611f038282611bb2565b9150506040830151611f186040860182611a6e565b508091505092915050565b6000606083016000830151611f3b6000860182611ba3565b5060208301518482036020860152611f538282611bb2565b9150506040830151611f686040860182611a6e565b508091505092915050565b600060a083016000830151611f8b6000860182611b85565b506020830151611f9e602086018261200e565b506040830151611fb16040860182611ff0565b5060608301518482036060860152611fc98282611bb2565b91505060808301518482036080860152611fe38282611ed3565b9150508091505092915050565b611ff98161237e565b82525050565b6120088161237e565b82525050565b61201781612388565b82525050565b60006120298284611c24565b915081905092915050565b60006020820190506120496000830184611a8c565b92915050565b60006020820190506120646000830184611a7d565b92915050565b600060208201905081810360008301526120848184611a9b565b905092915050565b600060208201905081810360008301526120a68184611b10565b905092915050565b60006020820190506120c36000830184611b94565b92915050565b600060608201905081810360008301526120e38186611beb565b905081810360208301526120f78185611beb565b90506121066040830184611fff565b949350505050565b6000602082019050818103600083015261212781611c55565b9050919050565b6000602082019050818103600083015261214781611c95565b9050919050565b6000602082019050818103600083015261216781611cfb565b9050919050565b6000602082019050818103600083015261218781611d3b565b9050919050565b600060208201905081810360008301526121a781611da1565b9050919050565b600060208201905081810360008301526121c781611e07565b9050919050565b600060208201905081810360008301526121e781611e6d565b9050919050565b600060208201905081810360008301526122088184611f23565b905092915050565b6000604051905081810181811067ffffffffffffffff8211171561223757612236612479565b5b8060405250919050565b600067ffffffffffffffff82111561225c5761225b612479565b5b601f19601f8301169050602081019050919050565b6000819050602082019050919050565b6000819050602082019050919050565b600081519050919050565b600081519050919050565b600081519050919050565b6000602082019050919050565b6000602082019050919050565b600082825260208201905092915050565b600082825260208201905092915050565b600082825260208201905092915050565b600082825260208201905092915050565b600081905092915050565b60006123268261235e565b9050919050565b60006123388261235e565b9050919050565b60008115159050919050565b6000819050612359826124b9565b919050565b600073ffffffffffffffffffffffffffffffffffffffff82169050919050565b6000819050919050565b600060ff82169050919050565b60006123a08261234b565b9050919050565b82818337600083830152505050565b60005b838110156123d45780820151818401526020810190506123b9565b838111156123e3576000848401525b50505050565b6000600282049050600182168061240157607f821691505b602082108114156124155761241461244a565b5b50919050565b7f4e487b7100000000000000000000000000000000000000000000000000000000600052602160045260246000fd5b7f4e487b7100000000000000000000000000000000000000000000000000000000600052602260045260246000fd5b7f4e487b7100000000000000000000000000000000000000000000000000000000600052604160045260246000fd5b6000601f19601f8301169050919050565b600381106124ca576124c961241b565b5b50565b6124d68161232d565b81146124e157600080fd5b50565b6124ed8161233f565b81146124f857600080fd5b50565b6125048161237e565b811461250f57600080fd5b5056fea264697066735822122056bd5506fb6372aa402fe7b950388b5744710938bfad929d5bd0286adc950c0064736f6c63430008000033",
  "immutableReferences": {},
  "source": "// SPDX-License-Identifier: GPL-3.0\r\npragma experimental ABIEncoderV2;\r\npragma solidity 0.8.0;\r\n\r\nimport \"./SafeMath.sol\";\r\nimport \"./OperationalOwnable.sol\";\r\n\r\ncontract FlightSuretyData is OperationalOwnable {\r\n    using SafeMath for uint256;\r\n\r\n    /********************************************************************************************/\r\n    /*                                       DATA VARIABLES                                     */\r\n    /********************************************************************************************/\r\n\r\n    address payable private authorizedAppContract;\r\n\r\n    // Mappings\r\n    mapping(address => Airline) private airlines;\r\n    mapping(string => Flight) private flights;\r\n\r\n    // Arrays\r\n    Airline[] private registeredAirlines;\r\n    Flight[] private registeredFlights;\r\n\r\n    enum AirlineStatus {PendingApproval, Registered, Paid}\r\n\r\n    struct Airline {\r\n        AirlineStatus status;\r\n        string name;\r\n        address payable airlineAddress;\r\n    }\r\n\r\n    struct Flight {\r\n        bool isRegistered;\r\n        uint8 statusCode;\r\n        uint256 updatedTimestamp;\r\n        string name;\r\n        Airline airline;\r\n    }\r\n\r\n    /********************************************************************************************/\r\n    /*                                       EVENT DEFINITIONS                                  */\r\n    /********************************************************************************************/\r\n\r\n    event AuthorizedAppContractUpdated(address payable newAddress);\r\n\r\n    event NewAirlineRegistered(Airline airline);\r\n\r\n    event NewFlightRegistered(\r\n        string airlineName,\r\n        string flightName,\r\n        uint256 timestamp\r\n    );\r\n\r\n    event TestStringValue(string value);\r\n    event TestIntValue(uint256 value);\r\n    event TestBooleanValue(bool value);\r\n\r\n    /**\r\n     * @dev Constructor\r\n     *      The deploying account becomes contractOwner\r\n     */\r\n    constructor() {}\r\n\r\n    /**\r\n     * @dev Fallback function for funding smart contract.\r\n     */\r\n    fallback() external payable {\r\n        fund();\r\n    }\r\n\r\n    receive() external payable {}\r\n\r\n    /********************************************************************************************/\r\n    /*                                       FUNCTION MODIFIERS                                 */\r\n    /********************************************************************************************/\r\n\r\n    // Modifiers help avoid duplication of code. They are typically used to validate something\r\n    // before a function is allowed to be executed.\r\n\r\n    modifier onlyAuthorizedContract() {\r\n        require(\r\n            msg.sender == authorizedAppContract,\r\n            \"Caller not authorized to make this call\"\r\n        );\r\n        _;\r\n    }\r\n\r\n    /********************************************************************************************/\r\n    /*                                     SMART CONTRACT FUNCTIONS                             */\r\n    /********************************************************************************************/\r\n\r\n    /**\r\n     *   @dev Update the authorized app contract address\r\n     *\r\n     */\r\n    function updateAuthorizedAppContract(address payable newAddress)\r\n        public\r\n        onlyOwner\r\n    {\r\n        _updateAuthorizedAppContract(newAddress);\r\n    }\r\n\r\n    /**\r\n     *   @dev Update the authorized app contract address\r\n     *\r\n     */\r\n    function _updateAuthorizedAppContract(address payable newAddress) internal {\r\n        require(\r\n            newAddress != address(0),\r\n            \"The new contract address cannot be address 0\"\r\n        );\r\n        authorizedAppContract = newAddress;\r\n        emit AuthorizedAppContractUpdated(newAddress);\r\n    }\r\n\r\n    /**\r\n     * @dev Add an airline to the registration queue\r\n     *      Can only be called from FlightSuretyApp contract\r\n     *\r\n     */\r\n\r\n    function registerAirline(\r\n        address payable airlineAddress,\r\n        string calldata name\r\n    ) external onlyAuthorizedContract {\r\n\r\n        if (_isNumberOfAirlinesFourOrMore()) {\r\n            require(!_isAirlineRegisteredForAccount(airlineAddress),\r\n            \"This account has an Airline already registered\"\r\n            );\r\n        }\r\n       _registerAirline(airlineAddress, name);\r\n    }\r\n\r\n    function _registerAirline(\r\n        address payable airlineAddress,\r\n        string calldata name\r\n    ) internal {\r\n         Airline memory newAirline =\r\n            Airline(AirlineStatus.Registered, name, airlineAddress);\r\n        airlines[airlineAddress] = newAirline;\r\n        emit NewAirlineRegistered(newAirline);\r\n        registeredAirlines.push(newAirline);\r\n    }\r\n\r\n    function allAirlines() public view returns (Airline[] memory) {\r\n        return registeredAirlines;\r\n    }\r\n\r\n    function allFlights() public view returns (Flight[] memory) {\r\n        return registeredFlights;\r\n    }\r\n\r\n    /**\r\n     * @dev Add new Flight\r\n     *\r\n     */\r\n    function registerFlight(\r\n        address payable airlineAddress,\r\n        string memory flightName,\r\n        uint256 flightTime\r\n    ) external onlyAuthorizedContract {\r\n        require(\r\n            !_isFlightRegistered(flightName),\r\n            \"Flight name already registered\"\r\n        );\r\n        require(\r\n            _isAirlineRegisteredForAccount(airlineAddress),\r\n            \"Airline does not exist\"\r\n        );\r\n\r\n        Airline memory airline = airlines[airlineAddress];\r\n        Flight memory newFlight =\r\n            Flight(true, 0, flightTime, flightName, airline);\r\n\r\n        flights[flightName] = newFlight;\r\n        registeredFlights.push(newFlight);\r\n        emit NewFlightRegistered(airline.name, flightName, flightTime);\r\n    }\r\n\r\n    /**\r\n     * @dev Buy insurance for a flight\r\n     *\r\n     */\r\n\r\n    function buy() external payable {}\r\n\r\n    /**\r\n     *  @dev Credits payouts to insurees\r\n     */\r\n    function creditInsurees() external pure {}\r\n\r\n    /**\r\n     *  @dev Transfers eligible payout funds to insuree\r\n     *\r\n     */\r\n    function pay() external pure {}\r\n\r\n    /********************************************************************************************/\r\n    /*                                       UTILITY FUNCTIONS                                  */\r\n    /********************************************************************************************/\r\n\r\n    /**\r\n     * @dev Initial funding for the insurance. Unless there are too many delayed flights\r\n     *      resulting in insurance payouts, the contract should be self-sustaining\r\n     *\r\n     */\r\n\r\n    function fund() public payable {}\r\n\r\n    function _isNumberOfAirlinesFourOrMore() internal returns (bool) {\r\n        return registeredAirlines.length >= 4;\r\n    }\r\n\r\n    function _isAirlineRegisteredForAccount(address payable airlineAddress)\r\n        internal\r\n        view\r\n        returns (bool)\r\n    {\r\n        return bytes(airlines[airlineAddress].name).length > 1;\r\n    }\r\n\r\n    function _isFlightRegistered(string memory flightName)\r\n        internal\r\n        view\r\n        returns (bool)\r\n    {\r\n        return flights[flightName].isRegistered;\r\n    }\r\n\r\n    function _getFlightKey(\r\n        address airline,\r\n        string memory flight,\r\n        uint256 timestamp\r\n    ) internal pure returns (bytes32) {\r\n        return keccak256(abi.encodePacked(airline, flight, timestamp));\r\n    }\r\n}\r\n",
  "sourcePath": "/media/indigo/backup/AXEL/Personal/Tutorials/blocksurety/blockchain-flight-surety/contracts/FlightSuretyData.sol",
  "compiler": {
    "name": "solc",
    "version": "0.8.0+commit.c7dfd78e.Emscripten.clang"
  },
  "schemaVersion": "3.3.1",
  "updatedAt": "2020-12-27T21:52:59.967Z",
  "networkType": "ethereum",
  "devdoc": {
    "kind": "dev",
    "methods": {
      "buy()": {
        "details": "Buy insurance for a flight"
      },
      "constructor": {
        "details": "Constructor      The deploying account becomes contractOwner"
      },
      "creditInsurees()": {
        "details": "Credits payouts to insurees"
      },
      "fund()": {
        "details": "Initial funding for the insurance. Unless there are too many delayed flights      resulting in insurance payouts, the contract should be self-sustaining"
      },
      "isOperational()": {
        "details": "Get operating status of contract",
        "returns": {
          "_0": "A bool that is the current operating status"
        }
      },
      "pay()": {
        "details": "Transfers eligible payout funds to insuree"
      },
      "registerAirline(address,string)": {
        "details": "Add an airline to the registration queue      Can only be called from FlightSuretyApp contract"
      },
      "registerFlight(address,string,uint256)": {
        "details": "Add new Flight"
      },
      "setOperationalStatus(bool)": {
        "details": "Sets contract operations on/off When operational mode is disabled, all write transactions except for this one will fail"
      },
      "updateAuthorizedAppContract(address)": {
        "details": "Update the authorized app contract address"
      }
    },
    "version": 1
  },
  "userdoc": {
    "kind": "user",
    "methods": {},
    "version": 1
  }
}