{
  "contractName": "FlightSuretyData",
  "abi": [
    {
      "inputs": [],
      "stateMutability": "nonpayable",
      "type": "constructor"
    },
    {
      "anonymous": false,
      "inputs": [
        {
          "indexed": false,
          "internalType": "address payable",
          "name": "newAddress",
          "type": "address"
        }
      ],
      "name": "AuthorizedAppContractUpdated",
      "type": "event"
    },
    {
      "anonymous": false,
      "inputs": [
        {
          "components": [
            {
              "internalType": "enum FlightSuretyData.AirlineStatus",
              "name": "status",
              "type": "uint8"
            },
            {
              "internalType": "string",
              "name": "name",
              "type": "string"
            },
            {
              "internalType": "address payable",
              "name": "airlineAddress",
              "type": "address"
            }
          ],
          "indexed": false,
          "internalType": "struct FlightSuretyData.Airline",
          "name": "airline",
          "type": "tuple"
        }
      ],
      "name": "NewAirlineRegistered",
      "type": "event"
    },
    {
      "anonymous": false,
      "inputs": [
        {
          "indexed": false,
          "internalType": "string",
          "name": "airlineName",
          "type": "string"
        },
        {
          "indexed": false,
          "internalType": "string",
          "name": "flightName",
          "type": "string"
        },
        {
          "indexed": false,
          "internalType": "uint256",
          "name": "timestamp",
          "type": "uint256"
        }
      ],
      "name": "NewFlightRegistered",
      "type": "event"
    },
    {
      "anonymous": false,
      "inputs": [
        {
          "indexed": false,
          "internalType": "bool",
          "name": "value",
          "type": "bool"
        }
      ],
      "name": "TestBooleanValue",
      "type": "event"
    },
    {
      "anonymous": false,
      "inputs": [
        {
          "indexed": false,
          "internalType": "uint256",
          "name": "value",
          "type": "uint256"
        }
      ],
      "name": "TestIntValue",
      "type": "event"
    },
    {
      "anonymous": false,
      "inputs": [
        {
          "indexed": false,
          "internalType": "string",
          "name": "value",
          "type": "string"
        }
      ],
      "name": "TestStringValue",
      "type": "event"
    },
    {
      "anonymous": false,
      "inputs": [
        {
          "indexed": true,
          "internalType": "address",
          "name": "oldOwner",
          "type": "address"
        },
        {
          "indexed": true,
          "internalType": "address",
          "name": "newOwner",
          "type": "address"
        }
      ],
      "name": "TransferOwnership",
      "type": "event"
    },
    {
      "anonymous": false,
      "inputs": [
        {
          "indexed": false,
          "internalType": "bool",
          "name": "mode",
          "type": "bool"
        }
      ],
      "name": "UpdateOperationalStatus",
      "type": "event"
    },
    {
      "stateMutability": "payable",
      "type": "fallback",
      "payable": true
    },
    {
      "inputs": [],
      "name": "isOperational",
      "outputs": [
        {
          "internalType": "bool",
          "name": "",
          "type": "bool"
        }
      ],
      "stateMutability": "view",
      "type": "function",
      "constant": true
    },
    {
      "inputs": [],
      "name": "isOwner",
      "outputs": [
        {
          "internalType": "bool",
          "name": "",
          "type": "bool"
        }
      ],
      "stateMutability": "view",
      "type": "function",
      "constant": true
    },
    {
      "inputs": [],
      "name": "kill",
      "outputs": [],
      "stateMutability": "nonpayable",
      "type": "function"
    },
    {
      "inputs": [],
      "name": "owner",
      "outputs": [
        {
          "internalType": "address",
          "name": "",
          "type": "address"
        }
      ],
      "stateMutability": "view",
      "type": "function",
      "constant": true
    },
    {
      "inputs": [],
      "name": "renounceOwnership",
      "outputs": [],
      "stateMutability": "nonpayable",
      "type": "function"
    },
    {
      "inputs": [
        {
          "internalType": "bool",
          "name": "mode",
          "type": "bool"
        }
      ],
      "name": "setOperationalStatus",
      "outputs": [],
      "stateMutability": "nonpayable",
      "type": "function"
    },
    {
      "inputs": [
        {
          "internalType": "address payable",
          "name": "newOwner",
          "type": "address"
        }
      ],
      "name": "transferOwnership",
      "outputs": [],
      "stateMutability": "nonpayable",
      "type": "function"
    },
    {
      "inputs": [
        {
          "internalType": "address payable",
          "name": "newAddress",
          "type": "address"
        }
      ],
      "name": "updateAuthorizedAppContract",
      "outputs": [],
      "stateMutability": "nonpayable",
      "type": "function"
    },
    {
      "inputs": [
        {
          "internalType": "address payable",
          "name": "airlineAddress",
          "type": "address"
        },
        {
          "internalType": "string",
          "name": "name",
          "type": "string"
        }
      ],
      "name": "registerAirline",
      "outputs": [],
      "stateMutability": "nonpayable",
      "type": "function"
    },
    {
      "inputs": [],
      "name": "allAirlines",
      "outputs": [
        {
          "components": [
            {
              "internalType": "enum FlightSuretyData.AirlineStatus",
              "name": "status",
              "type": "uint8"
            },
            {
              "internalType": "string",
              "name": "name",
              "type": "string"
            },
            {
              "internalType": "address payable",
              "name": "airlineAddress",
              "type": "address"
            }
          ],
          "internalType": "struct FlightSuretyData.Airline[]",
          "name": "",
          "type": "tuple[]"
        }
      ],
      "stateMutability": "view",
      "type": "function",
      "constant": true
    },
    {
      "inputs": [],
      "name": "allFlights",
      "outputs": [
        {
          "components": [
            {
              "internalType": "bool",
              "name": "isRegistered",
              "type": "bool"
            },
            {
              "internalType": "uint8",
              "name": "statusCode",
              "type": "uint8"
            },
            {
              "internalType": "uint256",
              "name": "updatedTimestamp",
              "type": "uint256"
            },
            {
              "internalType": "string",
              "name": "name",
              "type": "string"
            },
            {
              "components": [
                {
                  "internalType": "enum FlightSuretyData.AirlineStatus",
                  "name": "status",
                  "type": "uint8"
                },
                {
                  "internalType": "string",
                  "name": "name",
                  "type": "string"
                },
                {
                  "internalType": "address payable",
                  "name": "airlineAddress",
                  "type": "address"
                }
              ],
              "internalType": "struct FlightSuretyData.Airline",
              "name": "airline",
              "type": "tuple"
            }
          ],
          "internalType": "struct FlightSuretyData.Flight[]",
          "name": "",
          "type": "tuple[]"
        }
      ],
      "stateMutability": "view",
      "type": "function",
      "constant": true
    },
    {
      "inputs": [
        {
          "internalType": "address payable",
          "name": "airlineAddress",
          "type": "address"
        },
        {
          "internalType": "string",
          "name": "flightName",
          "type": "string"
        },
        {
          "internalType": "uint256",
          "name": "flightTime",
          "type": "uint256"
        }
      ],
      "name": "registerFlight",
      "outputs": [],
      "stateMutability": "nonpayable",
      "type": "function"
    },
    {
      "inputs": [],
      "name": "buy",
      "outputs": [],
      "stateMutability": "payable",
      "type": "function",
      "payable": true
    },
    {
      "inputs": [],
      "name": "creditInsurees",
      "outputs": [],
      "stateMutability": "pure",
      "type": "function",
      "constant": true
    },
    {
      "inputs": [],
      "name": "pay",
      "outputs": [],
      "stateMutability": "pure",
      "type": "function",
      "constant": true
    },
    {
      "inputs": [],
      "name": "fund",
      "outputs": [],
      "stateMutability": "payable",
      "type": "function",
      "payable": true
    }
  ],
  "bytecode": "0x608060405260016000806101000a81548160ff02191690831515021790555034801561002a57600080fd5b5033600060016101000a81548173ffffffffffffffffffffffffffffffffffffffff021916908373ffffffffffffffffffffffffffffffffffffffff160217905550600060019054906101000a900473ffffffffffffffffffffffffffffffffffffffff1673ffffffffffffffffffffffffffffffffffffffff16600073ffffffffffffffffffffffffffffffffffffffff167f5c486528ec3e3f0ea91181cff8116f02bfa350e03b8b6f12e00765adbb5af85c60405160405180910390a36122e0806100f86000396000f3fe6080604052600436106100f75760003560e01c8063715018a61161008a578063b60d428811610059578063b60d42881461028f578063cd905dff14610299578063ee38a749146102c4578063f2fde38b146102ed576100f8565b8063715018a6146102185780638da5cb5b1461022f5780638f32d59b1461025a578063a6f2ae3a14610285576100f8565b80633cc0be9c116100c65780633cc0be9c1461018657806341c0e1b5146101af5780635122cb38146101c657806353a50a0d146101ef576100f8565b80631b9265b8146101025780632c49615f146101195780632d4b06b61461014457806336cee4841461016f576100f8565b5b610100610316565b005b34801561010e57600080fd5b50610117610318565b005b34801561012557600080fd5b5061012e61031a565b60405161013b9190611eb5565b60405180910390f35b34801561015057600080fd5b5061015961049e565b6040516101669190611ed7565b60405180910390f35b34801561017b57600080fd5b5061018461071a565b005b34801561019257600080fd5b506101ad60048036038101906101a891906118cd565b61071c565b005b3480156101bb57600080fd5b506101c4610c84565b005b3480156101d257600080fd5b506101ed60048036038101906101e89190611934565b610d17565b005b3480156101fb57600080fd5b506102166004803603810190610211919061184c565b610dc9565b005b34801561022457600080fd5b5061022d610e32565b005b34801561023b57600080fd5b50610244610f4f565b6040516102519190611e7f565b60405180910390f35b34801561026657600080fd5b5061026f610f78565b60405161027c9190611ef9565b60405180910390f35b61028d610fcf565b005b610297610316565b005b3480156102a557600080fd5b506102ae610fd1565b6040516102bb9190611ef9565b60405180910390f35b3480156102d057600080fd5b506102eb60048036038101906102e69190611875565b610fe7565b005b3480156102f957600080fd5b50610314600480360381019061030f919061184c565b611313565b005b565b565b60606004805480602002602001604051908101604052809291908181526020016000905b8282101561049557838290600052602060002090600302016040518060600160405290816000820160009054906101000a900460ff16600281111561037f57fe5b600281111561038a57fe5b8152602001600182018054600181600116156101000203166002900480601f0160208091040260200160405190810160405280929190818152602001828054600181600116156101000203166002900480156104275780601f106103fc57610100808354040283529160200191610427565b820191906000526020600020905b81548152906001019060200180831161040a57829003601f168201915b505050505081526020016002820160009054906101000a900473ffffffffffffffffffffffffffffffffffffffff1673ffffffffffffffffffffffffffffffffffffffff1673ffffffffffffffffffffffffffffffffffffffff16815250508152602001906001019061033e565b50505050905090565b60606005805480602002602001604051908101604052809291908181526020016000905b8282101561071157838290600052602060002090600602016040518060a00160405290816000820160009054906101000a900460ff161515151581526020016000820160019054906101000a900460ff1660ff1660ff16815260200160018201548152602001600282018054600181600116156101000203166002900480601f0160208091040260200160405190810160405280929190818152602001828054600181600116156101000203166002900480156105c05780601f10610595576101008083540402835291602001916105c0565b820191906000526020600020905b8154815290600101906020018083116105a357829003601f168201915b50505050508152602001600382016040518060600160405290816000820160009054906101000a900460ff1660028111156105f757fe5b600281111561060257fe5b8152602001600182018054600181600116156101000203166002900480601f01602080910402602001604051908101604052809291908181526020018280546001816001161561010002031660029004801561069f5780601f106106745761010080835404028352916020019161069f565b820191906000526020600020905b81548152906001019060200180831161068257829003601f168201915b505050505081526020016002820160009054906101000a900473ffffffffffffffffffffffffffffffffffffffff1673ffffffffffffffffffffffffffffffffffffffff1673ffffffffffffffffffffffffffffffffffffffff168152505081525050815260200190600101906104c2565b50505050905090565b565b600160009054906101000a900473ffffffffffffffffffffffffffffffffffffffff1673ffffffffffffffffffffffffffffffffffffffff163373ffffffffffffffffffffffffffffffffffffffff16146107ac576040517f08c379a00000000000000000000000000000000000000000000000000000000081526004016107a390611f79565b60405180910390fd5b6107b58261137c565b156107f5576040517f08c379a00000000000000000000000000000000000000000000000000000000081526004016107ec90611f99565b60405180910390fd5b6107fe836113b4565b61083d576040517f08c379a000000000000000000000000000000000000000000000000000000000815260040161083490611f59565b60405180910390fd5b610845611648565b600260008573ffffffffffffffffffffffffffffffffffffffff1673ffffffffffffffffffffffffffffffffffffffff1681526020019081526020016000206040518060600160405290816000820160009054906101000a900460ff1660028111156108ad57fe5b60028111156108b857fe5b8152602001600182018054600181600116156101000203166002900480601f0160208091040260200160405190810160405280929190818152602001828054600181600116156101000203166002900480156109555780601f1061092a57610100808354040283529160200191610955565b820191906000526020600020905b81548152906001019060200180831161093857829003601f168201915b505050505081526020016002820160009054906101000a900473ffffffffffffffffffffffffffffffffffffffff1673ffffffffffffffffffffffffffffffffffffffff1673ffffffffffffffffffffffffffffffffffffffff168152505090506109be61168a565b6040518060a00160405280600115158152602001600060ff168152602001848152602001858152602001838152509050806003856040516109ff9190611e68565b908152602001604051809103902060008201518160000160006101000a81548160ff02191690831515021790555060208201518160000160016101000a81548160ff021916908360ff160217905550604082015181600101556060820151816002019080519060200190610a749291906116c4565b5060808201518160030160008201518160000160006101000a81548160ff02191690836002811115610aa257fe5b02179055506020820151816001019080519060200190610ac39291906116c4565b5060408201518160020160006101000a81548173ffffffffffffffffffffffffffffffffffffffff021916908373ffffffffffffffffffffffffffffffffffffffff1602179055505050905050600581908060018154018082558091505060019003906000526020600020906006020160009091909190915060008201518160000160006101000a81548160ff02191690831515021790555060208201518160000160016101000a81548160ff021916908360ff160217905550604082015181600101556060820151816002019080519060200190610ba39291906116c4565b5060808201518160030160008201518160000160006101000a81548160ff02191690836002811115610bd157fe5b02179055506020820151816001019080519060200190610bf29291906116c4565b5060408201518160020160006101000a81548173ffffffffffffffffffffffffffffffffffffffff021916908373ffffffffffffffffffffffffffffffffffffffff160217905550505050507fd4bbba53ce61e9efb0a8a74165962291978bb51342d6545ed0963af55635321382602001518585604051610c7593929190611f14565b60405180910390a15050505050565b600060019054906101000a900473ffffffffffffffffffffffffffffffffffffffff1673ffffffffffffffffffffffffffffffffffffffff163373ffffffffffffffffffffffffffffffffffffffff161415610d1557600060019054906101000a900473ffffffffffffffffffffffffffffffffffffffff1673ffffffffffffffffffffffffffffffffffffffff16ff5b565b610d1f610f78565b610d74576040517f08c379a00000000000000000000000000000000000000000000000000000000081526004018080602001828103825260298152602001806122616029913960400191505060405180910390fd5b7fb6d5f5457d1c101e27891c7154e37f1578a63e19a5396705b34a4b3596b0cab58160405180821515815260200191505060405180910390a1806000806101000a81548160ff02191690831515021790555050565b610dd1610f78565b610e26576040517f08c379a00000000000000000000000000000000000000000000000000000000081526004018080602001828103825260298152602001806122616029913960400191505060405180910390fd5b610e2f81611417565b50565b610e3a610f78565b610e8f576040517f08c379a00000000000000000000000000000000000000000000000000000000081526004018080602001828103825260298152602001806122616029913960400191505060405180910390fd5b600073ffffffffffffffffffffffffffffffffffffffff16600060019054906101000a900473ffffffffffffffffffffffffffffffffffffffff1673ffffffffffffffffffffffffffffffffffffffff167f5c486528ec3e3f0ea91181cff8116f02bfa350e03b8b6f12e00765adbb5af85c60405160405180910390a360008060016101000a81548173ffffffffffffffffffffffffffffffffffffffff021916908373ffffffffffffffffffffffffffffffffffffffff160217905550565b60008060019054906101000a900473ffffffffffffffffffffffffffffffffffffffff16905090565b60008060019054906101000a900473ffffffffffffffffffffffffffffffffffffffff1673ffffffffffffffffffffffffffffffffffffffff163373ffffffffffffffffffffffffffffffffffffffff1614905090565b565b60008060009054906101000a900460ff16905090565b600160009054906101000a900473ffffffffffffffffffffffffffffffffffffffff1673ffffffffffffffffffffffffffffffffffffffff163373ffffffffffffffffffffffffffffffffffffffff1614611077576040517f08c379a000000000000000000000000000000000000000000000000000000000815260040161106e90611f79565b60405180910390fd5b611080836113b4565b156110c0576040517f08c379a00000000000000000000000000000000000000000000000000000000081526004016110b790611fd9565b60405180910390fd5b6110c8611648565b6040518060600160405280600160028111156110e057fe5b815260200184848080601f016020809104026020016040519081016040528093929190818152602001838380828437600081840152601f19601f8201169050808301925050505050505081526020018573ffffffffffffffffffffffffffffffffffffffff16815250905080600260008673ffffffffffffffffffffffffffffffffffffffff1673ffffffffffffffffffffffffffffffffffffffff16815260200190815260200160002060008201518160000160006101000a81548160ff021916908360028111156111af57fe5b021790555060208201518160010190805190602001906111d09291906116c4565b5060408201518160020160006101000a81548173ffffffffffffffffffffffffffffffffffffffff021916908373ffffffffffffffffffffffffffffffffffffffff1602179055509050507ff552aa4c67473ff91f76059999074821b16f99df5ffd2cc08f0d13d5502caf5c8160405161124a9190611ff9565b60405180910390a1600481908060018154018082558091505060019003906000526020600020906003020160009091909190915060008201518160000160006101000a81548160ff021916908360028111156112a257fe5b021790555060208201518160010190805190602001906112c39291906116c4565b5060408201518160020160006101000a81548173ffffffffffffffffffffffffffffffffffffffff021916908373ffffffffffffffffffffffffffffffffffffffff160217905550505050505050565b61131b610f78565b611370576040517f08c379a00000000000000000000000000000000000000000000000000000000081526004018080602001828103825260298152602001806122616029913960400191505060405180910390fd5b61137981611502565b50565b600060038260405161138e9190611e68565b908152602001604051809103902060000160009054906101000a900460ff169050919050565b60006001600260008473ffffffffffffffffffffffffffffffffffffffff1673ffffffffffffffffffffffffffffffffffffffff168152602001908152602001600020600101805460018160011615610100020316600290049050119050919050565b600073ffffffffffffffffffffffffffffffffffffffff168173ffffffffffffffffffffffffffffffffffffffff161415611487576040517f08c379a000000000000000000000000000000000000000000000000000000000815260040161147e90611fb9565b60405180910390fd5b80600160006101000a81548173ffffffffffffffffffffffffffffffffffffffff021916908373ffffffffffffffffffffffffffffffffffffffff1602179055507fb58d590ed56d56a6fa0d8a7637ff54c9117435e0366ae25ca47b29296f47ac03816040516114f79190611e9a565b60405180910390a150565b600073ffffffffffffffffffffffffffffffffffffffff168173ffffffffffffffffffffffffffffffffffffffff161415611588576040517f08c379a000000000000000000000000000000000000000000000000000000000815260040180806020018281038252602181526020018061228a6021913960400191505060405180910390fd5b80600060016101000a81548173ffffffffffffffffffffffffffffffffffffffff021916908373ffffffffffffffffffffffffffffffffffffffff1602179055508073ffffffffffffffffffffffffffffffffffffffff16600060019054906101000a900473ffffffffffffffffffffffffffffffffffffffff1673ffffffffffffffffffffffffffffffffffffffff167f5c486528ec3e3f0ea91181cff8116f02bfa350e03b8b6f12e00765adbb5af85c60405160405180910390a350565b60405180606001604052806000600281111561166057fe5b815260200160608152602001600073ffffffffffffffffffffffffffffffffffffffff1681525090565b6040518060a00160405280600015158152602001600060ff16815260200160008152602001606081526020016116be611648565b81525090565b828054600181600116156101000203166002900490600052602060002090601f0160209004810192826116fa5760008555611741565b82601f1061171357805160ff1916838001178555611741565b82800160010185558215611741579182015b82811115611740578251825591602001919060010190611725565b5b50905061174e9190611752565b5090565b5b8082111561176b576000816000905550600101611753565b5090565b60008135905061177e8161221b565b92915050565b60008135905061179381612232565b92915050565b60008083601f8401126117ab57600080fd5b8235905067ffffffffffffffff8111156117c457600080fd5b6020830191508360018202830111156117dc57600080fd5b9250929050565b600082601f8301126117f457600080fd5b81356118076118028261204c565b61201b565b9150808252602083016020830185838301111561182357600080fd5b61182e8382846121b2565b50505092915050565b60008135905061184681612249565b92915050565b60006020828403121561185e57600080fd5b600061186c8482850161176f565b91505092915050565b60008060006040848603121561188a57600080fd5b60006118988682870161176f565b935050602084013567ffffffffffffffff8111156118b557600080fd5b6118c186828701611799565b92509250509250925092565b6000806000606084860312156118e257600080fd5b60006118f08682870161176f565b935050602084013567ffffffffffffffff81111561190d57600080fd5b611919868287016117e3565b925050604061192a86828701611837565b9150509250925092565b60006020828403121561194657600080fd5b600061195484828501611784565b91505092915050565b60006119698383611d1e565b905092915050565b600061197d8383611dbe565b905092915050565b61198e81612138565b82525050565b61199d81612138565b82525050565b6119ac81612126565b82525050565b60006119bd8261209c565b6119c781856120d7565b9350836020820285016119d98561207c565b8060005b85811015611a1557848403895281516119f6858261195d565b9450611a01836120bd565b925060208a019950506001810190506119dd565b50829750879550505050505092915050565b6000611a32826120a7565b611a3c81856120e8565b935083602082028501611a4e8561208c565b8060005b85811015611a8a5784840389528151611a6b8582611971565b9450611a76836120ca565b925060208a01995050600181019050611a52565b50829750879550505050505092915050565b611aa58161214a565b82525050565b611ab48161214a565b82525050565b611ac3816121a0565b82525050565b6000611ad4826120b2565b611ade81856120f9565b9350611aee8185602086016121c1565b611af7816121f6565b840191505092915050565b6000611b0d826120b2565b611b17818561210a565b9350611b278185602086016121c1565b611b30816121f6565b840191505092915050565b6000611b46826120b2565b611b50818561211b565b9350611b608185602086016121c1565b80840191505092915050565b6000611b7960168361210a565b91507f4169726c696e6520646f6573206e6f74206578697374000000000000000000006000830152602082019050919050565b6000611bb960278361210a565b91507f43616c6c6572206e6f7420617574686f72697a656420746f206d616b6520746860008301527f69732063616c6c000000000000000000000000000000000000000000000000006020830152604082019050919050565b6000611c1f601e8361210a565b91507f466c69676874206e616d6520616c7265616479207265676973746572656400006000830152602082019050919050565b6000611c5f602c8361210a565b91507f546865206e657720636f6e747261637420616464726573732063616e6e6f742060008301527f62652061646472657373203000000000000000000000000000000000000000006020830152604082019050919050565b6000611cc5602e8361210a565b91507f54686973206163636f756e742068617320616e204169726c696e6520616c726560008301527f61647920726567697374657265640000000000000000000000000000000000006020830152604082019050919050565b6000606083016000830151611d366000860182611aba565b5060208301518482036020860152611d4e8282611ac9565b9150506040830151611d636040860182611985565b508091505092915050565b6000606083016000830151611d866000860182611aba565b5060208301518482036020860152611d9e8282611ac9565b9150506040830151611db36040860182611985565b508091505092915050565b600060a083016000830151611dd66000860182611a9c565b506020830151611de96020860182611e59565b506040830151611dfc6040860182611e3b565b5060608301518482036060860152611e148282611ac9565b91505060808301518482036080860152611e2e8282611d1e565b9150508091505092915050565b611e4481612189565b82525050565b611e5381612189565b82525050565b611e6281612193565b82525050565b6000611e748284611b3b565b915081905092915050565b6000602082019050611e9460008301846119a3565b92915050565b6000602082019050611eaf6000830184611994565b92915050565b60006020820190508181036000830152611ecf81846119b2565b905092915050565b60006020820190508181036000830152611ef18184611a27565b905092915050565b6000602082019050611f0e6000830184611aab565b92915050565b60006060820190508181036000830152611f2e8186611b02565b90508181036020830152611f428185611b02565b9050611f516040830184611e4a565b949350505050565b60006020820190508181036000830152611f7281611b6c565b9050919050565b60006020820190508181036000830152611f9281611bac565b9050919050565b60006020820190508181036000830152611fb281611c12565b9050919050565b60006020820190508181036000830152611fd281611c52565b9050919050565b60006020820190508181036000830152611ff281611cb8565b9050919050565b600060208201905081810360008301526120138184611d6e565b905092915050565b6000604051905081810181811067ffffffffffffffff82111715612042576120416121f4565b5b8060405250919050565b600067ffffffffffffffff821115612067576120666121f4565b5b601f19601f8301169050602081019050919050565b6000819050602082019050919050565b6000819050602082019050919050565b600081519050919050565b600081519050919050565b600081519050919050565b6000602082019050919050565b6000602082019050919050565b600082825260208201905092915050565b600082825260208201905092915050565b600082825260208201905092915050565b600082825260208201905092915050565b600081905092915050565b600061213182612169565b9050919050565b600061214382612169565b9050919050565b60008115159050919050565b600081905061216482612207565b919050565b600073ffffffffffffffffffffffffffffffffffffffff82169050919050565b6000819050919050565b600060ff82169050919050565b60006121ab82612156565b9050919050565b82818337600083830152505050565b60005b838110156121df5780820151818401526020810190506121c4565b838111156121ee576000848401525b50505050565bfe5b6000601f19601f8301169050919050565b60038110612218576122176121f4565b5b50565b61222481612138565b811461222f57600080fd5b50565b61223b8161214a565b811461224657600080fd5b50565b61225281612189565b811461225d57600080fd5b5056fe4f6e6c7920746865206f776e65722063616e20706572666f726d2074686973206f7065726174696f6e546865206e6577204f776e65722063616e6e6f7420626520616464726573732030a2646970667358221220a540111c7f0753621e8fe17cd5d8340252ed320474c89ec255d39dd0cff784a264736f6c63430007050033",
  "immutableReferences": {},
  "source": "// SPDX-License-Identifier: GPL-3.0\r\npragma experimental ABIEncoderV2;\r\npragma solidity >=0.7.5 <0.8.0;\r\n\r\nimport \"./SafeMath.sol\";\r\nimport \"./OperationalOwnable.sol\";\r\n\r\ncontract FlightSuretyData is OperationalOwnable {\r\n    using SafeMath for uint256;\r\n\r\n    /********************************************************************************************/\r\n    /*                                       DATA VARIABLES                                     */\r\n    /********************************************************************************************/\r\n\r\n    address payable private authorizedAppContract;\r\n\r\n    // Mappings\r\n    mapping(address => Airline) private airlines;\r\n    mapping(string => Flight) private flights;\r\n\r\n    // Arrays\r\n    Airline[] private registeredAirlines;\r\n    Flight[] private registeredFlights;\r\n\r\n\r\n    enum AirlineStatus {\r\n        PendingApproval, \r\n        Registered, \r\n        Paid\r\n    }\r\n\r\n    struct Airline {\r\n        AirlineStatus status;\r\n        string name;\r\n        address payable airlineAddress;\r\n    }\r\n\r\n    struct Flight {\r\n        bool isRegistered;\r\n        uint8 statusCode;\r\n        uint256 updatedTimestamp;\r\n        string name;\r\n        Airline airline;\r\n    }\r\n\r\n    /********************************************************************************************/\r\n    /*                                       EVENT DEFINITIONS                                  */\r\n    /********************************************************************************************/\r\n\r\n    event AuthorizedAppContractUpdated(address payable newAddress);\r\n\r\n    event NewAirlineRegistered(Airline airline);\r\n\r\n    event NewFlightRegistered(string airlineName, string flightName, uint256 timestamp);\r\n\r\n    event TestStringValue(string value);\r\n    event TestIntValue(uint256 value);\r\n    event TestBooleanValue(bool value);\r\n\r\n    /**\r\n     * @dev Constructor\r\n     *      The deploying account becomes contractOwner\r\n     */\r\n    constructor(){}\r\n\r\n    /**\r\n     * @dev Fallback function for funding smart contract.\r\n     */\r\n    fallback() external payable {\r\n        fund();\r\n    }\r\n\r\n    /********************************************************************************************/\r\n    /*                                       FUNCTION MODIFIERS                                 */\r\n    /********************************************************************************************/\r\n\r\n    // Modifiers help avoid duplication of code. They are typically used to validate something\r\n    // before a function is allowed to be executed.\r\n\r\n    modifier onlyAuthorizedContract() {\r\n        require(msg.sender == authorizedAppContract, \"Caller not authorized to make this call\");\r\n        _;\r\n    }\r\n\r\n    /********************************************************************************************/\r\n    /*                                     SMART CONTRACT FUNCTIONS                             */\r\n    /********************************************************************************************/\r\n\r\n    /**\r\n     *   @dev Update the authorized app contract address\r\n     *\r\n     */\r\n    function updateAuthorizedAppContract(address payable newAddress)\r\n        public\r\n        onlyOwner\r\n    {\r\n        _updateAuthorizedAppContract(newAddress);\r\n    }\r\n\r\n    /**\r\n     *   @dev Update the authorized app contract address\r\n     *\r\n     */\r\n    function _updateAuthorizedAppContract(address payable newAddress) internal {\r\n        require(\r\n            newAddress != address(0),\r\n            \"The new contract address cannot be address 0\"\r\n        );\r\n        authorizedAppContract = newAddress;\r\n        emit AuthorizedAppContractUpdated(newAddress);\r\n    }\r\n\r\n    /**\r\n     * @dev Add an airline to the registration queue\r\n     *      Can only be called from FlightSuretyApp contract\r\n     *\r\n     */\r\n\r\n    function registerAirline(address payable airlineAddress, string calldata name)\r\n        external\r\n        onlyAuthorizedContract\r\n    {\r\n        require(!_isAirlineRegisteredForAccount(airlineAddress), \"This account has an Airline already registered\");\r\n        Airline memory newAirline = Airline(AirlineStatus.Registered, name, airlineAddress);\r\n        airlines[airlineAddress] = newAirline;\r\n        emit NewAirlineRegistered(newAirline);\r\n        registeredAirlines.push(newAirline);\r\n    }\r\n\r\n    function allAirlines()\r\n    public view\r\n    returns(Airline[] memory)\r\n    {\r\n        return registeredAirlines;\r\n    }\r\n\r\n     function allFlights()\r\n    public view\r\n    returns(Flight[] memory)\r\n    {\r\n        return registeredFlights;\r\n    }\r\n\r\n\r\n    /**\r\n    * @dev Add new Flight\r\n    *\r\n    */\r\n    function registerFlight(address payable airlineAddress, string memory flightName, uint256 flightTime) \r\n    external\r\n    onlyAuthorizedContract \r\n    {\r\n\r\n        require(!_isFlightRegistered(flightName), \"Flight name already registered\");\r\n        require(_isAirlineRegisteredForAccount(airlineAddress), \"Airline does not exist\");\r\n\r\n        Airline memory airline = airlines[airlineAddress];\r\n        Flight memory newFlight = Flight(\r\n            true,\r\n            0,\r\n            flightTime,\r\n            flightName,\r\n            airline\r\n        );\r\n\r\n        flights[flightName] = newFlight;\r\n        registeredFlights.push(newFlight);\r\n        emit NewFlightRegistered(airline.name, flightName, flightTime);\r\n\r\n    }\r\n\r\n    /**\r\n     * @dev Buy insurance for a flight\r\n     *\r\n     */\r\n\r\n    function buy() external payable {}\r\n\r\n    /**\r\n     *  @dev Credits payouts to insurees\r\n     */\r\n    function creditInsurees() external pure {}\r\n\r\n    /**\r\n     *  @dev Transfers eligible payout funds to insuree\r\n     *\r\n     */\r\n    function pay() external pure {}\r\n\r\n    /********************************************************************************************/\r\n    /*                                       UTILITY FUNCTIONS                                  */\r\n    /********************************************************************************************/\r\n\r\n    /**\r\n     * @dev Initial funding for the insurance. Unless there are too many delayed flights\r\n     *      resulting in insurance payouts, the contract should be self-sustaining\r\n     *\r\n     */\r\n\r\n    function fund() public payable {}\r\n\r\n    function _isAirlineRegisteredForAccount(address payable airlineAddress) internal view returns (bool) {\r\n        return bytes(airlines[airlineAddress].name).length > 1;\r\n    }\r\n\r\n    function _isFlightRegistered(string memory flightName) internal view returns (bool) {\r\n        return flights[flightName].isRegistered;\r\n    }\r\n\r\n    function _getFlightKey(\r\n        address airline,\r\n        string memory flight,\r\n        uint256 timestamp\r\n    ) internal pure returns (bytes32) {\r\n        return keccak256(abi.encodePacked(airline, flight, timestamp));\r\n    }\r\n}\r\n",
  "sourcePath": "/media/indigo/backup/AXEL/Personal/Tutorials/blocksurety/blockchain-flight-surety/contracts/FlightSuretyData.sol",
  "compiler": {
    "name": "solc",
    "version": "0.7.5+commit.eb77ed08.Emscripten.clang"
  },
  "schemaVersion": "3.3.1",
  "updatedAt": "2020-11-30T04:26:36.335Z",
  "networkType": "ethereum",
  "devdoc": {
    "kind": "dev",
    "methods": {
      "buy()": {
        "details": "Buy insurance for a flight"
      },
      "constructor": {
        "details": "Constructor      The deploying account becomes contractOwner"
      },
      "creditInsurees()": {
        "details": "Credits payouts to insurees"
      },
      "fund()": {
        "details": "Initial funding for the insurance. Unless there are too many delayed flights      resulting in insurance payouts, the contract should be self-sustaining"
      },
      "isOperational()": {
        "details": "Get operating status of contract",
        "returns": {
          "_0": "A bool that is the current operating status"
        }
      },
      "pay()": {
        "details": "Transfers eligible payout funds to insuree"
      },
      "registerAirline(address,string)": {
        "details": "Add an airline to the registration queue      Can only be called from FlightSuretyApp contract"
      },
      "registerFlight(address,string,uint256)": {
        "details": "Add new Flight"
      },
      "setOperationalStatus(bool)": {
        "details": "Sets contract operations on/off When operational mode is disabled, all write transactions except for this one will fail"
      },
      "updateAuthorizedAppContract(address)": {
        "details": "Update the authorized app contract address"
      }
    },
    "version": 1
  },
  "userdoc": {
    "kind": "user",
    "methods": {},
    "version": 1
  }
}