{
  "contractName": "FlightSuretyData",
  "abi": [
    {
      "inputs": [],
      "stateMutability": "nonpayable",
      "type": "constructor"
    },
    {
      "anonymous": false,
      "inputs": [
        {
          "indexed": false,
          "internalType": "address payable",
          "name": "newAddress",
          "type": "address"
        }
      ],
      "name": "AuthorizedAppContractUpdated",
      "type": "event"
    },
    {
      "anonymous": false,
      "inputs": [
        {
          "indexed": true,
          "internalType": "address",
          "name": "oldOwner",
          "type": "address"
        },
        {
          "indexed": true,
          "internalType": "address",
          "name": "newOwner",
          "type": "address"
        }
      ],
      "name": "TransferOwnership",
      "type": "event"
    },
    {
      "anonymous": false,
      "inputs": [
        {
          "indexed": false,
          "internalType": "bool",
          "name": "mode",
          "type": "bool"
        }
      ],
      "name": "UpdateOperationalStatus",
      "type": "event"
    },
    {
      "stateMutability": "payable",
      "type": "fallback"
    },
    {
      "inputs": [],
      "name": "isOperational",
      "outputs": [
        {
          "internalType": "bool",
          "name": "",
          "type": "bool"
        }
      ],
      "stateMutability": "view",
      "type": "function"
    },
    {
      "inputs": [],
      "name": "isOwner",
      "outputs": [
        {
          "internalType": "bool",
          "name": "",
          "type": "bool"
        }
      ],
      "stateMutability": "view",
      "type": "function"
    },
    {
      "inputs": [],
      "name": "kill",
      "outputs": [],
      "stateMutability": "nonpayable",
      "type": "function"
    },
    {
      "inputs": [],
      "name": "owner",
      "outputs": [
        {
          "internalType": "address",
          "name": "",
          "type": "address"
        }
      ],
      "stateMutability": "view",
      "type": "function"
    },
    {
      "inputs": [],
      "name": "renounceOwnership",
      "outputs": [],
      "stateMutability": "nonpayable",
      "type": "function"
    },
    {
      "inputs": [
        {
          "internalType": "bool",
          "name": "mode",
          "type": "bool"
        }
      ],
      "name": "setOperationalStatus",
      "outputs": [],
      "stateMutability": "nonpayable",
      "type": "function"
    },
    {
      "inputs": [
        {
          "internalType": "address payable",
          "name": "newOwner",
          "type": "address"
        }
      ],
      "name": "transferOwnership",
      "outputs": [],
      "stateMutability": "nonpayable",
      "type": "function"
    },
    {
      "inputs": [
        {
          "internalType": "address payable",
          "name": "newAddress",
          "type": "address"
        }
      ],
      "name": "updateAuthorizedAppContract",
      "outputs": [],
      "stateMutability": "nonpayable",
      "type": "function"
    },
    {
      "inputs": [],
      "name": "registerAirline",
      "outputs": [],
      "stateMutability": "pure",
      "type": "function"
    },
    {
      "inputs": [],
      "name": "buy",
      "outputs": [],
      "stateMutability": "payable",
      "type": "function"
    },
    {
      "inputs": [],
      "name": "creditInsurees",
      "outputs": [],
      "stateMutability": "pure",
      "type": "function"
    },
    {
      "inputs": [],
      "name": "pay",
      "outputs": [],
      "stateMutability": "pure",
      "type": "function"
    },
    {
      "inputs": [],
      "name": "fund",
      "outputs": [],
      "stateMutability": "payable",
      "type": "function"
    }
  ],
  "bytecode": "0x608060405260016000806101000a81548160ff02191690831515021790555034801561002a57600080fd5b5033600060016101000a81548173ffffffffffffffffffffffffffffffffffffffff021916908373ffffffffffffffffffffffffffffffffffffffff160217905550600060019054906101000a900473ffffffffffffffffffffffffffffffffffffffff1673ffffffffffffffffffffffffffffffffffffffff16600073ffffffffffffffffffffffffffffffffffffffff167f5c486528ec3e3f0ea91181cff8116f02bfa350e03b8b6f12e00765adbb5af85c60405160405180910390a36109e1806100f86000396000f3fe6080604052600436106100c65760003560e01c8063715018a61161007f578063a6f2ae3a11610059578063a6f2ae3a14610258578063b60d428814610262578063cd905dff1461026c578063f2fde38b1461029b576100c7565b8063715018a6146101bb5780638da5cb5b146101d25780638f32d59b14610229576100c7565b80631b9265b8146100d157806336cee484146100e857806341c0e1b5146100ff5780635122cb381461011657806353a50a0d1461015357806363e29a3f146101a4576100c7565b5b6100cf6102ec565b005b3480156100dd57600080fd5b506100e66102ee565b005b3480156100f457600080fd5b506100fd6102f0565b005b34801561010b57600080fd5b506101146102f2565b005b34801561012257600080fd5b506101516004803603602081101561013957600080fd5b81019080803515159060200190929190505050610385565b005b34801561015f57600080fd5b506101a26004803603602081101561017657600080fd5b81019080803573ffffffffffffffffffffffffffffffffffffffff169060200190929190505050610439565b005b3480156101b057600080fd5b506101b96104a2565b005b3480156101c757600080fd5b506101d06104a4565b005b3480156101de57600080fd5b506101e76105c1565b604051808273ffffffffffffffffffffffffffffffffffffffff1673ffffffffffffffffffffffffffffffffffffffff16815260200191505060405180910390f35b34801561023557600080fd5b5061023e6105ea565b604051808215151515815260200191505060405180910390f35b610260610641565b005b61026a6102ec565b005b34801561027857600080fd5b50610281610643565b604051808215151515815260200191505060405180910390f35b3480156102a757600080fd5b506102ea600480360360208110156102be57600080fd5b81019080803573ffffffffffffffffffffffffffffffffffffffff169060200190929190505050610659565b005b565b565b565b600060019054906101000a900473ffffffffffffffffffffffffffffffffffffffff1673ffffffffffffffffffffffffffffffffffffffff163373ffffffffffffffffffffffffffffffffffffffff16141561038357600060019054906101000a900473ffffffffffffffffffffffffffffffffffffffff1673ffffffffffffffffffffffffffffffffffffffff16ff5b565b61038d6105ea565b6103e2576040517f08c379a00000000000000000000000000000000000000000000000000000000081526004018080602001828103825260298152602001806109626029913960400191505060405180910390fd5b7fb6d5f5457d1c101e27891c7154e37f1578a63e19a5396705b34a4b3596b0cab581604051808215151515815260200191505060405180910390a1806000806101000a81548160ff02191690831515021790555050565b6104416105ea565b610496576040517f08c379a00000000000000000000000000000000000000000000000000000000081526004018080602001828103825260298152602001806109626029913960400191505060405180910390fd5b61049f816106c2565b50565b565b6104ac6105ea565b610501576040517f08c379a00000000000000000000000000000000000000000000000000000000081526004018080602001828103825260298152602001806109626029913960400191505060405180910390fd5b600073ffffffffffffffffffffffffffffffffffffffff16600060019054906101000a900473ffffffffffffffffffffffffffffffffffffffff1673ffffffffffffffffffffffffffffffffffffffff167f5c486528ec3e3f0ea91181cff8116f02bfa350e03b8b6f12e00765adbb5af85c60405160405180910390a360008060016101000a81548173ffffffffffffffffffffffffffffffffffffffff021916908373ffffffffffffffffffffffffffffffffffffffff160217905550565b60008060019054906101000a900473ffffffffffffffffffffffffffffffffffffffff16905090565b60008060019054906101000a900473ffffffffffffffffffffffffffffffffffffffff1673ffffffffffffffffffffffffffffffffffffffff163373ffffffffffffffffffffffffffffffffffffffff1614905090565b565b60008060009054906101000a900460ff16905090565b6106616105ea565b6106b6576040517f08c379a00000000000000000000000000000000000000000000000000000000081526004018080602001828103825260298152602001806109626029913960400191505060405180910390fd5b6106bf816107ef565b50565b600073ffffffffffffffffffffffffffffffffffffffff168173ffffffffffffffffffffffffffffffffffffffff161415610748576040517f08c379a000000000000000000000000000000000000000000000000000000000815260040180806020018281038252602c815260200180610936602c913960400191505060405180910390fd5b80600160006101000a81548173ffffffffffffffffffffffffffffffffffffffff021916908373ffffffffffffffffffffffffffffffffffffffff1602179055507fb58d590ed56d56a6fa0d8a7637ff54c9117435e0366ae25ca47b29296f47ac0381604051808273ffffffffffffffffffffffffffffffffffffffff1673ffffffffffffffffffffffffffffffffffffffff16815260200191505060405180910390a150565b600073ffffffffffffffffffffffffffffffffffffffff168173ffffffffffffffffffffffffffffffffffffffff161415610875576040517f08c379a000000000000000000000000000000000000000000000000000000000815260040180806020018281038252602181526020018061098b6021913960400191505060405180910390fd5b8073ffffffffffffffffffffffffffffffffffffffff16600060019054906101000a900473ffffffffffffffffffffffffffffffffffffffff1673ffffffffffffffffffffffffffffffffffffffff167f5c486528ec3e3f0ea91181cff8116f02bfa350e03b8b6f12e00765adbb5af85c60405160405180910390a380600060016101000a81548173ffffffffffffffffffffffffffffffffffffffff021916908373ffffffffffffffffffffffffffffffffffffffff1602179055505056fe546865206e657720636f6e747261637420616464726573732063616e6e6f74206265206164647265737320304f6e6c7920746865206f776e65722063616e20706572666f726d2074686973206f7065726174696f6e546865206e6577204f776e65722063616e6e6f7420626520616464726573732030a26469706673582212206db7e3f1a5527449be539a86f26871a40fba25b1fbba2b1c9148aafe0d19a25264736f6c63430006040033",
  "source": "pragma solidity ^0.6.4;\r\n\r\nimport \"./SafeMath.sol\";\r\nimport \"./OperationalOwnable.sol\";\r\n\r\ncontract FlightSuretyData is OperationalOwnable {\r\n    using SafeMath for uint256;\r\n\r\n    /********************************************************************************************/\r\n    /*                                       DATA VARIABLES                                     */\r\n    /********************************************************************************************/\r\n\r\n    address payable private authorizedAppContract;\r\n\r\n    /********************************************************************************************/\r\n    /*                                       EVENT DEFINITIONS                                  */\r\n    /********************************************************************************************/\r\n\r\n    event AuthorizedAppContractUpdated(address payable newAddress);\r\n\r\n    /**\r\n     * @dev Constructor\r\n     *      The deploying account becomes contractOwner\r\n     */\r\n    constructor() public {}\r\n\r\n    /**\r\n     * @dev Fallback function for funding smart contract.\r\n     */\r\n    fallback() external payable {\r\n        fund();\r\n    }\r\n\r\n    /********************************************************************************************/\r\n    /*                                       FUNCTION MODIFIERS                                 */\r\n    /********************************************************************************************/\r\n\r\n    // Modifiers help avoid duplication of code. They are typically used to validate something\r\n    // before a function is allowed to be executed.\r\n\r\n    /********************************************************************************************/\r\n    /*                                     SMART CONTRACT FUNCTIONS                             */\r\n    /********************************************************************************************/\r\n\r\n    /**\r\n     *   @dev Update the authorized app contract address\r\n     *\r\n     */\r\n    function updateAuthorizedAppContract(address payable newAddress)\r\n        public\r\n        onlyOwner\r\n    {\r\n        _updateAuthorizedAppContract(newAddress);\r\n    }\r\n\r\n    /**\r\n     *   @dev Update the authorized app contract address\r\n     *\r\n     */\r\n    function _updateAuthorizedAppContract(address payable newAddress) internal {\r\n        require(newAddress != address(0), \"The new contract address cannot be address 0\");\r\n        authorizedAppContract = newAddress;\r\n        emit AuthorizedAppContractUpdated(newAddress);\r\n    }\r\n\r\n    /**\r\n     * @dev Add an airline to the registration queue\r\n     *      Can only be called from FlightSuretyApp contract\r\n     *\r\n     */\r\n\r\n    function registerAirline() external pure {}\r\n\r\n    /**\r\n     * @dev Buy insurance for a flight\r\n     *\r\n     */\r\n\r\n    function buy() external payable {}\r\n\r\n    /**\r\n     *  @dev Credits payouts to insurees\r\n     */\r\n    function creditInsurees() external pure {}\r\n\r\n    /**\r\n     *  @dev Transfers eligible payout funds to insuree\r\n     *\r\n     */\r\n    function pay() external pure {}\r\n\r\n    /********************************************************************************************/\r\n    /*                                       UTILITY FUNCTIONS                                  */\r\n    /********************************************************************************************/\r\n\r\n    /**\r\n     * @dev Initial funding for the insurance. Unless there are too many delayed flights\r\n     *      resulting in insurance payouts, the contract should be self-sustaining\r\n     *\r\n     */\r\n\r\n    function fund() public payable {}\r\n\r\n    function getFlightKey(\r\n        address airline,\r\n        string memory flight,\r\n        uint256 timestamp\r\n    ) internal pure returns (bytes32) {\r\n        return keccak256(abi.encodePacked(airline, flight, timestamp));\r\n    }\r\n}\r\n",
  "sourcePath": "/media/indigo/backup/AXEL/Personal/Tutorials/blocksurety/blockchain-flight-surety/contracts/FlightSuretyData.sol",
  "compiler": {
    "name": "solc",
    "version": "0.6.4+commit.1dca32f3.Emscripten.clang"
  },
  "schemaVersion": "3.0.23",
  "updatedAt": "2020-07-11T23:31:41.782Z",
  "devdoc": {
    "methods": {
      "buy()": {
        "details": "Buy insurance for a flight      "
      },
      "constructor": {
        "details": "Constructor     The deploying account becomes contractOwner"
      },
      "creditInsurees()": {
        "details": "Credits payouts to insurees"
      },
      "fund()": {
        "details": "Initial funding for the insurance. Unless there are too many delayed flights     resulting in insurance payouts, the contract should be self-sustaining      "
      },
      "isOperational()": {
        "details": "Get operating status of contract",
        "returns": {
          "_0": "A bool that is the current operating status"
        }
      },
      "pay()": {
        "details": "Transfers eligible payout funds to insuree      "
      },
      "registerAirline()": {
        "details": "Add an airline to the registration queue     Can only be called from FlightSuretyApp contract      "
      },
      "setOperationalStatus(bool)": {
        "details": "Sets contract operations on/off     * When operational mode is disabled, all write transactions except for this one will fail"
      },
      "updateAuthorizedAppContract(address)": {
        "details": "Update the authorized app contract address      "
      }
    }
  },
  "userdoc": {
    "methods": {}
  }
}