{
  "contractName": "FlightSuretyApp",
  "abi": [
    {
      "inputs": [],
      "stateMutability": "nonpayable",
      "type": "constructor"
    },
    {
      "anonymous": false,
      "inputs": [
        {
          "indexed": false,
          "internalType": "address",
          "name": "airline",
          "type": "address"
        },
        {
          "indexed": false,
          "internalType": "string",
          "name": "flight",
          "type": "string"
        },
        {
          "indexed": false,
          "internalType": "uint256",
          "name": "timestamp",
          "type": "uint256"
        },
        {
          "indexed": false,
          "internalType": "uint8",
          "name": "status",
          "type": "uint8"
        }
      ],
      "name": "FlightStatusInfo",
      "type": "event"
    },
    {
      "anonymous": false,
      "inputs": [
        {
          "indexed": false,
          "internalType": "address",
          "name": "airline",
          "type": "address"
        },
        {
          "indexed": false,
          "internalType": "string",
          "name": "flight",
          "type": "string"
        },
        {
          "indexed": false,
          "internalType": "uint256",
          "name": "timestamp",
          "type": "uint256"
        },
        {
          "indexed": false,
          "internalType": "uint8",
          "name": "status",
          "type": "uint8"
        }
      ],
      "name": "OracleReport",
      "type": "event"
    },
    {
      "anonymous": false,
      "inputs": [
        {
          "indexed": false,
          "internalType": "uint8",
          "name": "index",
          "type": "uint8"
        },
        {
          "indexed": false,
          "internalType": "address",
          "name": "airline",
          "type": "address"
        },
        {
          "indexed": false,
          "internalType": "string",
          "name": "flight",
          "type": "string"
        },
        {
          "indexed": false,
          "internalType": "uint256",
          "name": "timestamp",
          "type": "uint256"
        }
      ],
      "name": "OracleRequest",
      "type": "event"
    },
    {
      "anonymous": false,
      "inputs": [
        {
          "indexed": true,
          "internalType": "address",
          "name": "oldOwner",
          "type": "address"
        },
        {
          "indexed": true,
          "internalType": "address",
          "name": "newOwner",
          "type": "address"
        }
      ],
      "name": "TransferOwnership",
      "type": "event"
    },
    {
      "inputs": [],
      "name": "REGISTRATION_FEE",
      "outputs": [
        {
          "internalType": "uint256",
          "name": "",
          "type": "uint256"
        }
      ],
      "stateMutability": "view",
      "type": "function",
      "constant": true
    },
    {
      "inputs": [],
      "name": "isOperational",
      "outputs": [
        {
          "internalType": "bool",
          "name": "",
          "type": "bool"
        }
      ],
      "stateMutability": "view",
      "type": "function",
      "constant": true
    },
    {
      "inputs": [],
      "name": "isOwner",
      "outputs": [
        {
          "internalType": "bool",
          "name": "",
          "type": "bool"
        }
      ],
      "stateMutability": "view",
      "type": "function",
      "constant": true
    },
    {
      "inputs": [],
      "name": "kill",
      "outputs": [],
      "stateMutability": "nonpayable",
      "type": "function"
    },
    {
      "inputs": [],
      "name": "owner",
      "outputs": [
        {
          "internalType": "address",
          "name": "",
          "type": "address"
        }
      ],
      "stateMutability": "view",
      "type": "function",
      "constant": true
    },
    {
      "inputs": [],
      "name": "renounceOwnership",
      "outputs": [],
      "stateMutability": "nonpayable",
      "type": "function"
    },
    {
      "inputs": [
        {
          "internalType": "bool",
          "name": "mode",
          "type": "bool"
        }
      ],
      "name": "setOperatingStatus",
      "outputs": [],
      "stateMutability": "nonpayable",
      "type": "function"
    },
    {
      "inputs": [
        {
          "internalType": "address payable",
          "name": "newOwner",
          "type": "address"
        }
      ],
      "name": "transferOwnership",
      "outputs": [],
      "stateMutability": "nonpayable",
      "type": "function"
    },
    {
      "inputs": [],
      "name": "registerAirline",
      "outputs": [
        {
          "internalType": "bool",
          "name": "success",
          "type": "bool"
        },
        {
          "internalType": "uint256",
          "name": "votes",
          "type": "uint256"
        }
      ],
      "stateMutability": "pure",
      "type": "function",
      "constant": true
    },
    {
      "inputs": [],
      "name": "registerFlight",
      "outputs": [],
      "stateMutability": "pure",
      "type": "function",
      "constant": true
    },
    {
      "inputs": [
        {
          "internalType": "address",
          "name": "airline",
          "type": "address"
        },
        {
          "internalType": "string",
          "name": "flight",
          "type": "string"
        },
        {
          "internalType": "uint256",
          "name": "timestamp",
          "type": "uint256"
        }
      ],
      "name": "fetchFlightStatus",
      "outputs": [],
      "stateMutability": "nonpayable",
      "type": "function"
    },
    {
      "inputs": [],
      "name": "registerOracle",
      "outputs": [],
      "stateMutability": "payable",
      "type": "function",
      "payable": true
    },
    {
      "inputs": [],
      "name": "getMyIndexes",
      "outputs": [
        {
          "internalType": "uint8[3]",
          "name": "",
          "type": "uint8[3]"
        }
      ],
      "stateMutability": "view",
      "type": "function",
      "constant": true
    },
    {
      "inputs": [
        {
          "internalType": "uint8",
          "name": "index",
          "type": "uint8"
        },
        {
          "internalType": "address",
          "name": "airline",
          "type": "address"
        },
        {
          "internalType": "string",
          "name": "flight",
          "type": "string"
        },
        {
          "internalType": "uint256",
          "name": "timestamp",
          "type": "uint256"
        },
        {
          "internalType": "uint8",
          "name": "statusCode",
          "type": "uint8"
        }
      ],
      "name": "submitOracleResponse",
      "outputs": [],
      "stateMutability": "nonpayable",
      "type": "function"
    }
  ],
  "bytecode": "0x608060405260016000806101000a81548160ff0219169083151502179055506000600360006101000a81548160ff021916908360ff16021790555034801561004657600080fd5b5033600060016101000a81548173ffffffffffffffffffffffffffffffffffffffff021916908373ffffffffffffffffffffffffffffffffffffffff160217905550600060019054906101000a900473ffffffffffffffffffffffffffffffffffffffff1673ffffffffffffffffffffffffffffffffffffffff16600073ffffffffffffffffffffffffffffffffffffffff167f5c486528ec3e3f0ea91181cff8116f02bfa350e03b8b6f12e00765adbb5af85c60405160405180910390a3611717806101146000396000f3fe6080604052600436106100dd5760003560e01c80638da5cb5b1161007f578063c10f270011610059578063c10f2700146102a8578063cd905dff14610372578063f2fde38b146103a1578063f83f11c0146103f2576100dd565b80638da5cb5b1461020b5780638f32d59b14610262578063ae6f17e014610291576100dd565b80635f1cc0e6116100bb5780635f1cc0e61461014057806363e29a3f1461019357806364b4f751146101c9578063715018a6146101f4576100dd565b8063110466ed146100e2578063339d25901461011f57806341c0e1b514610129575b600080fd5b3480156100ee57600080fd5b5061011d6004803603602081101561010557600080fd5b810190808035151590602001909291905050506104a2565b005b61012761051b565b005b34801561013557600080fd5b5061013e610641565b005b34801561014c57600080fd5b506101556106d4565b6040518082600360200280838360005b83811015610180578082015181840152602081019050610165565b5050505090500191505060405180910390f35b34801561019f57600080fd5b506101a8610847565b60405180831515151581526020018281526020019250505060405180910390f35b3480156101d557600080fd5b506101de610858565b6040518082815260200191505060405180910390f35b34801561020057600080fd5b50610209610864565b005b34801561021757600080fd5b50610220610981565b604051808273ffffffffffffffffffffffffffffffffffffffff1673ffffffffffffffffffffffffffffffffffffffff16815260200191505060405180910390f35b34801561026e57600080fd5b506102776109aa565b604051808215151515815260200191505060405180910390f35b34801561029d57600080fd5b506102a6610a01565b005b3480156102b457600080fd5b50610370600480360360a08110156102cb57600080fd5b81019080803560ff169060200190929190803573ffffffffffffffffffffffffffffffffffffffff1690602001909291908035906020019064010000000081111561031557600080fd5b82018360208201111561032757600080fd5b8035906020019184600183028401116401000000008311171561034957600080fd5b909192939192939080359060200190929190803560ff169060200190929190505050610a03565b005b34801561037e57600080fd5b50610387610f21565b604051808215151515815260200191505060405180910390f35b3480156103ad57600080fd5b506103f0600480360360208110156103c457600080fd5b81019080803573ffffffffffffffffffffffffffffffffffffffff169060200190929190505050610f37565b005b3480156103fe57600080fd5b506104a06004803603606081101561041557600080fd5b81019080803573ffffffffffffffffffffffffffffffffffffffff1690602001909291908035906020019064010000000081111561045257600080fd5b82018360208201111561046457600080fd5b8035906020019184600183028401116401000000008311171561048657600080fd5b909192939192939080359060200190929190505050610fa0565b005b6104aa6109aa565b6104ff576040517f08c379a00000000000000000000000000000000000000000000000000000000081526004018080602001828103825260298152602001806116756029913960400191505060405180910390fd5b806000806101000a81548160ff02191690831515021790555050565b670de0b6b3a7640000341015610599576040517f08c379a000000000000000000000000000000000000000000000000000000000815260040180806020018281038252601c8152602001807f526567697374726174696f6e206665652069732072657175697265640000000081525060200191505060405180910390fd5b6105a1611559565b6105aa33611191565b9050604051806040016040528060011515815260200182815250600460003373ffffffffffffffffffffffffffffffffffffffff1673ffffffffffffffffffffffffffffffffffffffff16815260200190815260200160002060008201518160000160006101000a81548160ff02191690831515021790555060208201518160010190600361063a92919061157b565b5090505050565b600060019054906101000a900473ffffffffffffffffffffffffffffffffffffffff1673ffffffffffffffffffffffffffffffffffffffff163373ffffffffffffffffffffffffffffffffffffffff1614156106d257600060019054906101000a900473ffffffffffffffffffffffffffffffffffffffff1673ffffffffffffffffffffffffffffffffffffffff16ff5b565b6106dc611559565b600460003373ffffffffffffffffffffffffffffffffffffffff1673ffffffffffffffffffffffffffffffffffffffff16815260200190815260200160002060000160009054906101000a900460ff1661079e576040517f08c379a000000000000000000000000000000000000000000000000000000000815260040180806020018281038252601b8152602001807f4e6f74207265676973746572656420617320616e206f7261636c65000000000081525060200191505060405180910390fd5b600460003373ffffffffffffffffffffffffffffffffffffffff1673ffffffffffffffffffffffffffffffffffffffff16815260200190815260200160002060010160038060200260405190810160405280929190826003801561083d576020028201916000905b82829054906101000a900460ff1660ff16815260200190600101906020826000010492830192600103820291508084116108065790505b5050505050905090565b600080816000809050915091509091565b670de0b6b3a764000081565b61086c6109aa565b6108c1576040517f08c379a00000000000000000000000000000000000000000000000000000000081526004018080602001828103825260298152602001806116756029913960400191505060405180910390fd5b600073ffffffffffffffffffffffffffffffffffffffff16600060019054906101000a900473ffffffffffffffffffffffffffffffffffffffff1673ffffffffffffffffffffffffffffffffffffffff167f5c486528ec3e3f0ea91181cff8116f02bfa350e03b8b6f12e00765adbb5af85c60405160405180910390a360008060016101000a81548173ffffffffffffffffffffffffffffffffffffffff021916908373ffffffffffffffffffffffffffffffffffffffff160217905550565b60008060019054906101000a900473ffffffffffffffffffffffffffffffffffffffff16905090565b60008060019054906101000a900473ffffffffffffffffffffffffffffffffffffffff1673ffffffffffffffffffffffffffffffffffffffff163373ffffffffffffffffffffffffffffffffffffffff1614905090565b565b8560ff16600460003373ffffffffffffffffffffffffffffffffffffffff1673ffffffffffffffffffffffffffffffffffffffff168152602001908152602001600020600101600060038110610a5557fe5b602091828204019190069054906101000a900460ff1660ff161480610ae257508560ff16600460003373ffffffffffffffffffffffffffffffffffffffff1673ffffffffffffffffffffffffffffffffffffffff168152602001908152602001600020600101600160038110610ac757fe5b602091828204019190069054906101000a900460ff1660ff16145b80610b5557508560ff16600460003373ffffffffffffffffffffffffffffffffffffffff1673ffffffffffffffffffffffffffffffffffffffff168152602001908152602001600020600101600260038110610b3a57fe5b602091828204019190069054906101000a900460ff1660ff16145b610baa576040517f08c379a00000000000000000000000000000000000000000000000000000000081526004018080602001828103825260238152602001806116bf6023913960400191505060405180910390fd5b60008686868686604051602001808660ff1660ff1660f81b81526001018573ffffffffffffffffffffffffffffffffffffffff1673ffffffffffffffffffffffffffffffffffffffff1660601b815260140184848082843780830192505050828152602001955050505050506040516020818303038152906040528051906020012090506005600082815260200190815260200160002060000160149054906101000a900460ff16610ca7576040517f08c379a000000000000000000000000000000000000000000000000000000000815260040180806020018281038252602f815260200180611646602f913960400191505060405180910390fd5b6005600082815260200190815260200160002060010160008360ff1660ff168152602001908152602001600020339080600181540180825580915050600190039060005260206000200160009091909190916101000a81548173ffffffffffffffffffffffffffffffffffffffff021916908373ffffffffffffffffffffffffffffffffffffffff1602179055507f43c853095c2752648493c88b4baac4d580d2594ffb00c6f1d4242d844514f7838686868686604051808673ffffffffffffffffffffffffffffffffffffffff1673ffffffffffffffffffffffffffffffffffffffff168152602001806020018481526020018360ff1660ff1681526020018281038252868682818152602001925080828437600081840152601f19601f820116905080830192505050965050505050505060405180910390a160036005600083815260200190815260200160002060010160008460ff1660ff1681526020019081526020016000208054905010610f18577fe23f5229de535c091e3b7bec2665f5d698192d3b31393066e8987b7a05076b6c8686868686604051808673ffffffffffffffffffffffffffffffffffffffff1673ffffffffffffffffffffffffffffffffffffffff168152602001806020018481526020018360ff1660ff1681526020018281038252868682818152602001925080828437600081840152601f19601f820116905080830192505050965050505050505060405180910390a1610f178686868080601f016020809104026020016040519081016040528093929190818152602001838380828437600081840152601f19601f82011690508083019250505050505050858561131d565b5b50505050505050565b60008060009054906101000a900460ff16905090565b610f3f6109aa565b610f94576040517f08c379a00000000000000000000000000000000000000000000000000000000081526004018080602001828103825260298152602001806116756029913960400191505060405180910390fd5b610f9d81611323565b50565b6000610fab33611469565b905060008186868686604051602001808660ff1660ff1660f81b81526001018573ffffffffffffffffffffffffffffffffffffffff1673ffffffffffffffffffffffffffffffffffffffff1660601b8152601401848480828437808301925050508281526020019550505050505060405160208183030381529060405280519060200120905060405180604001604052803373ffffffffffffffffffffffffffffffffffffffff168152602001600115158152506005600083815260200190815260200160002060008201518160000160006101000a81548173ffffffffffffffffffffffffffffffffffffffff021916908373ffffffffffffffffffffffffffffffffffffffff16021790555060208201518160000160146101000a81548160ff0219169083151502179055509050507f3ed01f2c3fc24c6b329d931e35b03e390d23497d22b3f90e15b600343e93df118287878787604051808660ff1660ff1681526020018573ffffffffffffffffffffffffffffffffffffffff1673ffffffffffffffffffffffffffffffffffffffff168152602001806020018381526020018281038252858582818152602001925080828437600081840152601f19601f820116905080830192505050965050505050505060405180910390a1505050505050565b611199611559565b6111a1611559565b6111aa83611469565b816000600381106111b757fe5b602002019060ff16908160ff1681525050806000600381106111d557fe5b6020020151816001600381106111e757fe5b602002019060ff16908160ff16815250505b8060006003811061120657fe5b602002015160ff168160016003811061121b57fe5b602002015160ff1614156112555761123283611469565b8160016003811061123f57fe5b602002019060ff16908160ff16815250506111f9565b8060016003811061126257fe5b60200201518160026003811061127457fe5b602002019060ff16908160ff16815250505b8060006003811061129357fe5b602002015160ff16816002600381106112a857fe5b602002015160ff1614806112e35750806001600381106112c457fe5b602002015160ff16816002600381106112d957fe5b602002015160ff16145b15611314576112f183611469565b816002600381106112fe57fe5b602002019060ff16908160ff1681525050611286565b80915050919050565b50505050565b600073ffffffffffffffffffffffffffffffffffffffff168173ffffffffffffffffffffffffffffffffffffffff1614156113a9576040517f08c379a000000000000000000000000000000000000000000000000000000000815260040180806020018281038252602181526020018061169e6021913960400191505060405180910390fd5b8073ffffffffffffffffffffffffffffffffffffffff16600060019054906101000a900473ffffffffffffffffffffffffffffffffffffffff1673ffffffffffffffffffffffffffffffffffffffff167f5c486528ec3e3f0ea91181cff8116f02bfa350e03b8b6f12e00765adbb5af85c60405160405180910390a380600060016101000a81548173ffffffffffffffffffffffffffffffffffffffff021916908373ffffffffffffffffffffffffffffffffffffffff16021790555050565b600080600a905060008160ff166003600081819054906101000a900460ff168092919060010191906101000a81548160ff021916908360ff16021790555060ff1643034085604051602001808381526020018273ffffffffffffffffffffffffffffffffffffffff1673ffffffffffffffffffffffffffffffffffffffff1660601b8152601401925050506040516020818303038152906040528051906020012060001c8161151457fe5b06905060fa600360009054906101000a900460ff1660ff16111561154f576000600360006101000a81548160ff021916908360ff1602179055505b8092505050919050565b6040518060600160405280600390602082028036833780820191505090505090565b826003601f016020900481019282156116045791602002820160005b838211156115d557835183826101000a81548160ff021916908360ff1602179055509260200192600101602081600001049283019260010302611597565b80156116025782816101000a81549060ff02191690556001016020816000010492830192600103026115d5565b505b5090506116119190611615565b5090565b61164291905b8082111561163e57600081816101000a81549060ff02191690555060010161161b565b5090565b9056fe466c69676874206f722074696d657374616d7020646f206e6f74206d61746368206f7261636c6520726571756573744f6e6c7920746865206f776e65722063616e20706572666f726d2074686973206f7065726174696f6e546865206e6577204f776e65722063616e6e6f7420626520616464726573732030496e64657820646f6573206e6f74206d61746368206f7261636c652072657175657374a264697066735822122092ff88fddb88eeaaa9994a2f29e2b9e8048e2e0c0eae6ecac8c7af09282cd82d64736f6c63430006040033",
  "source": "pragma solidity ^0.6.4;\r\n\r\nimport \"./SafeMath.sol\";\r\nimport \"./OperationalOwnable.sol\";\r\n\r\n\r\n/************************************************** */\r\n/* FlightSurety Smart Contract                      */\r\n/************************************************** */\r\ncontract FlightSuretyApp is OperationalOwnable {\r\n    // It's important to avoid vulnerabilities due to numeric overflow bugs\r\n    // OpenZeppelin's SafeMath library, when used correctly, protects agains such bugs\r\n    // More info: https://www.nccgroup.trust/us/about-us/newsroom-and-events/blog/2018/november/smart-contract-insecurity-bad-arithmetic/\r\n\r\n    // Allow SafeMath functions to be called for all uint256 types (similar to \"prototype\" in Javascript)\r\n    using SafeMath for uint256;\r\n\r\n    /********************************************************************************************/\r\n    /*                                       DATA VARIABLES                                     */\r\n    /********************************************************************************************/\r\n\r\n    // Flight status codes\r\n    uint8 private constant STATUS_CODE_UNKNOWN = 0;\r\n    uint8 private constant STATUS_CODE_ON_TIME = 10;\r\n    uint8 private constant STATUS_CODE_LATE_AIRLINE = 20;\r\n    uint8 private constant STATUS_CODE_LATE_WEATHER = 30;\r\n    uint8 private constant STATUS_CODE_LATE_TECHNICAL = 40;\r\n    uint8 private constant STATUS_CODE_LATE_OTHER = 50;\r\n\r\n    address private contractOwner; // Account used to deploy contract\r\n\r\n    struct Flight {\r\n        bool isRegistered;\r\n        uint8 statusCode;\r\n        uint256 updatedTimestamp;\r\n        address airline;\r\n    }\r\n\r\n    mapping(bytes32 => Flight) private flights;\r\n\r\n    // region ORACLE MANAGEMENT\r\n\r\n    // Incremented to add pseudo-randomness at various points\r\n    uint8 private nonce = 0;\r\n\r\n    // Fee to be paid when registering oracle\r\n    uint256 public constant REGISTRATION_FEE = 1 ether;\r\n\r\n    // Number of oracles that must respond for valid status\r\n    uint256 private constant MIN_RESPONSES = 3;\r\n\r\n    // Track all registered oracles\r\n    mapping(address => Oracle) private oracles;\r\n\r\n    // Track all oracle responses\r\n    // Key = hash(index, flight, timestamp)\r\n    mapping(bytes32 => ResponseInfo) private oracleResponses;\r\n\r\n    struct Oracle {\r\n        bool isRegistered;\r\n        uint8[3] indexes;\r\n    }\r\n\r\n    // Model for responses from oracles\r\n    struct ResponseInfo {\r\n        address requester; // Account that requested status\r\n        bool isOpen; // If open, oracle responses are accepted\r\n        mapping(uint8 => address[]) responses; // Mapping key is the status code reported\r\n        // This lets us group responses and identify\r\n        // the response that majority of the oracles\r\n    }\r\n\r\n    // Event fired each time an oracle submits a response\r\n    event FlightStatusInfo(\r\n        address airline,\r\n        string flight,\r\n        uint256 timestamp,\r\n        uint8 status\r\n    );\r\n\r\n    event OracleReport(\r\n        address airline,\r\n        string flight,\r\n        uint256 timestamp,\r\n        uint8 status\r\n    );\r\n\r\n    // Event fired when flight status request is submitted\r\n    // Oracles track this and if they have a matching index\r\n    // they fetch data and submit a response\r\n    event OracleRequest(\r\n        uint8 index,\r\n        address airline,\r\n        string flight,\r\n        uint256 timestamp\r\n    );\r\n\r\n    /********************************************************************************************/\r\n    /*                                       CONSTRUCTOR                                        */\r\n    /********************************************************************************************/\r\n\r\n    /**\r\n     * @dev Contract constructor\r\n     *\r\n     */\r\n    constructor() public {}\r\n\r\n    /********************************************************************************************/\r\n    /*                                       FUNCTION MODIFIERS                                 */\r\n    /********************************************************************************************/\r\n\r\n    // Modifiers help avoid duplication of code. They are typically used to validate something\r\n    // before a function is allowed to be executed.\r\n\r\n    /**\r\n     * @dev Modifier that requires the \"operational\" boolean variable to be \"true\"\r\n     *      This is used on all state changing functions to pause the contract in\r\n     *      the event there is an issue that needs to be fixed\r\n     */\r\n    modifier requireIsOperational() {\r\n        // Modify to call data contract's status\r\n        require(true, \"Contract is currently not operational\");\r\n        _; // All modifiers require an \"_\" which indicates where the function body will be added\r\n    }\r\n\r\n    /**\r\n     * @dev Modifier that requires the \"ContractOwner\" account to be the function caller\r\n     */\r\n    modifier requireContractOwner() {\r\n        require(msg.sender == contractOwner, \"Caller is not contract owner\");\r\n        _;\r\n    }\r\n\r\n    /********************************************************************************************/\r\n    /*                                     SMART CONTRACT FUNCTIONS                             */\r\n    /********************************************************************************************/\r\n\r\n    /**\r\n     * @dev Add an airline to the registration queue\r\n     */\r\n    function registerAirline()\r\n        external\r\n        pure\r\n        returns (bool success, uint256 votes)\r\n    {\r\n        return (success, 0);\r\n    }\r\n\r\n    /**\r\n     * @dev Register a future flight for insuring.\r\n     *\r\n     */\r\n    function registerFlight() external pure {}\r\n\r\n    // Generate a request for oracles to fetch flight information\r\n    function fetchFlightStatus(\r\n        address airline,\r\n        string calldata flight,\r\n        uint256 timestamp\r\n    ) external {\r\n        uint8 index = getRandomIndex(msg.sender);\r\n\r\n        // Generate a unique key for storing the request\r\n        bytes32 key = keccak256(\r\n            abi.encodePacked(index, airline, flight, timestamp)\r\n        );\r\n        oracleResponses[key] = ResponseInfo({\r\n            requester: msg.sender,\r\n            isOpen: true\r\n        });\r\n\r\n        emit OracleRequest(index, airline, flight, timestamp);\r\n    }\r\n\r\n    // Register an oracle with the contract\r\n    function registerOracle() external payable {\r\n        // Require registration fee\r\n        require(msg.value >= REGISTRATION_FEE, \"Registration fee is required\");\r\n\r\n        uint8[3] memory indexes = generateIndexes(msg.sender);\r\n\r\n        oracles[msg.sender] = Oracle({isRegistered: true, indexes: indexes});\r\n    }\r\n\r\n    function getMyIndexes() external view returns (uint8[3] memory) {\r\n        require(\r\n            oracles[msg.sender].isRegistered,\r\n            \"Not registered as an oracle\"\r\n        );\r\n\r\n        return oracles[msg.sender].indexes;\r\n    }\r\n\r\n    // Called by oracle when a response is available to an outstanding request\r\n    // For the response to be accepted, there must be a pending request that is open\r\n    // and matches one of the three Indexes randomly assigned to the oracle at the\r\n    // time of registration (i.e. uninvited oracles are not welcome)\r\n    function submitOracleResponse(\r\n        uint8 index,\r\n        address airline,\r\n        string calldata flight,\r\n        uint256 timestamp,\r\n        uint8 statusCode\r\n    ) external {\r\n        require(\r\n            (oracles[msg.sender].indexes[0] == index) ||\r\n                (oracles[msg.sender].indexes[1] == index) ||\r\n                (oracles[msg.sender].indexes[2] == index),\r\n            \"Index does not match oracle request\"\r\n        );\r\n\r\n        bytes32 key = keccak256(\r\n            abi.encodePacked(index, airline, flight, timestamp)\r\n        );\r\n        require(\r\n            oracleResponses[key].isOpen,\r\n            \"Flight or timestamp do not match oracle request\"\r\n        );\r\n\r\n        oracleResponses[key].responses[statusCode].push(msg.sender);\r\n\r\n        // Information isn't considered verified until at least MIN_RESPONSES\r\n        // oracles respond with the *** same *** information\r\n        emit OracleReport(airline, flight, timestamp, statusCode);\r\n        if (\r\n            oracleResponses[key].responses[statusCode].length >= MIN_RESPONSES\r\n        ) {\r\n            emit FlightStatusInfo(airline, flight, timestamp, statusCode);\r\n\r\n            // Handle flight status as appropriate\r\n            processFlightStatus(airline, flight, timestamp, statusCode);\r\n        }\r\n    }\r\n\r\n    /********************************************************************************************/\r\n    /*                                       UTILITY FUNCTIONS                                  */\r\n    /********************************************************************************************/\r\n\r\n    /**\r\n     * @dev Called after oracle has updated flight status\r\n     *\r\n     */\r\n    function processFlightStatus(\r\n        address airline,\r\n        string memory flight,\r\n        uint256 timestamp,\r\n        uint8 statusCode\r\n    ) internal pure {}\r\n\r\n    function getFlightKey(\r\n        address airline,\r\n        string memory flight,\r\n        uint256 timestamp\r\n    ) internal pure returns (bytes32) {\r\n        return keccak256(abi.encodePacked(airline, flight, timestamp));\r\n    }\r\n\r\n    // Returns array of three non-duplicating integers from 0-9\r\n    function generateIndexes(address account)\r\n        internal\r\n        returns (uint8[3] memory)\r\n    {\r\n        uint8[3] memory indexes;\r\n        indexes[0] = getRandomIndex(account);\r\n\r\n        indexes[1] = indexes[0];\r\n        while (indexes[1] == indexes[0]) {\r\n            indexes[1] = getRandomIndex(account);\r\n        }\r\n\r\n        indexes[2] = indexes[1];\r\n        while ((indexes[2] == indexes[0]) || (indexes[2] == indexes[1])) {\r\n            indexes[2] = getRandomIndex(account);\r\n        }\r\n\r\n        return indexes;\r\n    }\r\n\r\n    // Returns array of three non-duplicating integers from 0-9\r\n    function getRandomIndex(address account) internal returns (uint8) {\r\n        uint8 maxValue = 10;\r\n\r\n        // Pseudo random number...the incrementing nonce adds variation\r\n        uint8 random = uint8(\r\n            uint256(\r\n                keccak256(\r\n                    abi.encodePacked(blockhash(block.number - nonce++), account)\r\n                )\r\n            ) % maxValue\r\n        );\r\n\r\n        if (nonce > 250) {\r\n            nonce = 0; // Can only fetch blockhashes for last 256 blocks so we adapt\r\n        }\r\n\r\n        return random;\r\n    }\r\n\r\n    // endregion\r\n}\r\n",
  "sourcePath": "/media/indigo/backup/AXEL/Personal/Tutorials/blocksurety/blockchain-flight-surety/contracts/FlightSuretyApp.sol",
  "compiler": {
    "name": "solc",
    "version": "0.6.4+commit.1dca32f3.Emscripten.clang"
  },
  "schemaVersion": "3.0.23",
  "updatedAt": "2020-04-19T02:41:13.915Z",
  "networkType": "ethereum",
  "devdoc": {
    "methods": {
      "constructor": {
        "details": "Contract constructor      "
      },
      "isOperational()": {
        "details": "Get operating status of contract",
        "returns": {
          "_0": "A bool that is the current operating status"
        }
      },
      "registerAirline()": {
        "details": "Add an airline to the registration queue"
      },
      "registerFlight()": {
        "details": "Register a future flight for insuring.      "
      },
      "setOperatingStatus(bool)": {
        "details": "Sets contract operations on/off     * When operational mode is disabled, all write transactions except for this one will fail"
      }
    }
  },
  "userdoc": {
    "methods": {},
    "notice": "************************************************ "
  }
}