{
  "contractName": "FlightSuretyApp",
  "abi": [
    {
      "inputs": [
        {
          "internalType": "address payable",
          "name": "dataContractAddress",
          "type": "address"
        }
      ],
      "stateMutability": "nonpayable",
      "type": "constructor"
    },
    {
      "anonymous": false,
      "inputs": [
        {
          "indexed": false,
          "internalType": "address",
          "name": "airline",
          "type": "address"
        },
        {
          "indexed": false,
          "internalType": "string",
          "name": "flight",
          "type": "string"
        },
        {
          "indexed": false,
          "internalType": "uint256",
          "name": "timestamp",
          "type": "uint256"
        },
        {
          "indexed": false,
          "internalType": "uint8",
          "name": "status",
          "type": "uint8"
        }
      ],
      "name": "FlightStatusInfo",
      "type": "event"
    },
    {
      "anonymous": false,
      "inputs": [
        {
          "indexed": false,
          "internalType": "address",
          "name": "airline",
          "type": "address"
        },
        {
          "indexed": false,
          "internalType": "string",
          "name": "flight",
          "type": "string"
        },
        {
          "indexed": false,
          "internalType": "uint256",
          "name": "timestamp",
          "type": "uint256"
        },
        {
          "indexed": false,
          "internalType": "uint8",
          "name": "status",
          "type": "uint8"
        }
      ],
      "name": "OracleReport",
      "type": "event"
    },
    {
      "anonymous": false,
      "inputs": [
        {
          "indexed": false,
          "internalType": "uint8",
          "name": "index",
          "type": "uint8"
        },
        {
          "indexed": false,
          "internalType": "address",
          "name": "airline",
          "type": "address"
        },
        {
          "indexed": false,
          "internalType": "string",
          "name": "flight",
          "type": "string"
        },
        {
          "indexed": false,
          "internalType": "uint256",
          "name": "timestamp",
          "type": "uint256"
        }
      ],
      "name": "OracleRequest",
      "type": "event"
    },
    {
      "anonymous": false,
      "inputs": [
        {
          "indexed": false,
          "internalType": "string",
          "name": "value",
          "type": "string"
        }
      ],
      "name": "TestingValue",
      "type": "event"
    },
    {
      "anonymous": false,
      "inputs": [
        {
          "indexed": true,
          "internalType": "address",
          "name": "oldOwner",
          "type": "address"
        },
        {
          "indexed": true,
          "internalType": "address",
          "name": "newOwner",
          "type": "address"
        }
      ],
      "name": "TransferOwnership",
      "type": "event"
    },
    {
      "anonymous": false,
      "inputs": [
        {
          "indexed": false,
          "internalType": "bool",
          "name": "mode",
          "type": "bool"
        }
      ],
      "name": "UpdateOperationalStatus",
      "type": "event"
    },
    {
      "inputs": [],
      "name": "REGISTRATION_FEE",
      "outputs": [
        {
          "internalType": "uint256",
          "name": "",
          "type": "uint256"
        }
      ],
      "stateMutability": "view",
      "type": "function",
      "constant": true
    },
    {
      "inputs": [],
      "name": "isOperational",
      "outputs": [
        {
          "internalType": "bool",
          "name": "",
          "type": "bool"
        }
      ],
      "stateMutability": "view",
      "type": "function",
      "constant": true
    },
    {
      "inputs": [],
      "name": "isOwner",
      "outputs": [
        {
          "internalType": "bool",
          "name": "",
          "type": "bool"
        }
      ],
      "stateMutability": "view",
      "type": "function",
      "constant": true
    },
    {
      "inputs": [],
      "name": "kill",
      "outputs": [],
      "stateMutability": "nonpayable",
      "type": "function"
    },
    {
      "inputs": [],
      "name": "owner",
      "outputs": [
        {
          "internalType": "address",
          "name": "",
          "type": "address"
        }
      ],
      "stateMutability": "view",
      "type": "function",
      "constant": true
    },
    {
      "inputs": [],
      "name": "renounceOwnership",
      "outputs": [],
      "stateMutability": "nonpayable",
      "type": "function"
    },
    {
      "inputs": [
        {
          "internalType": "bool",
          "name": "mode",
          "type": "bool"
        }
      ],
      "name": "setOperationalStatus",
      "outputs": [],
      "stateMutability": "nonpayable",
      "type": "function"
    },
    {
      "inputs": [
        {
          "internalType": "address payable",
          "name": "newOwner",
          "type": "address"
        }
      ],
      "name": "transferOwnership",
      "outputs": [],
      "stateMutability": "nonpayable",
      "type": "function"
    },
    {
      "inputs": [
        {
          "internalType": "string",
          "name": "name",
          "type": "string"
        }
      ],
      "name": "registerAirline",
      "outputs": [
        {
          "internalType": "bool",
          "name": "success",
          "type": "bool"
        },
        {
          "internalType": "uint256",
          "name": "votes",
          "type": "uint256"
        }
      ],
      "stateMutability": "nonpayable",
      "type": "function"
    },
    {
      "inputs": [
        {
          "internalType": "string",
          "name": "name",
          "type": "string"
        },
        {
          "internalType": "uint256",
          "name": "timestamp",
          "type": "uint256"
        }
      ],
      "name": "registerFlight",
      "outputs": [
        {
          "internalType": "bool",
          "name": "success",
          "type": "bool"
        }
      ],
      "stateMutability": "nonpayable",
      "type": "function"
    },
    {
      "inputs": [
        {
          "internalType": "address",
          "name": "airline",
          "type": "address"
        },
        {
          "internalType": "string",
          "name": "flight",
          "type": "string"
        },
        {
          "internalType": "uint256",
          "name": "timestamp",
          "type": "uint256"
        }
      ],
      "name": "fetchFlightStatus",
      "outputs": [],
      "stateMutability": "nonpayable",
      "type": "function"
    },
    {
      "inputs": [],
      "name": "registerOracle",
      "outputs": [],
      "stateMutability": "payable",
      "type": "function",
      "payable": true
    },
    {
      "inputs": [],
      "name": "getMyIndexes",
      "outputs": [
        {
          "internalType": "uint8[3]",
          "name": "",
          "type": "uint8[3]"
        }
      ],
      "stateMutability": "view",
      "type": "function",
      "constant": true
    },
    {
      "inputs": [],
      "name": "getDataContractAddress",
      "outputs": [
        {
          "internalType": "address payable",
          "name": "",
          "type": "address"
        }
      ],
      "stateMutability": "view",
      "type": "function",
      "constant": true
    },
    {
      "inputs": [
        {
          "internalType": "uint8",
          "name": "index",
          "type": "uint8"
        },
        {
          "internalType": "address",
          "name": "airline",
          "type": "address"
        },
        {
          "internalType": "string",
          "name": "flight",
          "type": "string"
        },
        {
          "internalType": "uint256",
          "name": "timestamp",
          "type": "uint256"
        },
        {
          "internalType": "uint8",
          "name": "statusCode",
          "type": "uint8"
        }
      ],
      "name": "submitOracleResponse",
      "outputs": [],
      "stateMutability": "nonpayable",
      "type": "function"
    }
  ],
  "bytecode": "0x608060405260016000806101000a81548160ff0219169083151502179055506000600260146101000a81548160ff021916908360ff1602179055503480156200004757600080fd5b50604051620025083803806200250883398181016040528101906200006d91906200018a565b33600060016101000a81548173ffffffffffffffffffffffffffffffffffffffff021916908373ffffffffffffffffffffffffffffffffffffffff160217905550600060019054906101000a900473ffffffffffffffffffffffffffffffffffffffff1673ffffffffffffffffffffffffffffffffffffffff16600073ffffffffffffffffffffffffffffffffffffffff167f5c486528ec3e3f0ea91181cff8116f02bfa350e03b8b6f12e00765adbb5af85c60405160405180910390a380600160006101000a81548173ffffffffffffffffffffffffffffffffffffffff021916908373ffffffffffffffffffffffffffffffffffffffff1602179055505062000204565b6000815190506200018481620001ea565b92915050565b6000602082840312156200019d57600080fd5b6000620001ad8482850162000173565b91505092915050565b6000620001c382620001ca565b9050919050565b600073ffffffffffffffffffffffffffffffffffffffff82169050919050565b620001f581620001b6565b81146200020157600080fd5b50565b6122f480620002146000396000f3fe6080604052600436106100e85760003560e01c806364b4f7511161008a578063c10f270011610059578063c10f2700146102a0578063cd905dff146102c9578063f2fde38b146102f4578063f83f11c01461031d576100e8565b806364b4f75114610208578063715018a6146102335780638da5cb5b1461024a5780638f32d59b14610275576100e8565b806341c0e1b5116100c657806341c0e1b5146101725780635122cb38146101895780635f1cc0e6146101b257806361e91ea1146101dd576100e8565b806325205210146100ed578063339d25901461012b57806339cfc99514610135575b600080fd5b3480156100f957600080fd5b50610114600480360381019061010f919061180c565b610346565b604051610122929190611eae565b60405180910390f35b61013361042f565b005b34801561014157600080fd5b5061015c60048036038101906101579190611851565b61051c565b6040516101699190611e93565b60405180910390f35b34801561017e57600080fd5b50610187610601565b005b34801561019557600080fd5b506101b060048036038101906101ab91906117e3565b610694565b005b3480156101be57600080fd5b506101c761072e565b6040516101d49190611e78565b60405180910390f35b3480156101e957600080fd5b506101f261086e565b6040516101ff9190611d9d565b60405180910390f35b34801561021457600080fd5b5061021d610898565b60405161022a9190611fb7565b60405180910390f35b34801561023f57600080fd5b506102486108a4565b005b34801561025657600080fd5b5061025f6109ab565b60405161026c9190611d82565b60405180910390f35b34801561028157600080fd5b5061028a6109d4565b6040516102979190611e93565b60405180910390f35b3480156102ac57600080fd5b506102c760048036038101906102c291906118a9565b610a2b565b005b3480156102d557600080fd5b506102de610e77565b6040516102eb9190611e93565b60405180910390f35b34801561030057600080fd5b5061031b6004803603810190610316919061174e565b610e8d565b005b34801561032957600080fd5b50610344600480360381019061033f9190611777565b610ee0565b005b6000806000848490501161038f576040517f08c379a000000000000000000000000000000000000000000000000000000000815260040161038690611ef7565b60405180910390fd5b600160009054906101000a900473ffffffffffffffffffffffffffffffffffffffff1673ffffffffffffffffffffffffffffffffffffffff1663ee38a7493386866040518463ffffffff1660e01b81526004016103ee93929190611db8565b600060405180830381600087803b15801561040857600080fd5b505af115801561041c573d6000803e3d6000fd5b5050505060016000915091509250929050565b670de0b6b3a764000034101561047a576040517f08c379a000000000000000000000000000000000000000000000000000000000815260040161047190611f77565b60405180910390fd5b600061048533610feb565b9050604051806040016040528060011515815260200182815250600360003373ffffffffffffffffffffffffffffffffffffffff1673ffffffffffffffffffffffffffffffffffffffff16815260200190815260200160002060008201518160000160006101000a81548160ff0219169083151502179055506020820151816001019060036105159291906115c2565b5090505050565b6000808484905011610563576040517f08c379a000000000000000000000000000000000000000000000000000000000815260040161055a90611ef7565b60405180910390fd5b600160009054906101000a900473ffffffffffffffffffffffffffffffffffffffff1673ffffffffffffffffffffffffffffffffffffffff16633cc0be9c338686866040518563ffffffff1660e01b81526004016105c49493929190611dea565b600060405180830381600087803b1580156105de57600080fd5b505af11580156105f2573d6000803e3d6000fd5b50505050600190509392505050565b600060019054906101000a900473ffffffffffffffffffffffffffffffffffffffff1673ffffffffffffffffffffffffffffffffffffffff163373ffffffffffffffffffffffffffffffffffffffff16141561069257600060019054906101000a900473ffffffffffffffffffffffffffffffffffffffff1673ffffffffffffffffffffffffffffffffffffffff16ff5b565b61069c6109d4565b6106db576040517f08c379a00000000000000000000000000000000000000000000000000000000081526004016106d290611f37565b60405180910390fd5b7fb6d5f5457d1c101e27891c7154e37f1578a63e19a5396705b34a4b3596b0cab58160405161070a9190611e93565b60405180910390a1806000806101000a81548160ff02191690831515021790555050565b61073661165c565b600360003373ffffffffffffffffffffffffffffffffffffffff1673ffffffffffffffffffffffffffffffffffffffff16815260200190815260200160002060000160009054906101000a900460ff166107c5576040517f08c379a00000000000000000000000000000000000000000000000000000000081526004016107bc90611f17565b60405180910390fd5b600360003373ffffffffffffffffffffffffffffffffffffffff1673ffffffffffffffffffffffffffffffffffffffff168152602001908152602001600020600101600380602002604051908101604052809291908260038015610864576020028201916000905b82829054906101000a900460ff1660ff168152602001906001019060208260000104928301926001038202915080841161082d5790505b5050505050905090565b6000600160009054906101000a900473ffffffffffffffffffffffffffffffffffffffff16905090565b670de0b6b3a764000081565b6108ac6109d4565b6108eb576040517f08c379a00000000000000000000000000000000000000000000000000000000081526004016108e290611f37565b60405180910390fd5b600073ffffffffffffffffffffffffffffffffffffffff16600060019054906101000a900473ffffffffffffffffffffffffffffffffffffffff1673ffffffffffffffffffffffffffffffffffffffff167f5c486528ec3e3f0ea91181cff8116f02bfa350e03b8b6f12e00765adbb5af85c60405160405180910390a360008060016101000a81548173ffffffffffffffffffffffffffffffffffffffff021916908373ffffffffffffffffffffffffffffffffffffffff160217905550565b60008060019054906101000a900473ffffffffffffffffffffffffffffffffffffffff16905090565b60008060019054906101000a900473ffffffffffffffffffffffffffffffffffffffff1673ffffffffffffffffffffffffffffffffffffffff163373ffffffffffffffffffffffffffffffffffffffff1614905090565b8560ff16600360003373ffffffffffffffffffffffffffffffffffffffff1673ffffffffffffffffffffffffffffffffffffffff168152602001908152602001600020600101600060038110610aaa577f4e487b7100000000000000000000000000000000000000000000000000000000600052603260045260246000fd5b602091828204019190069054906101000a900460ff1660ff161480610b6457508560ff16600360003373ffffffffffffffffffffffffffffffffffffffff1673ffffffffffffffffffffffffffffffffffffffff168152602001908152602001600020600101600160038110610b49577f4e487b7100000000000000000000000000000000000000000000000000000000600052603260045260246000fd5b602091828204019190069054906101000a900460ff1660ff16145b80610c0457508560ff16600360003373ffffffffffffffffffffffffffffffffffffffff1673ffffffffffffffffffffffffffffffffffffffff168152602001908152602001600020600101600260038110610be9577f4e487b7100000000000000000000000000000000000000000000000000000000600052603260045260246000fd5b602091828204019190069054906101000a900460ff1660ff16145b610c43576040517f08c379a0000000000000000000000000000000000000000000000000000000008152600401610c3a90611f97565b60405180910390fd5b60008686868686604051602001610c5e959493929190611d36565b6040516020818303038152906040528051906020012090506004600082815260200190815260200160002060000160149054906101000a900460ff16610cd9576040517f08c379a0000000000000000000000000000000000000000000000000000000008152600401610cd090611ed7565b60405180910390fd5b6004600082815260200190815260200160002060010160008360ff1660ff168152602001908152602001600020339080600181540180825580915050600190039060005260206000200160009091909190916101000a81548173ffffffffffffffffffffffffffffffffffffffff021916908373ffffffffffffffffffffffffffffffffffffffff1602179055507f43c853095c2752648493c88b4baac4d580d2594ffb00c6f1d4242d844514f7838686868686604051610d9e959493929190611e2a565b60405180910390a160036004600083815260200190815260200160002060010160008460ff1660ff1681526020019081526020016000208054905010610e6e577fe23f5229de535c091e3b7bec2665f5d698192d3b31393066e8987b7a05076b6c8686868686604051610e15959493929190611e2a565b60405180910390a1610e6d8686868080601f016020809104026020016040519081016040528093929190818152602001838380828437600081840152601f19601f8201169050808301925050505050505085856113c0565b5b50505050505050565b60008060009054906101000a900460ff16905090565b610e956109d4565b610ed4576040517f08c379a0000000000000000000000000000000000000000000000000000000008152600401610ecb90611f37565b60405180910390fd5b610edd816113c6565b50565b6000610eeb336114f6565b905060008186868686604051602001610f08959493929190611d36565b604051602081830303815290604052805190602001209050336004600083815260200190815260200160002060000160006101000a81548173ffffffffffffffffffffffffffffffffffffffff021916908373ffffffffffffffffffffffffffffffffffffffff16021790555060016004600083815260200190815260200160002060000160146101000a81548160ff0219169083151502179055507f3ed01f2c3fc24c6b329d931e35b03e390d23497d22b3f90e15b600343e93df118287878787604051610fdb959493929190611fd2565b60405180910390a1505050505050565b610ff361165c565b610ffb61165c565b611004836114f6565b8160006003811061103e577f4e487b7100000000000000000000000000000000000000000000000000000000600052603260045260246000fd5b602002019060ff16908160ff168152505080600060038110611089577f4e487b7100000000000000000000000000000000000000000000000000000000600052603260045260246000fd5b6020020151816001600381106110c8577f4e487b7100000000000000000000000000000000000000000000000000000000600052603260045260246000fd5b602002019060ff16908160ff16815250505b80600060038110611114577f4e487b7100000000000000000000000000000000000000000000000000000000600052603260045260246000fd5b602002015160ff1681600160038110611156577f4e487b7100000000000000000000000000000000000000000000000000000000600052603260045260246000fd5b602002015160ff1614156111bd5761116d836114f6565b816001600381106111a7577f4e487b7100000000000000000000000000000000000000000000000000000000600052603260045260246000fd5b602002019060ff16908160ff16815250506110da565b806001600381106111f7577f4e487b7100000000000000000000000000000000000000000000000000000000600052603260045260246000fd5b602002015181600260038110611236577f4e487b7100000000000000000000000000000000000000000000000000000000600052603260045260246000fd5b602002019060ff16908160ff16815250505b80600060038110611282577f4e487b7100000000000000000000000000000000000000000000000000000000600052603260045260246000fd5b602002015160ff16816002600381106112c4577f4e487b7100000000000000000000000000000000000000000000000000000000600052603260045260246000fd5b602002015160ff16148061135957508060016003811061130d577f4e487b7100000000000000000000000000000000000000000000000000000000600052603260045260246000fd5b602002015160ff168160026003811061134f577f4e487b7100000000000000000000000000000000000000000000000000000000600052603260045260246000fd5b602002015160ff16145b156113b757611367836114f6565b816002600381106113a1577f4e487b7100000000000000000000000000000000000000000000000000000000600052603260045260246000fd5b602002019060ff16908160ff1681525050611248565b80915050919050565b50505050565b600073ffffffffffffffffffffffffffffffffffffffff168173ffffffffffffffffffffffffffffffffffffffff161415611436576040517f08c379a000000000000000000000000000000000000000000000000000000000815260040161142d90611f57565b60405180910390fd5b80600060016101000a81548173ffffffffffffffffffffffffffffffffffffffff021916908373ffffffffffffffffffffffffffffffffffffffff1602179055508073ffffffffffffffffffffffffffffffffffffffff16600060019054906101000a900473ffffffffffffffffffffffffffffffffffffffff1673ffffffffffffffffffffffffffffffffffffffff167f5c486528ec3e3f0ea91181cff8116f02bfa350e03b8b6f12e00765adbb5af85c60405160405180910390a350565b600080600a905060008160ff166002601481819054906101000a900460ff16809291906115229061211d565b91906101000a81548160ff021916908360ff16021790555060ff16436115489190612069565b408560405160200161155b929190611d0a565b6040516020818303038152906040528051906020012060001c61157e9190612191565b905060fa600260149054906101000a900460ff1660ff1611156115b8576000600260146101000a81548160ff021916908360ff1602179055505b8092505050919050565b826003601f0160209004810192821561164b5791602002820160005b8382111561161c57835183826101000a81548160ff021916908360ff16021790555092602001926001016020816000010492830192600103026115de565b80156116495782816101000a81549060ff021916905560010160208160000104928301926001030261161c565b505b509050611658919061167e565b5090565b6040518060600160405280600390602082028036833780820191505090505090565b5b8082111561169757600081600090555060010161167f565b5090565b6000813590506116aa8161224b565b92915050565b6000813590506116bf81612262565b92915050565b6000813590506116d481612279565b92915050565b60008083601f8401126116ec57600080fd5b8235905067ffffffffffffffff81111561170557600080fd5b60208301915083600182028301111561171d57600080fd5b9250929050565b60008135905061173381612290565b92915050565b600081359050611748816122a7565b92915050565b60006020828403121561176057600080fd5b600061176e848285016116b0565b91505092915050565b6000806000806060858703121561178d57600080fd5b600061179b8782880161169b565b945050602085013567ffffffffffffffff8111156117b857600080fd5b6117c4878288016116da565b935093505060406117d787828801611724565b91505092959194509250565b6000602082840312156117f557600080fd5b6000611803848285016116c5565b91505092915050565b6000806020838503121561181f57600080fd5b600083013567ffffffffffffffff81111561183957600080fd5b611845858286016116da565b92509250509250929050565b60008060006040848603121561186657600080fd5b600084013567ffffffffffffffff81111561188057600080fd5b61188c868287016116da565b9350935050602061189f86828701611724565b9150509250925092565b60008060008060008060a087890312156118c257600080fd5b60006118d089828a01611739565b96505060206118e189828a0161169b565b955050604087013567ffffffffffffffff8111156118fe57600080fd5b61190a89828a016116da565b9450945050606061191d89828a01611724565b925050608061192e89828a01611739565b9150509295509295509295565b60006119478383611cd5565b60208301905092915050565b61195c816120af565b82525050565b61196b8161209d565b82525050565b61198261197d8261209d565b612147565b82525050565b6119918161202a565b61199b8184612042565b92506119a682612020565b8060005b838110156119d75781516119be878261193b565b96506119c983612035565b9250506001810190506119aa565b505050505050565b6119e8816120c1565b82525050565b6119ff6119fa826120cd565b612159565b82525050565b6000611a11838561204d565b9350611a1e83858461210e565b611a2783612220565b840190509392505050565b6000611a3e838561205e565b9350611a4b83858461210e565b82840190509392505050565b6000611a64602f8361204d565b91507f466c69676874206f722074696d657374616d7020646f206e6f74206d6174636860008301527f206f7261636c65207265717565737400000000000000000000000000000000006020830152604082019050919050565b6000611aca60148361204d565b91507f4e616d652063616e6e6f7420626520656d7074790000000000000000000000006000830152602082019050919050565b6000611b0a601b8361204d565b91507f4e6f74207265676973746572656420617320616e206f7261636c6500000000006000830152602082019050919050565b6000611b4a60298361204d565b91507f4f6e6c7920746865206f776e65722063616e20706572666f726d20746869732060008301527f6f7065726174696f6e00000000000000000000000000000000000000000000006020830152604082019050919050565b6000611bb060218361204d565b91507f546865206e6577204f776e65722063616e6e6f7420626520616464726573732060008301527f30000000000000000000000000000000000000000000000000000000000000006020830152604082019050919050565b6000611c16601c8361204d565b91507f526567697374726174696f6e20666565206973207265717569726564000000006000830152602082019050919050565b6000611c5660238361204d565b91507f496e64657820646f6573206e6f74206d61746368206f7261636c65207265717560008301527f65737400000000000000000000000000000000000000000000000000000000006020830152604082019050919050565b611cb8816120f7565b82525050565b611ccf611cca826120f7565b612175565b82525050565b611cde81612101565b82525050565b611ced81612101565b82525050565b611d04611cff82612101565b61217f565b82525050565b6000611d1682856119ee565b602082019150611d268284611971565b6014820191508190509392505050565b6000611d428288611cf3565b600182019150611d528287611971565b601482019150611d63828587611a32565b9150611d6f8284611cbe565b6020820191508190509695505050505050565b6000602082019050611d976000830184611962565b92915050565b6000602082019050611db26000830184611953565b92915050565b6000604082019050611dcd6000830186611953565b8181036020830152611de0818486611a05565b9050949350505050565b6000606082019050611dff6000830187611953565b8181036020830152611e12818587611a05565b9050611e216040830184611caf565b95945050505050565b6000608082019050611e3f6000830188611962565b8181036020830152611e52818688611a05565b9050611e616040830185611caf565b611e6e6060830184611ce4565b9695505050505050565b6000606082019050611e8d6000830184611988565b92915050565b6000602082019050611ea860008301846119df565b92915050565b6000604082019050611ec360008301856119df565b611ed06020830184611caf565b9392505050565b60006020820190508181036000830152611ef081611a57565b9050919050565b60006020820190508181036000830152611f1081611abd565b9050919050565b60006020820190508181036000830152611f3081611afd565b9050919050565b60006020820190508181036000830152611f5081611b3d565b9050919050565b60006020820190508181036000830152611f7081611ba3565b9050919050565b60006020820190508181036000830152611f9081611c09565b9050919050565b60006020820190508181036000830152611fb081611c49565b9050919050565b6000602082019050611fcc6000830184611caf565b92915050565b6000608082019050611fe76000830188611ce4565b611ff46020830187611962565b8181036040830152612007818587611a05565b90506120166060830184611caf565b9695505050505050565b6000819050919050565b600060039050919050565b6000602082019050919050565b600081905092915050565b600082825260208201905092915050565b600081905092915050565b6000612074826120f7565b915061207f836120f7565b925082821015612092576120916121c2565b5b828203905092915050565b60006120a8826120d7565b9050919050565b60006120ba826120d7565b9050919050565b60008115159050919050565b6000819050919050565b600073ffffffffffffffffffffffffffffffffffffffff82169050919050565b6000819050919050565b600060ff82169050919050565b82818337600083830152505050565b600061212882612101565b915060ff82141561213c5761213b6121c2565b5b600182019050919050565b600061215282612163565b9050919050565b6000819050919050565b600061216e8261223e565b9050919050565b6000819050919050565b600061218a82612231565b9050919050565b600061219c826120f7565b91506121a7836120f7565b9250826121b7576121b66121f1565b5b828206905092915050565b7f4e487b7100000000000000000000000000000000000000000000000000000000600052601160045260246000fd5b7f4e487b7100000000000000000000000000000000000000000000000000000000600052601260045260246000fd5b6000601f19601f8301169050919050565b60008160f81b9050919050565b60008160601b9050919050565b6122548161209d565b811461225f57600080fd5b50565b61226b816120af565b811461227657600080fd5b50565b612282816120c1565b811461228d57600080fd5b50565b612299816120f7565b81146122a457600080fd5b50565b6122b081612101565b81146122bb57600080fd5b5056fea26469706673582212202a4ab949035ac5dfc8ee1ebb10f6341e744361251fe4560de39f961db41015d964736f6c63430008000033",
  "immutableReferences": {},
  "source": "// SPDX-License-Identifier: GPL-3.0\r\npragma solidity 0.8.0;\r\n\r\nimport \"./SafeMath.sol\";\r\nimport \"./OperationalOwnable.sol\";\r\nimport \"./FlightSuretyData.sol\";\r\n\r\n/************************************************** */\r\n/* FlightSurety Smart Contract                      */\r\n/************************************************** */\r\ncontract FlightSuretyApp is OperationalOwnable {\r\n    // It's important to avoid vulnerabilities due to numeric overflow bugs\r\n    // OpenZeppelin's SafeMath library, when used correctly, protects agains such bugs\r\n    // More info: https://www.nccgroup.trust/us/about-us/newsroom-and-events/blog/2018/november/smart-contract-insecurity-bad-arithmetic/\r\n\r\n    // Allow SafeMath functions to be called for all uint256 types (similar to \"prototype\" in Javascript)\r\n    using SafeMath for uint256;\r\n\r\n    /********************************************************************************************/\r\n    /*                                       DATA VARIABLES                                     */\r\n    /********************************************************************************************/\r\n\r\n    // Data contract\r\n    FlightSuretyData dataContract;\r\n\r\n    // Flight status codes\r\n    uint8 private constant STATUS_CODE_UNKNOWN = 0;\r\n    uint8 private constant STATUS_CODE_ON_TIME = 10;\r\n    uint8 private constant STATUS_CODE_LATE_AIRLINE = 20;\r\n    uint8 private constant STATUS_CODE_LATE_WEATHER = 30;\r\n    uint8 private constant STATUS_CODE_LATE_TECHNICAL = 40;\r\n    uint8 private constant STATUS_CODE_LATE_OTHER = 50;\r\n\r\n    address private contractOwner; // Account used to deploy contract\r\n\r\n    // region ORACLE MANAGEMENT\r\n\r\n    // Incremented to add pseudo-randomness at various points\r\n    uint8 private nonce = 0;\r\n\r\n    // Fee to be paid when registering oracle\r\n    uint256 public constant REGISTRATION_FEE = 1 ether;\r\n\r\n    // Number of oracles that must respond for valid status\r\n    uint256 private constant MIN_RESPONSES = 3;\r\n\r\n    // Track all registered oracles\r\n    mapping(address => Oracle) private oracles;\r\n\r\n    // Track all oracle responses\r\n    // Key = hash(index, flight, timestamp)\r\n    mapping(bytes32 => ResponseInfo) private oracleResponses;\r\n\r\n    struct Oracle {\r\n        bool isRegistered;\r\n        uint8[3] indexes;\r\n    }\r\n\r\n    // Model for responses from oracles\r\n    struct ResponseInfo {\r\n        address requester; // Account that requested status\r\n        bool isOpen; // If open, oracle responses are accepted\r\n        mapping(uint8 => address[]) responses; // Mapping key is the status code reported\r\n        // This lets us group responses and identify\r\n        // the response that majority of the oracles\r\n    }\r\n\r\n    // Event fired each time an oracle submits a response\r\n    event FlightStatusInfo(\r\n        address airline,\r\n        string flight,\r\n        uint256 timestamp,\r\n        uint8 status\r\n    );\r\n\r\n    event OracleReport(\r\n        address airline,\r\n        string flight,\r\n        uint256 timestamp,\r\n        uint8 status\r\n    );\r\n\r\n    // Event fired when flight status request is submitted\r\n    // Oracles track this and if they have a matching index\r\n    // they fetch data and submit a response\r\n    event OracleRequest(\r\n        uint8 index,\r\n        address airline,\r\n        string flight,\r\n        uint256 timestamp\r\n    );\r\n\r\n    event TestingValue(string value);\r\n\r\n    /********************************************************************************************/\r\n    /*                                       CONSTRUCTOR                                        */\r\n    /********************************************************************************************/\r\n\r\n    /**\r\n     * @dev Contract constructor\r\n     *\r\n     */\r\n    constructor(address payable dataContractAddress) {\r\n        dataContract = FlightSuretyData(dataContractAddress);\r\n    }\r\n\r\n    /********************************************************************************************/\r\n    /*                                       FUNCTION MODIFIERS                                 */\r\n    /********************************************************************************************/\r\n\r\n    // Modifiers help avoid duplication of code. They are typically used to validate something\r\n    // before a function is allowed to be executed.\r\n\r\n    /********************************************************************************************/\r\n    /*                                     SMART CONTRACT FUNCTIONS                             */\r\n    /********************************************************************************************/\r\n\r\n    /**\r\n     * @dev Add an airline to the registration queue\r\n     */\r\n    function registerAirline(string calldata name)\r\n        external\r\n        returns (bool success, uint256 votes)\r\n    {\r\n        require(bytes(name).length > 0, \"Name cannot be empty\");\r\n        dataContract.registerAirline(payable(msg.sender), name);\r\n        return (true, 0);\r\n    }\r\n\r\n    /**\r\n     * @dev Register a future flight for insuring.\r\n     *\r\n     */\r\n    function registerFlight(string calldata name, uint256 timestamp) \r\n    external returns (bool success)\r\n     {\r\n         require(bytes(name).length > 0, \"Name cannot be empty\");\r\n         dataContract.registerFlight(payable(msg.sender), name, timestamp);\r\n         return (true);\r\n\r\n     }\r\n\r\n    // Generate a request for oracles to fetch flight information\r\n    function fetchFlightStatus(\r\n        address airline,\r\n        string calldata flight,\r\n        uint256 timestamp\r\n    ) external {\r\n        uint8 index = getRandomIndex(msg.sender);\r\n\r\n        // Generate a unique key for storing the request\r\n        bytes32 key = keccak256(\r\n            abi.encodePacked(index, airline, flight, timestamp)\r\n        );\r\n        oracleResponses[key].requester = msg.sender;\r\n        oracleResponses[key].isOpen = true;\r\n\r\n        emit OracleRequest(index, airline, flight, timestamp);\r\n    }\r\n\r\n    // Register an oracle with the contract\r\n    function registerOracle() external payable {\r\n        // Require registration fee\r\n        require(msg.value >= REGISTRATION_FEE, \"Registration fee is required\");\r\n\r\n        uint8[3] memory indexes = generateIndexes(msg.sender);\r\n\r\n        oracles[msg.sender] = Oracle({isRegistered: true, indexes: indexes});\r\n    }\r\n\r\n    function getMyIndexes() external view returns (uint8[3] memory) {\r\n        require(\r\n            oracles[msg.sender].isRegistered,\r\n            \"Not registered as an oracle\"\r\n        );\r\n\r\n        return oracles[msg.sender].indexes;\r\n    }\r\n\r\n    function getDataContractAddress() external view returns (address payable) {\r\n        return payable(dataContract);\r\n    }\r\n\r\n    // Called by oracle when a response is available to an outstanding request\r\n    // For the response to be accepted, there must be a pending request that is open\r\n    // and matches one of the three Indexes randomly assigned to the oracle at the\r\n    // time of registration (i.e. uninvited oracles are not welcome)\r\n    function submitOracleResponse(\r\n        uint8 index,\r\n        address airline,\r\n        string calldata flight,\r\n        uint256 timestamp,\r\n        uint8 statusCode\r\n    ) external {\r\n        require(\r\n            (oracles[msg.sender].indexes[0] == index) ||\r\n                (oracles[msg.sender].indexes[1] == index) ||\r\n                (oracles[msg.sender].indexes[2] == index),\r\n            \"Index does not match oracle request\"\r\n        );\r\n\r\n        bytes32 key = keccak256(\r\n            abi.encodePacked(index, airline, flight, timestamp)\r\n        );\r\n        require(\r\n            oracleResponses[key].isOpen,\r\n            \"Flight or timestamp do not match oracle request\"\r\n        );\r\n\r\n        oracleResponses[key].responses[statusCode].push(msg.sender);\r\n\r\n        // Information isn't considered verified until at least MIN_RESPONSES\r\n        // oracles respond with the *** same *** information\r\n        emit OracleReport(airline, flight, timestamp, statusCode);\r\n        if (\r\n            oracleResponses[key].responses[statusCode].length >= MIN_RESPONSES\r\n        ) {\r\n            emit FlightStatusInfo(airline, flight, timestamp, statusCode);\r\n\r\n            // Handle flight status as appropriate\r\n            processFlightStatus(airline, flight, timestamp, statusCode);\r\n        }\r\n    }\r\n\r\n    /********************************************************************************************/\r\n    /*                                       UTILITY FUNCTIONS                                  */\r\n    /********************************************************************************************/\r\n\r\n    /**\r\n     * @dev Called after oracle has updated flight status\r\n     *\r\n     */\r\n    function processFlightStatus(\r\n        address airline,\r\n        string memory flight,\r\n        uint256 timestamp,\r\n        uint8 statusCode\r\n    ) internal pure {}\r\n\r\n    function getFlightKey(\r\n        address airline,\r\n        string memory flight,\r\n        uint256 timestamp\r\n    ) internal pure returns (bytes32) {\r\n        return keccak256(abi.encodePacked(airline, flight, timestamp));\r\n    }\r\n\r\n    // Returns array of three non-duplicating integers from 0-9\r\n    function generateIndexes(address account)\r\n        internal\r\n        returns (uint8[3] memory)\r\n    {\r\n        uint8[3] memory indexes;\r\n        indexes[0] = getRandomIndex(account);\r\n\r\n        indexes[1] = indexes[0];\r\n        while (indexes[1] == indexes[0]) {\r\n            indexes[1] = getRandomIndex(account);\r\n        }\r\n\r\n        indexes[2] = indexes[1];\r\n        while ((indexes[2] == indexes[0]) || (indexes[2] == indexes[1])) {\r\n            indexes[2] = getRandomIndex(account);\r\n        }\r\n\r\n        return indexes;\r\n    }\r\n\r\n    // Returns array of three non-duplicating integers from 0-9\r\n    function getRandomIndex(address account) internal returns (uint8) {\r\n        uint8 maxValue = 10;\r\n\r\n        // Pseudo random number...the incrementing nonce adds variation\r\n        uint8 random = uint8(\r\n            uint256(\r\n                keccak256(\r\n                    abi.encodePacked(blockhash(block.number - nonce++), account)\r\n                )\r\n            ) % maxValue\r\n        );\r\n\r\n        if (nonce > 250) {\r\n            nonce = 0; // Can only fetch blockhashes for last 256 blocks so we adapt\r\n        }\r\n\r\n        return random;\r\n    }\r\n\r\n    // endregion\r\n}\r\n",
  "sourcePath": "/media/indigo/backup/AXEL/Personal/Tutorials/blocksurety/blockchain-flight-surety/contracts/FlightSuretyApp.sol",
  "compiler": {
    "name": "solc",
    "version": "0.8.0+commit.c7dfd78e.Emscripten.clang"
  },
  "schemaVersion": "3.3.1",
  "updatedAt": "2020-12-24T01:38:27.838Z",
  "networkType": "ethereum",
  "devdoc": {
    "kind": "dev",
    "methods": {
      "constructor": {
        "details": "Contract constructor"
      },
      "isOperational()": {
        "details": "Get operating status of contract",
        "returns": {
          "_0": "A bool that is the current operating status"
        }
      },
      "registerAirline(string)": {
        "details": "Add an airline to the registration queue"
      },
      "registerFlight(string,uint256)": {
        "details": "Register a future flight for insuring."
      },
      "setOperationalStatus(bool)": {
        "details": "Sets contract operations on/off When operational mode is disabled, all write transactions except for this one will fail"
      }
    },
    "version": 1
  },
  "userdoc": {
    "kind": "user",
    "methods": {},
    "version": 1
  }
}