{
  "contractName": "FlightSuretyData",
  "abi": [
    {
      "inputs": [],
      "stateMutability": "nonpayable",
      "type": "constructor"
    },
    {
      "anonymous": false,
      "inputs": [
        {
          "indexed": false,
          "internalType": "address payable",
          "name": "newAddress",
          "type": "address"
        }
      ],
      "name": "AuthorizedAppContractUpdated",
      "type": "event"
    },
    {
      "anonymous": false,
      "inputs": [
        {
          "indexed": false,
          "internalType": "address payable",
          "name": "airline",
          "type": "address"
        }
      ],
      "name": "NewAirlineRegistered",
      "type": "event"
    },
    {
      "anonymous": false,
      "inputs": [
        {
          "indexed": false,
          "internalType": "string",
          "name": "airlineName",
          "type": "string"
        },
        {
          "indexed": false,
          "internalType": "string",
          "name": "flightName",
          "type": "string"
        }
      ],
      "name": "NewFlightRegistered",
      "type": "event"
    },
    {
      "anonymous": false,
      "inputs": [
        {
          "indexed": false,
          "internalType": "string",
          "name": "value",
          "type": "string"
        }
      ],
      "name": "TestStringValue",
      "type": "event"
    },
    {
      "anonymous": false,
      "inputs": [
        {
          "indexed": true,
          "internalType": "address",
          "name": "oldOwner",
          "type": "address"
        },
        {
          "indexed": true,
          "internalType": "address",
          "name": "newOwner",
          "type": "address"
        }
      ],
      "name": "TransferOwnership",
      "type": "event"
    },
    {
      "anonymous": false,
      "inputs": [
        {
          "indexed": false,
          "internalType": "bool",
          "name": "mode",
          "type": "bool"
        }
      ],
      "name": "UpdateOperationalStatus",
      "type": "event"
    },
    {
      "stateMutability": "payable",
      "type": "fallback",
      "payable": true
    },
    {
      "inputs": [],
      "name": "isOperational",
      "outputs": [
        {
          "internalType": "bool",
          "name": "",
          "type": "bool"
        }
      ],
      "stateMutability": "view",
      "type": "function",
      "constant": true
    },
    {
      "inputs": [],
      "name": "isOwner",
      "outputs": [
        {
          "internalType": "bool",
          "name": "",
          "type": "bool"
        }
      ],
      "stateMutability": "view",
      "type": "function",
      "constant": true
    },
    {
      "inputs": [],
      "name": "kill",
      "outputs": [],
      "stateMutability": "nonpayable",
      "type": "function"
    },
    {
      "inputs": [],
      "name": "owner",
      "outputs": [
        {
          "internalType": "address",
          "name": "",
          "type": "address"
        }
      ],
      "stateMutability": "view",
      "type": "function",
      "constant": true
    },
    {
      "inputs": [],
      "name": "renounceOwnership",
      "outputs": [],
      "stateMutability": "nonpayable",
      "type": "function"
    },
    {
      "inputs": [
        {
          "internalType": "bool",
          "name": "mode",
          "type": "bool"
        }
      ],
      "name": "setOperationalStatus",
      "outputs": [],
      "stateMutability": "nonpayable",
      "type": "function"
    },
    {
      "inputs": [
        {
          "internalType": "address payable",
          "name": "newOwner",
          "type": "address"
        }
      ],
      "name": "transferOwnership",
      "outputs": [],
      "stateMutability": "nonpayable",
      "type": "function"
    },
    {
      "inputs": [
        {
          "internalType": "address payable",
          "name": "newAddress",
          "type": "address"
        }
      ],
      "name": "updateAuthorizedAppContract",
      "outputs": [],
      "stateMutability": "nonpayable",
      "type": "function"
    },
    {
      "inputs": [
        {
          "internalType": "address payable",
          "name": "airlineAddress",
          "type": "address"
        },
        {
          "internalType": "string",
          "name": "name",
          "type": "string"
        }
      ],
      "name": "registerAirline",
      "outputs": [],
      "stateMutability": "nonpayable",
      "type": "function"
    },
    {
      "inputs": [],
      "name": "allAirlines",
      "outputs": [
        {
          "components": [
            {
              "internalType": "enum FlightSuretyData.AirlineStatus",
              "name": "status",
              "type": "uint8"
            },
            {
              "internalType": "string",
              "name": "name",
              "type": "string"
            },
            {
              "internalType": "address payable",
              "name": "airlineAddress",
              "type": "address"
            }
          ],
          "internalType": "struct FlightSuretyData.Airline[]",
          "name": "",
          "type": "tuple[]"
        }
      ],
      "stateMutability": "view",
      "type": "function",
      "constant": true
    },
    {
      "inputs": [
        {
          "internalType": "address payable",
          "name": "airlineAddress",
          "type": "address"
        },
        {
          "internalType": "string",
          "name": "flightName",
          "type": "string"
        },
        {
          "internalType": "uint256",
          "name": "flightTime",
          "type": "uint256"
        }
      ],
      "name": "registerFlight",
      "outputs": [],
      "stateMutability": "nonpayable",
      "type": "function"
    },
    {
      "inputs": [],
      "name": "buy",
      "outputs": [],
      "stateMutability": "payable",
      "type": "function",
      "payable": true
    },
    {
      "inputs": [],
      "name": "creditInsurees",
      "outputs": [],
      "stateMutability": "pure",
      "type": "function",
      "constant": true
    },
    {
      "inputs": [],
      "name": "pay",
      "outputs": [],
      "stateMutability": "pure",
      "type": "function",
      "constant": true
    },
    {
      "inputs": [],
      "name": "fund",
      "outputs": [],
      "stateMutability": "payable",
      "type": "function",
      "payable": true
    }
  ],
  "bytecode": "0x608060405260016000806101000a81548160ff02191690831515021790555034801561002a57600080fd5b5033600060016101000a81548173ffffffffffffffffffffffffffffffffffffffff021916908373ffffffffffffffffffffffffffffffffffffffff160217905550600060019054906101000a900473ffffffffffffffffffffffffffffffffffffffff1673ffffffffffffffffffffffffffffffffffffffff16600073ffffffffffffffffffffffffffffffffffffffff167f5c486528ec3e3f0ea91181cff8116f02bfa350e03b8b6f12e00765adbb5af85c60405160405180910390a3611c13806100f86000396000f3fe6080604052600436106100ec5760003560e01c8063715018a61161008a578063b60d428811610059578063b60d428814610259578063cd905dff14610263578063ee38a7491461028e578063f2fde38b146102b7576100ed565b8063715018a6146101e25780638da5cb5b146101f95780638f32d59b14610224578063a6f2ae3a1461024f576100ed565b80633cc0be9c116100c65780633cc0be9c1461015057806341c0e1b5146101795780635122cb381461019057806353a50a0d146101b9576100ed565b80631b9265b8146100f75780632c49615f1461010e57806336cee48414610139576100ed565b5b6100f56102e0565b005b34801561010357600080fd5b5061010c6102e2565b005b34801561011a57600080fd5b506101236102e4565b60405161013091906118bb565b60405180910390f35b34801561014557600080fd5b5061014e610468565b005b34801561015c57600080fd5b50610177600480360381019061017291906113ff565b61046a565b005b34801561018557600080fd5b5061018e610918565b005b34801561019c57600080fd5b506101b760048036038101906101b29190611466565b6109ab565b005b3480156101c557600080fd5b506101e060048036038101906101db919061137e565b610a45565b005b3480156101ee57600080fd5b506101f7610a98565b005b34801561020557600080fd5b5061020e610b9f565b60405161021b9190611885565b60405180910390f35b34801561023057600080fd5b50610239610bc8565b60405161024691906118dd565b60405180910390f35b610257610c1f565b005b6102616102e0565b005b34801561026f57600080fd5b50610278610c21565b60405161028591906118dd565b60405180910390f35b34801561029a57600080fd5b506102b560048036038101906102b091906113a7565b610c37565b005b3480156102c357600080fd5b506102de60048036038101906102d9919061137e565b610f1a565b005b565b565b60606004805480602002602001604051908101604052809291908181526020016000905b8282101561045f57838290600052602060002090600302016040518060600160405290816000820160009054906101000a900460ff16600281111561034957fe5b600281111561035457fe5b8152602001600182018054600181600116156101000203166002900480601f0160208091040260200160405190810160405280929190818152602001828054600181600116156101000203166002900480156103f15780601f106103c6576101008083540402835291602001916103f1565b820191906000526020600020905b8154815290600101906020018083116103d457829003601f168201915b505050505081526020016002820160009054906101000a900473ffffffffffffffffffffffffffffffffffffffff1673ffffffffffffffffffffffffffffffffffffffff1673ffffffffffffffffffffffffffffffffffffffff168152505081526020019060010190610308565b50505050905090565b565b600160009054906101000a900473ffffffffffffffffffffffffffffffffffffffff1673ffffffffffffffffffffffffffffffffffffffff163373ffffffffffffffffffffffffffffffffffffffff16146104fa576040517f08c379a00000000000000000000000000000000000000000000000000000000081526004016104f19061194f565b60405180910390fd5b60038260405161050a919061186e565b908152602001604051809103902060000160009054906101000a900460ff16610568576040517f08c379a000000000000000000000000000000000000000000000000000000000815260040161055f9061196f565b60405180910390fd5b6000600260008573ffffffffffffffffffffffffffffffffffffffff1673ffffffffffffffffffffffffffffffffffffffff16815260200190815260200160002060010180546001816001161561010002031660029004905014610601576040517f08c379a00000000000000000000000000000000000000000000000000000000081526004016105f89061192f565b60405180910390fd5b610609611188565b600260008573ffffffffffffffffffffffffffffffffffffffff1673ffffffffffffffffffffffffffffffffffffffff1681526020019081526020016000206040518060600160405290816000820160009054906101000a900460ff16600281111561067157fe5b600281111561067c57fe5b8152602001600182018054600181600116156101000203166002900480601f0160208091040260200160405190810160405280929190818152602001828054600181600116156101000203166002900480156107195780601f106106ee57610100808354040283529160200191610719565b820191906000526020600020905b8154815290600101906020018083116106fc57829003601f168201915b505050505081526020016002820160009054906101000a900473ffffffffffffffffffffffffffffffffffffffff1673ffffffffffffffffffffffffffffffffffffffff1673ffffffffffffffffffffffffffffffffffffffff168152505090506107826111ca565b6040518060a00160405280600115158152602001600060ff168152602001848152602001858152602001838152509050806003856040516107c3919061186e565b908152602001604051809103902060008201518160000160006101000a81548160ff02191690831515021790555060208201518160000160016101000a81548160ff021916908360ff160217905550604082015181600101556060820151816002019080519060200190610838929190611204565b5060808201518160030160008201518160000160006101000a81548160ff0219169083600281111561086657fe5b02179055506020820151816001019080519060200190610887929190611204565b5060408201518160020160006101000a81548173ffffffffffffffffffffffffffffffffffffffff021916908373ffffffffffffffffffffffffffffffffffffffff16021790555050509050507fea6bc2caf3e9a38cdf9d34fa48de19052ab65804dcc2a04921de5cee49147a378260200151856040516109099291906118f8565b60405180910390a15050505050565b600060019054906101000a900473ffffffffffffffffffffffffffffffffffffffff1673ffffffffffffffffffffffffffffffffffffffff163373ffffffffffffffffffffffffffffffffffffffff1614156109a957600060019054906101000a900473ffffffffffffffffffffffffffffffffffffffff1673ffffffffffffffffffffffffffffffffffffffff16ff5b565b6109b3610bc8565b6109f2576040517f08c379a00000000000000000000000000000000000000000000000000000000081526004016109e9906119af565b60405180910390fd5b7fb6d5f5457d1c101e27891c7154e37f1578a63e19a5396705b34a4b3596b0cab581604051610a2191906118dd565b60405180910390a1806000806101000a81548160ff02191690831515021790555050565b610a4d610bc8565b610a8c576040517f08c379a0000000000000000000000000000000000000000000000000000000008152600401610a83906119af565b60405180910390fd5b610a9581610f6d565b50565b610aa0610bc8565b610adf576040517f08c379a0000000000000000000000000000000000000000000000000000000008152600401610ad6906119af565b60405180910390fd5b600073ffffffffffffffffffffffffffffffffffffffff16600060019054906101000a900473ffffffffffffffffffffffffffffffffffffffff1673ffffffffffffffffffffffffffffffffffffffff167f5c486528ec3e3f0ea91181cff8116f02bfa350e03b8b6f12e00765adbb5af85c60405160405180910390a360008060016101000a81548173ffffffffffffffffffffffffffffffffffffffff021916908373ffffffffffffffffffffffffffffffffffffffff160217905550565b60008060019054906101000a900473ffffffffffffffffffffffffffffffffffffffff16905090565b60008060019054906101000a900473ffffffffffffffffffffffffffffffffffffffff1673ffffffffffffffffffffffffffffffffffffffff163373ffffffffffffffffffffffffffffffffffffffff1614905090565b565b60008060009054906101000a900460ff16905090565b600160009054906101000a900473ffffffffffffffffffffffffffffffffffffffff1673ffffffffffffffffffffffffffffffffffffffff163373ffffffffffffffffffffffffffffffffffffffff1614610cc7576040517f08c379a0000000000000000000000000000000000000000000000000000000008152600401610cbe9061194f565b60405180910390fd5b610ccf611188565b604051806060016040528060016002811115610ce757fe5b815260200184848080601f016020809104026020016040519081016040528093929190818152602001838380828437600081840152601f19601f8201169050808301925050505050505081526020018573ffffffffffffffffffffffffffffffffffffffff16815250905080600260008673ffffffffffffffffffffffffffffffffffffffff1673ffffffffffffffffffffffffffffffffffffffff16815260200190815260200160002060008201518160000160006101000a81548160ff02191690836002811115610db657fe5b02179055506020820151816001019080519060200190610dd7929190611204565b5060408201518160020160006101000a81548173ffffffffffffffffffffffffffffffffffffffff021916908373ffffffffffffffffffffffffffffffffffffffff1602179055509050507f53f16340874f686d239bb80161aeda17688bcb49ef5405c9090973a5d0426fa684604051610e5191906118a0565b60405180910390a1600481908060018154018082558091505060019003906000526020600020906003020160009091909190915060008201518160000160006101000a81548160ff02191690836002811115610ea957fe5b02179055506020820151816001019080519060200190610eca929190611204565b5060408201518160020160006101000a81548173ffffffffffffffffffffffffffffffffffffffff021916908373ffffffffffffffffffffffffffffffffffffffff160217905550505050505050565b610f22610bc8565b610f61576040517f08c379a0000000000000000000000000000000000000000000000000000000008152600401610f58906119af565b60405180910390fd5b610f6a81611058565b50565b600073ffffffffffffffffffffffffffffffffffffffff168173ffffffffffffffffffffffffffffffffffffffff161415610fdd576040517f08c379a0000000000000000000000000000000000000000000000000000000008152600401610fd49061198f565b60405180910390fd5b80600160006101000a81548173ffffffffffffffffffffffffffffffffffffffff021916908373ffffffffffffffffffffffffffffffffffffffff1602179055507fb58d590ed56d56a6fa0d8a7637ff54c9117435e0366ae25ca47b29296f47ac038160405161104d91906118a0565b60405180910390a150565b600073ffffffffffffffffffffffffffffffffffffffff168173ffffffffffffffffffffffffffffffffffffffff1614156110c8576040517f08c379a00000000000000000000000000000000000000000000000000000000081526004016110bf906119cf565b60405180910390fd5b80600060016101000a81548173ffffffffffffffffffffffffffffffffffffffff021916908373ffffffffffffffffffffffffffffffffffffffff1602179055508073ffffffffffffffffffffffffffffffffffffffff16600060019054906101000a900473ffffffffffffffffffffffffffffffffffffffff1673ffffffffffffffffffffffffffffffffffffffff167f5c486528ec3e3f0ea91181cff8116f02bfa350e03b8b6f12e00765adbb5af85c60405160405180910390a350565b6040518060600160405280600060028111156111a057fe5b815260200160608152602001600073ffffffffffffffffffffffffffffffffffffffff1681525090565b6040518060a00160405280600015158152602001600060ff16815260200160008152602001606081526020016111fe611188565b81525090565b828054600181600116156101000203166002900490600052602060002090601f016020900481019282601f1061124557805160ff1916838001178555611273565b82800160010185558215611273579182015b82811115611272578251825591602001919060010190611257565b5b5090506112809190611284565b5090565b5b8082111561129d576000816000905550600101611285565b5090565b6000813590506112b081611b98565b92915050565b6000813590506112c581611baf565b92915050565b60008083601f8401126112dd57600080fd5b8235905067ffffffffffffffff8111156112f657600080fd5b60208301915083600182028301111561130e57600080fd5b9250929050565b600082601f83011261132657600080fd5b813561133961133482611a1c565b6119ef565b9150808252602083016020830185838301111561135557600080fd5b611360838284611b38565b50505092915050565b60008135905061137881611bc6565b92915050565b60006020828403121561139057600080fd5b600061139e848285016112a1565b91505092915050565b6000806000604084860312156113bc57600080fd5b60006113ca868287016112a1565b935050602084013567ffffffffffffffff8111156113e757600080fd5b6113f3868287016112cb565b92509250509250925092565b60008060006060848603121561141457600080fd5b6000611422868287016112a1565b935050602084013567ffffffffffffffff81111561143f57600080fd5b61144b86828701611315565b925050604061145c86828701611369565b9150509250925092565b60006020828403121561147857600080fd5b6000611486848285016112b6565b91505092915050565b600061149b838361181e565b905092915050565b6114ac81611acb565b82525050565b6114bb81611acb565b82525050565b6114ca81611ab9565b82525050565b60006114db82611a58565b6114e58185611a7b565b9350836020820285016114f785611a48565b8060005b858110156115335784840389528151611514858261148f565b945061151f83611a6e565b925060208a019950506001810190506114fb565b50829750879550505050505092915050565b61154e81611add565b82525050565b61155d81611b26565b82525050565b600061156e82611a63565b6115788185611a8c565b9350611588818560208601611b47565b61159181611b7a565b840191505092915050565b60006115a782611a63565b6115b18185611a9d565b93506115c1818560208601611b47565b6115ca81611b7a565b840191505092915050565b60006115e082611a63565b6115ea8185611aae565b93506115fa818560208601611b47565b80840191505092915050565b6000611613601683611a9d565b91507f4169726c696e6520646f6573206e6f74206578697374000000000000000000006000830152602082019050919050565b6000611653602783611a9d565b91507f43616c6c6572206e6f7420617574686f72697a656420746f206d616b6520746860008301527f69732063616c6c000000000000000000000000000000000000000000000000006020830152604082019050919050565b60006116b9601e83611a9d565b91507f466c69676874206e616d6520616c7265616479207265676973746572656400006000830152602082019050919050565b60006116f9602c83611a9d565b91507f546865206e657720636f6e747261637420616464726573732063616e6e6f742060008301527f62652061646472657373203000000000000000000000000000000000000000006020830152604082019050919050565b600061175f602983611a9d565b91507f4f6e6c7920746865206f776e65722063616e20706572666f726d20746869732060008301527f6f7065726174696f6e00000000000000000000000000000000000000000000006020830152604082019050919050565b60006117c5602183611a9d565b91507f546865206e6577204f776e65722063616e6e6f7420626520616464726573732060008301527f30000000000000000000000000000000000000000000000000000000000000006020830152604082019050919050565b60006060830160008301516118366000860182611554565b506020830151848203602086015261184e8282611563565b915050604083015161186360408601826114a3565b508091505092915050565b600061187a82846115d5565b915081905092915050565b600060208201905061189a60008301846114c1565b92915050565b60006020820190506118b560008301846114b2565b92915050565b600060208201905081810360008301526118d581846114d0565b905092915050565b60006020820190506118f26000830184611545565b92915050565b60006040820190508181036000830152611912818561159c565b90508181036020830152611926818461159c565b90509392505050565b6000602082019050818103600083015261194881611606565b9050919050565b6000602082019050818103600083015261196881611646565b9050919050565b60006020820190508181036000830152611988816116ac565b9050919050565b600060208201905081810360008301526119a8816116ec565b9050919050565b600060208201905081810360008301526119c881611752565b9050919050565b600060208201905081810360008301526119e8816117b8565b9050919050565b6000604051905081810181811067ffffffffffffffff82111715611a1257600080fd5b8060405250919050565b600067ffffffffffffffff821115611a3357600080fd5b601f19601f8301169050602081019050919050565b6000819050602082019050919050565b600081519050919050565b600081519050919050565b6000602082019050919050565b600082825260208201905092915050565b600082825260208201905092915050565b600082825260208201905092915050565b600081905092915050565b6000611ac482611afc565b9050919050565b6000611ad682611afc565b9050919050565b60008115159050919050565b6000819050611af782611b8b565b919050565b600073ffffffffffffffffffffffffffffffffffffffff82169050919050565b6000819050919050565b6000611b3182611ae9565b9050919050565b82818337600083830152505050565b60005b83811015611b65578082015181840152602081019050611b4a565b83811115611b74576000848401525b50505050565b6000601f19601f8301169050919050565b60038110611b9557fe5b50565b611ba181611acb565b8114611bac57600080fd5b50565b611bb881611add565b8114611bc357600080fd5b50565b611bcf81611b1c565b8114611bda57600080fd5b5056fea26469706673582212203f6f4c68ca98c87f7c30ea0e3749e8208188b6f9763e7d0575545aff3455747364736f6c63430007000033",
  "source": "// SPDX-License-Identifier: GPL-3.0\r\npragma experimental ABIEncoderV2;\r\npragma solidity >=0.7.0 <0.8.0;\r\n\r\nimport \"./SafeMath.sol\";\r\nimport \"./OperationalOwnable.sol\";\r\n\r\ncontract FlightSuretyData is OperationalOwnable {\r\n    using SafeMath for uint256;\r\n\r\n    /********************************************************************************************/\r\n    /*                                       DATA VARIABLES                                     */\r\n    /********************************************************************************************/\r\n\r\n    address payable private authorizedAppContract;\r\n\r\n    // Mappings\r\n    mapping(address => Airline) private airlines;\r\n    mapping(string => Flight) private flights;\r\n\r\n    // Arrays\r\n    Airline[] private registeredAirlines;\r\n    Flight[] private registeredFlights;\r\n\r\n\r\n    enum AirlineStatus {\r\n        PendingApproval, \r\n        Registered, \r\n        Paid\r\n    }\r\n\r\n    struct Airline {\r\n        AirlineStatus status;\r\n        string name;\r\n        address payable airlineAddress;\r\n    }\r\n\r\n    struct Flight {\r\n        bool isRegistered;\r\n        uint8 statusCode;\r\n        uint256 updatedTimestamp;\r\n        string name;\r\n        Airline airline;\r\n    }\r\n\r\n    /********************************************************************************************/\r\n    /*                                       EVENT DEFINITIONS                                  */\r\n    /********************************************************************************************/\r\n\r\n    event AuthorizedAppContractUpdated(address payable newAddress);\r\n\r\n    event NewAirlineRegistered(address payable airline);\r\n\r\n    event NewFlightRegistered(string airlineName, string flightName);\r\n\r\n    event TestStringValue(string value);\r\n\r\n    /**\r\n     * @dev Constructor\r\n     *      The deploying account becomes contractOwner\r\n     */\r\n    constructor(){}\r\n\r\n    /**\r\n     * @dev Fallback function for funding smart contract.\r\n     */\r\n    fallback() external payable {\r\n        fund();\r\n    }\r\n\r\n    /********************************************************************************************/\r\n    /*                                       FUNCTION MODIFIERS                                 */\r\n    /********************************************************************************************/\r\n\r\n    // Modifiers help avoid duplication of code. They are typically used to validate something\r\n    // before a function is allowed to be executed.\r\n\r\n    modifier onlyAuthorizedContract() {\r\n        require(msg.sender == authorizedAppContract, \"Caller not authorized to make this call\");\r\n        _;\r\n    }\r\n\r\n    /********************************************************************************************/\r\n    /*                                     SMART CONTRACT FUNCTIONS                             */\r\n    /********************************************************************************************/\r\n\r\n    /**\r\n     *   @dev Update the authorized app contract address\r\n     *\r\n     */\r\n    function updateAuthorizedAppContract(address payable newAddress)\r\n        public\r\n        onlyOwner\r\n    {\r\n        _updateAuthorizedAppContract(newAddress);\r\n    }\r\n\r\n    /**\r\n     *   @dev Update the authorized app contract address\r\n     *\r\n     */\r\n    function _updateAuthorizedAppContract(address payable newAddress) internal {\r\n        require(\r\n            newAddress != address(0),\r\n            \"The new contract address cannot be address 0\"\r\n        );\r\n        authorizedAppContract = newAddress;\r\n        emit AuthorizedAppContractUpdated(newAddress);\r\n    }\r\n\r\n    /**\r\n     * @dev Add an airline to the registration queue\r\n     *      Can only be called from FlightSuretyApp contract\r\n     *\r\n     */\r\n\r\n    function registerAirline(address payable airlineAddress, string calldata name)\r\n        external\r\n        onlyAuthorizedContract\r\n    {\r\n        // require(bytes(airlines[airlineAddress].name).length > 0, \"Airline already registered\");\r\n        Airline memory newAirline = Airline(AirlineStatus.Registered, name, airlineAddress);\r\n        airlines[airlineAddress] = newAirline;\r\n        emit NewAirlineRegistered(airlineAddress);\r\n        registeredAirlines.push(newAirline);\r\n    }\r\n\r\n    function allAirlines()\r\n    public view\r\n    returns(Airline[] memory)\r\n    {\r\n        return registeredAirlines;\r\n    }\r\n\r\n\r\n    /**\r\n    * @dev Add new Flight\r\n    *\r\n    */\r\n    function registerFlight(address payable airlineAddress, string memory flightName, uint256 flightTime) \r\n    external\r\n    onlyAuthorizedContract \r\n    {\r\n        require(flights[flightName].isRegistered, \"Flight name already registered\");\r\n        require(bytes(airlines[airlineAddress].name).length == 0, \"Airline does not exist\");\r\n\r\n        Airline memory airline = airlines[airlineAddress];\r\n        Flight memory newFlight = Flight(\r\n            true,\r\n            0,\r\n            flightTime,\r\n            flightName,\r\n            airline\r\n        );\r\n\r\n        flights[flightName] = newFlight;\r\n        emit NewFlightRegistered(airline.name, flightName);\r\n\r\n    }\r\n\r\n    /**\r\n     * @dev Buy insurance for a flight\r\n     *\r\n     */\r\n\r\n    function buy() external payable {}\r\n\r\n    /**\r\n     *  @dev Credits payouts to insurees\r\n     */\r\n    function creditInsurees() external pure {}\r\n\r\n    /**\r\n     *  @dev Transfers eligible payout funds to insuree\r\n     *\r\n     */\r\n    function pay() external pure {}\r\n\r\n    /********************************************************************************************/\r\n    /*                                       UTILITY FUNCTIONS                                  */\r\n    /********************************************************************************************/\r\n\r\n    /**\r\n     * @dev Initial funding for the insurance. Unless there are too many delayed flights\r\n     *      resulting in insurance payouts, the contract should be self-sustaining\r\n     *\r\n     */\r\n\r\n    function fund() public payable {}\r\n\r\n    function getFlightKey(\r\n        address airline,\r\n        string memory flight,\r\n        uint256 timestamp\r\n    ) internal pure returns (bytes32) {\r\n        return keccak256(abi.encodePacked(airline, flight, timestamp));\r\n    }\r\n}\r\n",
  "sourcePath": "/media/indigo/backup/AXEL/Personal/Tutorials/blocksurety/blockchain-flight-surety/contracts/FlightSuretyData.sol",
  "compiler": {
    "name": "solc",
    "version": "0.7.0+commit.9e61f92b.Emscripten.clang"
  },
  "schemaVersion": "3.0.23",
  "updatedAt": "2020-08-11T03:39:04.953Z",
  "networkType": "ethereum",
  "devdoc": {
    "kind": "dev",
    "methods": {
      "buy()": {
        "details": "Buy insurance for a flight"
      },
      "constructor": {
        "details": "Constructor      The deploying account becomes contractOwner"
      },
      "creditInsurees()": {
        "details": "Credits payouts to insurees"
      },
      "fund()": {
        "details": "Initial funding for the insurance. Unless there are too many delayed flights      resulting in insurance payouts, the contract should be self-sustaining"
      },
      "isOperational()": {
        "details": "Get operating status of contract",
        "returns": {
          "_0": "A bool that is the current operating status"
        }
      },
      "pay()": {
        "details": "Transfers eligible payout funds to insuree"
      },
      "registerAirline(address,string)": {
        "details": "Add an airline to the registration queue      Can only be called from FlightSuretyApp contract"
      },
      "registerFlight(address,string,uint256)": {
        "details": "Add new Flight"
      },
      "setOperationalStatus(bool)": {
        "details": "Sets contract operations on/off When operational mode is disabled, all write transactions except for this one will fail"
      },
      "updateAuthorizedAppContract(address)": {
        "details": "Update the authorized app contract address"
      }
    },
    "version": 1
  },
  "userdoc": {
    "kind": "user",
    "methods": {},
    "version": 1
  }
}