{
  "contractName": "FlightSuretyApp",
  "abi": [
    {
      "inputs": [
        {
          "internalType": "address payable",
          "name": "dataContractAddress",
          "type": "address"
        }
      ],
      "stateMutability": "nonpayable",
      "type": "constructor"
    },
    {
      "anonymous": false,
      "inputs": [
        {
          "indexed": false,
          "internalType": "address",
          "name": "airline",
          "type": "address"
        },
        {
          "indexed": false,
          "internalType": "string",
          "name": "flight",
          "type": "string"
        },
        {
          "indexed": false,
          "internalType": "uint256",
          "name": "timestamp",
          "type": "uint256"
        },
        {
          "indexed": false,
          "internalType": "uint8",
          "name": "status",
          "type": "uint8"
        }
      ],
      "name": "FlightStatusInfo",
      "type": "event"
    },
    {
      "anonymous": false,
      "inputs": [
        {
          "indexed": false,
          "internalType": "address",
          "name": "airline",
          "type": "address"
        },
        {
          "indexed": false,
          "internalType": "string",
          "name": "flight",
          "type": "string"
        },
        {
          "indexed": false,
          "internalType": "uint256",
          "name": "timestamp",
          "type": "uint256"
        },
        {
          "indexed": false,
          "internalType": "uint8",
          "name": "status",
          "type": "uint8"
        }
      ],
      "name": "OracleReport",
      "type": "event"
    },
    {
      "anonymous": false,
      "inputs": [
        {
          "indexed": false,
          "internalType": "uint8",
          "name": "index",
          "type": "uint8"
        },
        {
          "indexed": false,
          "internalType": "address",
          "name": "airline",
          "type": "address"
        },
        {
          "indexed": false,
          "internalType": "string",
          "name": "flight",
          "type": "string"
        },
        {
          "indexed": false,
          "internalType": "uint256",
          "name": "timestamp",
          "type": "uint256"
        }
      ],
      "name": "OracleRequest",
      "type": "event"
    },
    {
      "anonymous": false,
      "inputs": [
        {
          "indexed": false,
          "internalType": "string",
          "name": "value",
          "type": "string"
        }
      ],
      "name": "TestingValue",
      "type": "event"
    },
    {
      "anonymous": false,
      "inputs": [
        {
          "indexed": true,
          "internalType": "address",
          "name": "oldOwner",
          "type": "address"
        },
        {
          "indexed": true,
          "internalType": "address",
          "name": "newOwner",
          "type": "address"
        }
      ],
      "name": "TransferOwnership",
      "type": "event"
    },
    {
      "anonymous": false,
      "inputs": [
        {
          "indexed": false,
          "internalType": "bool",
          "name": "mode",
          "type": "bool"
        }
      ],
      "name": "UpdateOperationalStatus",
      "type": "event"
    },
    {
      "inputs": [],
      "name": "REGISTRATION_FEE",
      "outputs": [
        {
          "internalType": "uint256",
          "name": "",
          "type": "uint256"
        }
      ],
      "stateMutability": "view",
      "type": "function",
      "constant": true
    },
    {
      "inputs": [],
      "name": "isOperational",
      "outputs": [
        {
          "internalType": "bool",
          "name": "",
          "type": "bool"
        }
      ],
      "stateMutability": "view",
      "type": "function",
      "constant": true
    },
    {
      "inputs": [],
      "name": "isOwner",
      "outputs": [
        {
          "internalType": "bool",
          "name": "",
          "type": "bool"
        }
      ],
      "stateMutability": "view",
      "type": "function",
      "constant": true
    },
    {
      "inputs": [],
      "name": "kill",
      "outputs": [],
      "stateMutability": "nonpayable",
      "type": "function"
    },
    {
      "inputs": [],
      "name": "owner",
      "outputs": [
        {
          "internalType": "address",
          "name": "",
          "type": "address"
        }
      ],
      "stateMutability": "view",
      "type": "function",
      "constant": true
    },
    {
      "inputs": [],
      "name": "renounceOwnership",
      "outputs": [],
      "stateMutability": "nonpayable",
      "type": "function"
    },
    {
      "inputs": [
        {
          "internalType": "bool",
          "name": "mode",
          "type": "bool"
        }
      ],
      "name": "setOperationalStatus",
      "outputs": [],
      "stateMutability": "nonpayable",
      "type": "function"
    },
    {
      "inputs": [
        {
          "internalType": "address payable",
          "name": "newOwner",
          "type": "address"
        }
      ],
      "name": "transferOwnership",
      "outputs": [],
      "stateMutability": "nonpayable",
      "type": "function"
    },
    {
      "inputs": [
        {
          "internalType": "string",
          "name": "name",
          "type": "string"
        }
      ],
      "name": "registerAirline",
      "outputs": [
        {
          "internalType": "bool",
          "name": "success",
          "type": "bool"
        },
        {
          "internalType": "uint256",
          "name": "votes",
          "type": "uint256"
        }
      ],
      "stateMutability": "nonpayable",
      "type": "function"
    },
    {
      "inputs": [],
      "name": "registerFlight",
      "outputs": [],
      "stateMutability": "pure",
      "type": "function",
      "constant": true
    },
    {
      "inputs": [
        {
          "internalType": "address",
          "name": "airline",
          "type": "address"
        },
        {
          "internalType": "string",
          "name": "flight",
          "type": "string"
        },
        {
          "internalType": "uint256",
          "name": "timestamp",
          "type": "uint256"
        }
      ],
      "name": "fetchFlightStatus",
      "outputs": [],
      "stateMutability": "nonpayable",
      "type": "function"
    },
    {
      "inputs": [],
      "name": "registerOracle",
      "outputs": [],
      "stateMutability": "payable",
      "type": "function",
      "payable": true
    },
    {
      "inputs": [],
      "name": "getMyIndexes",
      "outputs": [
        {
          "internalType": "uint8[3]",
          "name": "",
          "type": "uint8[3]"
        }
      ],
      "stateMutability": "view",
      "type": "function",
      "constant": true
    },
    {
      "inputs": [],
      "name": "getDataContractAddress",
      "outputs": [
        {
          "internalType": "address payable",
          "name": "",
          "type": "address"
        }
      ],
      "stateMutability": "view",
      "type": "function",
      "constant": true
    },
    {
      "inputs": [
        {
          "internalType": "uint8",
          "name": "index",
          "type": "uint8"
        },
        {
          "internalType": "address",
          "name": "airline",
          "type": "address"
        },
        {
          "internalType": "string",
          "name": "flight",
          "type": "string"
        },
        {
          "internalType": "uint256",
          "name": "timestamp",
          "type": "uint256"
        },
        {
          "internalType": "uint8",
          "name": "statusCode",
          "type": "uint8"
        }
      ],
      "name": "submitOracleResponse",
      "outputs": [],
      "stateMutability": "nonpayable",
      "type": "function"
    }
  ],
  "bytecode": "0x608060405260016000806101000a81548160ff0219169083151502179055506000600260146101000a81548160ff021916908360ff16021790555034801561004657600080fd5b50604051611a30380380611a308339818101604052602081101561006957600080fd5b810190808051906020019092919050505033600060016101000a81548173ffffffffffffffffffffffffffffffffffffffff021916908373ffffffffffffffffffffffffffffffffffffffff160217905550600060019054906101000a900473ffffffffffffffffffffffffffffffffffffffff1673ffffffffffffffffffffffffffffffffffffffff16600073ffffffffffffffffffffffffffffffffffffffff167f5c486528ec3e3f0ea91181cff8116f02bfa350e03b8b6f12e00765adbb5af85c60405160405180910390a380600160006101000a81548173ffffffffffffffffffffffffffffffffffffffff021916908373ffffffffffffffffffffffffffffffffffffffff160217905550506118a7806101896000396000f3fe6080604052600436106100e85760003560e01c8063715018a61161008a578063c10f270011610059578063c10f270014610349578063cd905dff14610413578063f2fde38b14610440578063f83f11c014610491576100e8565b8063715018a6146102ad5780638da5cb5b146102c45780638f32d59b14610305578063ae6f17e014610332576100e8565b80635122cb38116100c65780635122cb38146101b15780635f1cc0e6146101ee57806361e91ea11461024157806364b4f75114610282576100e8565b806325205210146100ed578063339d25901461019057806341c0e1b51461019a575b600080fd5b3480156100f957600080fd5b506101716004803603602081101561011057600080fd5b810190808035906020019064010000000081111561012d57600080fd5b82018360208201111561013f57600080fd5b8035906020019184600183028401116401000000008311171561016157600080fd5b9091929391929390505050610541565b6040518083151581526020018281526020019250505060405180910390f35b6101986106a2565b005b3480156101a657600080fd5b506101af6107c8565b005b3480156101bd57600080fd5b506101ec600480360360208110156101d457600080fd5b8101908080351515906020019092919050505061085b565b005b3480156101fa57600080fd5b5061020361090d565b6040518082600360200280838360005b8381101561022e578082015181840152602081019050610213565b5050505090500191505060405180910390f35b34801561024d57600080fd5b50610256610a80565b604051808273ffffffffffffffffffffffffffffffffffffffff16815260200191505060405180910390f35b34801561028e57600080fd5b50610297610aaa565b6040518082815260200191505060405180910390f35b3480156102b957600080fd5b506102c2610ab6565b005b3480156102d057600080fd5b506102d9610bd3565b604051808273ffffffffffffffffffffffffffffffffffffffff16815260200191505060405180910390f35b34801561031157600080fd5b5061031a610bfc565b60405180821515815260200191505060405180910390f35b34801561033e57600080fd5b50610347610c53565b005b34801561035557600080fd5b50610411600480360360a081101561036c57600080fd5b81019080803560ff169060200190929190803573ffffffffffffffffffffffffffffffffffffffff169060200190929190803590602001906401000000008111156103b657600080fd5b8201836020820111156103c857600080fd5b803590602001918460018302840111640100000000831117156103ea57600080fd5b909192939192939080359060200190929190803560ff169060200190929190505050610c55565b005b34801561041f57600080fd5b50610428611128565b60405180821515815260200191505060405180910390f35b34801561044c57600080fd5b5061048f6004803603602081101561046357600080fd5b81019080803573ffffffffffffffffffffffffffffffffffffffff16906020019092919050505061113e565b005b34801561049d57600080fd5b5061053f600480360360608110156104b457600080fd5b81019080803573ffffffffffffffffffffffffffffffffffffffff169060200190929190803590602001906401000000008111156104f157600080fd5b82018360208201111561050357600080fd5b8035906020019184600183028401116401000000008311171561052557600080fd5b9091929391929390803590602001909291905050506111a7565b005b600080600084849050116105bd576040517f08c379a00000000000000000000000000000000000000000000000000000000081526004018080602001828103825260148152602001807f4e616d652063616e6e6f7420626520656d70747900000000000000000000000081525060200191505060405180910390fd5b600160009054906101000a900473ffffffffffffffffffffffffffffffffffffffff1673ffffffffffffffffffffffffffffffffffffffff1663ee38a7493386866040518463ffffffff1660e01b8152600401808473ffffffffffffffffffffffffffffffffffffffff168152602001806020018281038252848482818152602001925080828437600081840152601f19601f820116905080830192505050945050505050600060405180830381600087803b15801561067c57600080fd5b505af1158015610690573d6000803e3d6000fd5b50505050816000915091509250929050565b670de0b6b3a7640000341015610720576040517f08c379a000000000000000000000000000000000000000000000000000000000815260040180806020018281038252601c8152602001807f526567697374726174696f6e206665652069732072657175697265640000000081525060200191505060405180910390fd5b6107286116f1565b6107313361133f565b9050604051806040016040528060011515815260200182815250600360003373ffffffffffffffffffffffffffffffffffffffff1673ffffffffffffffffffffffffffffffffffffffff16815260200190815260200160002060008201518160000160006101000a81548160ff0219169083151502179055506020820151816001019060036107c1929190611713565b5090505050565b600060019054906101000a900473ffffffffffffffffffffffffffffffffffffffff1673ffffffffffffffffffffffffffffffffffffffff163373ffffffffffffffffffffffffffffffffffffffff16141561085957600060019054906101000a900473ffffffffffffffffffffffffffffffffffffffff1673ffffffffffffffffffffffffffffffffffffffff16ff5b565b610863610bfc565b6108b8576040517f08c379a00000000000000000000000000000000000000000000000000000000081526004018080602001828103825260298152602001806118056029913960400191505060405180910390fd5b7fb6d5f5457d1c101e27891c7154e37f1578a63e19a5396705b34a4b3596b0cab58160405180821515815260200191505060405180910390a1806000806101000a81548160ff02191690831515021790555050565b6109156116f1565b600360003373ffffffffffffffffffffffffffffffffffffffff1673ffffffffffffffffffffffffffffffffffffffff16815260200190815260200160002060000160009054906101000a900460ff166109d7576040517f08c379a000000000000000000000000000000000000000000000000000000000815260040180806020018281038252601b8152602001807f4e6f74207265676973746572656420617320616e206f7261636c65000000000081525060200191505060405180910390fd5b600360003373ffffffffffffffffffffffffffffffffffffffff1673ffffffffffffffffffffffffffffffffffffffff168152602001908152602001600020600101600380602002604051908101604052809291908260038015610a76576020028201916000905b82829054906101000a900460ff1660ff1681526020019060010190602082600001049283019260010382029150808411610a3f5790505b5050505050905090565b6000600160009054906101000a900473ffffffffffffffffffffffffffffffffffffffff16905090565b670de0b6b3a764000081565b610abe610bfc565b610b13576040517f08c379a00000000000000000000000000000000000000000000000000000000081526004018080602001828103825260298152602001806118056029913960400191505060405180910390fd5b600073ffffffffffffffffffffffffffffffffffffffff16600060019054906101000a900473ffffffffffffffffffffffffffffffffffffffff1673ffffffffffffffffffffffffffffffffffffffff167f5c486528ec3e3f0ea91181cff8116f02bfa350e03b8b6f12e00765adbb5af85c60405160405180910390a360008060016101000a81548173ffffffffffffffffffffffffffffffffffffffff021916908373ffffffffffffffffffffffffffffffffffffffff160217905550565b60008060019054906101000a900473ffffffffffffffffffffffffffffffffffffffff16905090565b60008060019054906101000a900473ffffffffffffffffffffffffffffffffffffffff1673ffffffffffffffffffffffffffffffffffffffff163373ffffffffffffffffffffffffffffffffffffffff1614905090565b565b8560ff16600360003373ffffffffffffffffffffffffffffffffffffffff1673ffffffffffffffffffffffffffffffffffffffff168152602001908152602001600020600101600060038110610ca757fe5b602091828204019190069054906101000a900460ff1660ff161480610d3457508560ff16600360003373ffffffffffffffffffffffffffffffffffffffff1673ffffffffffffffffffffffffffffffffffffffff168152602001908152602001600020600101600160038110610d1957fe5b602091828204019190069054906101000a900460ff1660ff16145b80610da757508560ff16600360003373ffffffffffffffffffffffffffffffffffffffff1673ffffffffffffffffffffffffffffffffffffffff168152602001908152602001600020600101600260038110610d8c57fe5b602091828204019190069054906101000a900460ff1660ff16145b610dfc576040517f08c379a000000000000000000000000000000000000000000000000000000000815260040180806020018281038252602381526020018061184f6023913960400191505060405180910390fd5b60008686868686604051602001808660ff1660f81b81526001018573ffffffffffffffffffffffffffffffffffffffff1660601b815260140184848082843780830192505050828152602001955050505050506040516020818303038152906040528051906020012090506004600082815260200190815260200160002060000160149054906101000a900460ff16610ee0576040517f08c379a000000000000000000000000000000000000000000000000000000000815260040180806020018281038252602f8152602001806117d6602f913960400191505060405180910390fd5b6004600082815260200190815260200160002060010160008360ff1660ff168152602001908152602001600020339080600181540180825580915050600190039060005260206000200160009091909190916101000a81548173ffffffffffffffffffffffffffffffffffffffff021916908373ffffffffffffffffffffffffffffffffffffffff1602179055507f43c853095c2752648493c88b4baac4d580d2594ffb00c6f1d4242d844514f7838686868686604051808673ffffffffffffffffffffffffffffffffffffffff168152602001806020018481526020018360ff1681526020018281038252868682818152602001925080828437600081840152601f19601f820116905080830192505050965050505050505060405180910390a160036004600083815260200190815260200160002060010160008460ff1660ff168152602001908152602001600020805490501061111f577fe23f5229de535c091e3b7bec2665f5d698192d3b31393066e8987b7a05076b6c8686868686604051808673ffffffffffffffffffffffffffffffffffffffff168152602001806020018481526020018360ff1681526020018281038252868682818152602001925080828437600081840152601f19601f820116905080830192505050965050505050505060405180910390a161111e8686868080601f016020809104026020016040519081016040528093929190818152602001838380828437600081840152601f19601f8201169050808301925050505050505085856114cb565b5b50505050505050565b60008060009054906101000a900460ff16905090565b611146610bfc565b61119b576040517f08c379a00000000000000000000000000000000000000000000000000000000081526004018080602001828103825260298152602001806118056029913960400191505060405180910390fd5b6111a4816114d1565b50565b60006111b233611617565b905060008186868686604051602001808660ff1660f81b81526001018573ffffffffffffffffffffffffffffffffffffffff1660601b81526014018484808284378083019250505082815260200195505050505050604051602081830303815290604052805190602001209050336004600083815260200190815260200160002060000160006101000a81548173ffffffffffffffffffffffffffffffffffffffff021916908373ffffffffffffffffffffffffffffffffffffffff16021790555060016004600083815260200190815260200160002060000160146101000a81548160ff0219169083151502179055507f3ed01f2c3fc24c6b329d931e35b03e390d23497d22b3f90e15b600343e93df118287878787604051808660ff1681526020018573ffffffffffffffffffffffffffffffffffffffff168152602001806020018381526020018281038252858582818152602001925080828437600081840152601f19601f820116905080830192505050965050505050505060405180910390a1505050505050565b6113476116f1565b61134f6116f1565b61135883611617565b8160006003811061136557fe5b602002019060ff16908160ff16815250508060006003811061138357fe5b60200201518160016003811061139557fe5b602002019060ff16908160ff16815250505b806000600381106113b457fe5b602002015160ff16816001600381106113c957fe5b602002015160ff161415611403576113e083611617565b816001600381106113ed57fe5b602002019060ff16908160ff16815250506113a7565b8060016003811061141057fe5b60200201518160026003811061142257fe5b602002019060ff16908160ff16815250505b8060006003811061144157fe5b602002015160ff168160026003811061145657fe5b602002015160ff16148061149157508060016003811061147257fe5b602002015160ff168160026003811061148757fe5b602002015160ff16145b156114c25761149f83611617565b816002600381106114ac57fe5b602002019060ff16908160ff1681525050611434565b80915050919050565b50505050565b600073ffffffffffffffffffffffffffffffffffffffff168173ffffffffffffffffffffffffffffffffffffffff161415611557576040517f08c379a000000000000000000000000000000000000000000000000000000000815260040180806020018281038252602181526020018061182e6021913960400191505060405180910390fd5b80600060016101000a81548173ffffffffffffffffffffffffffffffffffffffff021916908373ffffffffffffffffffffffffffffffffffffffff1602179055508073ffffffffffffffffffffffffffffffffffffffff16600060019054906101000a900473ffffffffffffffffffffffffffffffffffffffff1673ffffffffffffffffffffffffffffffffffffffff167f5c486528ec3e3f0ea91181cff8116f02bfa350e03b8b6f12e00765adbb5af85c60405160405180910390a350565b600080600a905060008160ff166002601481819054906101000a900460ff168092919060010191906101000a81548160ff021916908360ff16021790555060ff1643034085604051602001808381526020018273ffffffffffffffffffffffffffffffffffffffff1660601b8152601401925050506040516020818303038152906040528051906020012060001c816116ac57fe5b06905060fa600260149054906101000a900460ff1660ff1611156116e7576000600260146101000a81548160ff021916908360ff1602179055505b8092505050919050565b6040518060600160405280600390602082028036833780820191505090505090565b826003601f0160209004810192821561179c5791602002820160005b8382111561176d57835183826101000a81548160ff021916908360ff160217905550926020019260010160208160000104928301926001030261172f565b801561179a5782816101000a81549060ff021916905560010160208160000104928301926001030261176d565b505b5090506117a991906117ad565b5090565b5b808211156117d157600081816101000a81549060ff0219169055506001016117ae565b509056fe466c69676874206f722074696d657374616d7020646f206e6f74206d61746368206f7261636c6520726571756573744f6e6c7920746865206f776e65722063616e20706572666f726d2074686973206f7065726174696f6e546865206e6577204f776e65722063616e6e6f7420626520616464726573732030496e64657820646f6573206e6f74206d61746368206f7261636c652072657175657374a26469706673582212205fbfe79ecc97dcd8a481360302660af7138817f9e8b4ac37c2eb48021067510b64736f6c63430007000033",
  "source": "// SPDX-License-Identifier: GPL-3.0\r\npragma solidity >=0.7.0 <0.8.0;\r\n\r\nimport \"./SafeMath.sol\";\r\nimport \"./OperationalOwnable.sol\";\r\nimport \"./FlightSuretyData.sol\";\r\n\r\n/************************************************** */\r\n/* FlightSurety Smart Contract                      */\r\n/************************************************** */\r\ncontract FlightSuretyApp is OperationalOwnable {\r\n    // It's important to avoid vulnerabilities due to numeric overflow bugs\r\n    // OpenZeppelin's SafeMath library, when used correctly, protects agains such bugs\r\n    // More info: https://www.nccgroup.trust/us/about-us/newsroom-and-events/blog/2018/november/smart-contract-insecurity-bad-arithmetic/\r\n\r\n    // Allow SafeMath functions to be called for all uint256 types (similar to \"prototype\" in Javascript)\r\n    using SafeMath for uint256;\r\n\r\n    /********************************************************************************************/\r\n    /*                                       DATA VARIABLES                                     */\r\n    /********************************************************************************************/\r\n\r\n    // Data contract\r\n    FlightSuretyData dataContract;\r\n\r\n    // Flight status codes\r\n    uint8 private constant STATUS_CODE_UNKNOWN = 0;\r\n    uint8 private constant STATUS_CODE_ON_TIME = 10;\r\n    uint8 private constant STATUS_CODE_LATE_AIRLINE = 20;\r\n    uint8 private constant STATUS_CODE_LATE_WEATHER = 30;\r\n    uint8 private constant STATUS_CODE_LATE_TECHNICAL = 40;\r\n    uint8 private constant STATUS_CODE_LATE_OTHER = 50;\r\n\r\n    address private contractOwner; // Account used to deploy contract\r\n\r\n    // region ORACLE MANAGEMENT\r\n\r\n    // Incremented to add pseudo-randomness at various points\r\n    uint8 private nonce = 0;\r\n\r\n    // Fee to be paid when registering oracle\r\n    uint256 public constant REGISTRATION_FEE = 1 ether;\r\n\r\n    // Number of oracles that must respond for valid status\r\n    uint256 private constant MIN_RESPONSES = 3;\r\n\r\n    // Track all registered oracles\r\n    mapping(address => Oracle) private oracles;\r\n\r\n    // Track all oracle responses\r\n    // Key = hash(index, flight, timestamp)\r\n    mapping(bytes32 => ResponseInfo) private oracleResponses;\r\n\r\n    struct Oracle {\r\n        bool isRegistered;\r\n        uint8[3] indexes;\r\n    }\r\n\r\n    // Model for responses from oracles\r\n    struct ResponseInfo {\r\n        address requester; // Account that requested status\r\n        bool isOpen; // If open, oracle responses are accepted\r\n        mapping(uint8 => address[]) responses; // Mapping key is the status code reported\r\n        // This lets us group responses and identify\r\n        // the response that majority of the oracles\r\n    }\r\n\r\n    // Event fired each time an oracle submits a response\r\n    event FlightStatusInfo(\r\n        address airline,\r\n        string flight,\r\n        uint256 timestamp,\r\n        uint8 status\r\n    );\r\n\r\n    event OracleReport(\r\n        address airline,\r\n        string flight,\r\n        uint256 timestamp,\r\n        uint8 status\r\n    );\r\n\r\n    // Event fired when flight status request is submitted\r\n    // Oracles track this and if they have a matching index\r\n    // they fetch data and submit a response\r\n    event OracleRequest(\r\n        uint8 index,\r\n        address airline,\r\n        string flight,\r\n        uint256 timestamp\r\n    );\r\n\r\n    event TestingValue(string value);\r\n\r\n    /********************************************************************************************/\r\n    /*                                       CONSTRUCTOR                                        */\r\n    /********************************************************************************************/\r\n\r\n    /**\r\n     * @dev Contract constructor\r\n     *\r\n     */\r\n    constructor(address payable dataContractAddress) {\r\n        dataContract = FlightSuretyData(dataContractAddress);\r\n    }\r\n\r\n    /********************************************************************************************/\r\n    /*                                       FUNCTION MODIFIERS                                 */\r\n    /********************************************************************************************/\r\n\r\n    // Modifiers help avoid duplication of code. They are typically used to validate something\r\n    // before a function is allowed to be executed.\r\n\r\n    /**\r\n     * @dev Modifier that requires the \"operational\" boolean variable to be \"true\"\r\n     *      This is used on all state changing functions to pause the contract in\r\n     *      the event there is an issue that needs to be fixed\r\n     */\r\n    modifier requireIsOperational() {\r\n        // Modify to call data contract's status\r\n        require(true, \"Contract is currently not operational\");\r\n        _; // All modifiers require an \"_\" which indicates where the function body will be added\r\n    }\r\n\r\n    /**\r\n     * @dev Modifier that requires the \"ContractOwner\" account to be the function caller\r\n     */\r\n    modifier requireContractOwner() {\r\n        require(msg.sender == contractOwner, \"Caller is not contract owner\");\r\n        _;\r\n    }\r\n\r\n    /********************************************************************************************/\r\n    /*                                     SMART CONTRACT FUNCTIONS                             */\r\n    /********************************************************************************************/\r\n\r\n    /**\r\n     * @dev Add an airline to the registration queue\r\n     */\r\n    function registerAirline(string calldata name)\r\n        external\r\n        returns (bool success, uint256 votes)\r\n    {\r\n        require(bytes(name).length > 0, \"Name cannot be empty\");\r\n        dataContract.registerAirline(msg.sender, name);\r\n        return (success, 0);\r\n    }\r\n\r\n    /**\r\n     * @dev Register a future flight for insuring.\r\n     *\r\n     */\r\n    function registerFlight() external pure {}\r\n\r\n    // Generate a request for oracles to fetch flight information\r\n    function fetchFlightStatus(\r\n        address airline,\r\n        string calldata flight,\r\n        uint256 timestamp\r\n    ) external {\r\n        uint8 index = getRandomIndex(msg.sender);\r\n\r\n        // Generate a unique key for storing the request\r\n        bytes32 key = keccak256(\r\n            abi.encodePacked(index, airline, flight, timestamp)\r\n        );\r\n        oracleResponses[key].requester = msg.sender;\r\n        oracleResponses[key].isOpen = true;\r\n\r\n        emit OracleRequest(index, airline, flight, timestamp);\r\n    }\r\n\r\n    // Register an oracle with the contract\r\n    function registerOracle() external payable {\r\n        // Require registration fee\r\n        require(msg.value >= REGISTRATION_FEE, \"Registration fee is required\");\r\n\r\n        uint8[3] memory indexes = generateIndexes(msg.sender);\r\n\r\n        oracles[msg.sender] = Oracle({isRegistered: true, indexes: indexes});\r\n    }\r\n\r\n    function getMyIndexes() external view returns (uint8[3] memory) {\r\n        require(\r\n            oracles[msg.sender].isRegistered,\r\n            \"Not registered as an oracle\"\r\n        );\r\n\r\n        return oracles[msg.sender].indexes;\r\n    }\r\n\r\n    function getDataContractAddress() external view returns (address payable) {\r\n        return address(dataContract);\r\n    }\r\n\r\n    // Called by oracle when a response is available to an outstanding request\r\n    // For the response to be accepted, there must be a pending request that is open\r\n    // and matches one of the three Indexes randomly assigned to the oracle at the\r\n    // time of registration (i.e. uninvited oracles are not welcome)\r\n    function submitOracleResponse(\r\n        uint8 index,\r\n        address airline,\r\n        string calldata flight,\r\n        uint256 timestamp,\r\n        uint8 statusCode\r\n    ) external {\r\n        require(\r\n            (oracles[msg.sender].indexes[0] == index) ||\r\n                (oracles[msg.sender].indexes[1] == index) ||\r\n                (oracles[msg.sender].indexes[2] == index),\r\n            \"Index does not match oracle request\"\r\n        );\r\n\r\n        bytes32 key = keccak256(\r\n            abi.encodePacked(index, airline, flight, timestamp)\r\n        );\r\n        require(\r\n            oracleResponses[key].isOpen,\r\n            \"Flight or timestamp do not match oracle request\"\r\n        );\r\n\r\n        oracleResponses[key].responses[statusCode].push(msg.sender);\r\n\r\n        // Information isn't considered verified until at least MIN_RESPONSES\r\n        // oracles respond with the *** same *** information\r\n        emit OracleReport(airline, flight, timestamp, statusCode);\r\n        if (\r\n            oracleResponses[key].responses[statusCode].length >= MIN_RESPONSES\r\n        ) {\r\n            emit FlightStatusInfo(airline, flight, timestamp, statusCode);\r\n\r\n            // Handle flight status as appropriate\r\n            processFlightStatus(airline, flight, timestamp, statusCode);\r\n        }\r\n    }\r\n\r\n    /********************************************************************************************/\r\n    /*                                       UTILITY FUNCTIONS                                  */\r\n    /********************************************************************************************/\r\n\r\n    /**\r\n     * @dev Called after oracle has updated flight status\r\n     *\r\n     */\r\n    function processFlightStatus(\r\n        address airline,\r\n        string memory flight,\r\n        uint256 timestamp,\r\n        uint8 statusCode\r\n    ) internal pure {}\r\n\r\n    function getFlightKey(\r\n        address airline,\r\n        string memory flight,\r\n        uint256 timestamp\r\n    ) internal pure returns (bytes32) {\r\n        return keccak256(abi.encodePacked(airline, flight, timestamp));\r\n    }\r\n\r\n    // Returns array of three non-duplicating integers from 0-9\r\n    function generateIndexes(address account)\r\n        internal\r\n        returns (uint8[3] memory)\r\n    {\r\n        uint8[3] memory indexes;\r\n        indexes[0] = getRandomIndex(account);\r\n\r\n        indexes[1] = indexes[0];\r\n        while (indexes[1] == indexes[0]) {\r\n            indexes[1] = getRandomIndex(account);\r\n        }\r\n\r\n        indexes[2] = indexes[1];\r\n        while ((indexes[2] == indexes[0]) || (indexes[2] == indexes[1])) {\r\n            indexes[2] = getRandomIndex(account);\r\n        }\r\n\r\n        return indexes;\r\n    }\r\n\r\n    // Returns array of three non-duplicating integers from 0-9\r\n    function getRandomIndex(address account) internal returns (uint8) {\r\n        uint8 maxValue = 10;\r\n\r\n        // Pseudo random number...the incrementing nonce adds variation\r\n        uint8 random = uint8(\r\n            uint256(\r\n                keccak256(\r\n                    abi.encodePacked(blockhash(block.number - nonce++), account)\r\n                )\r\n            ) % maxValue\r\n        );\r\n\r\n        if (nonce > 250) {\r\n            nonce = 0; // Can only fetch blockhashes for last 256 blocks so we adapt\r\n        }\r\n\r\n        return random;\r\n    }\r\n\r\n    // endregion\r\n}\r\n",
  "sourcePath": "/media/indigo/backup/AXEL/Personal/Tutorials/blocksurety/blockchain-flight-surety/contracts/FlightSuretyApp.sol",
  "compiler": {
    "name": "solc",
    "version": "0.7.0+commit.9e61f92b.Emscripten.clang"
  },
  "schemaVersion": "3.0.23",
  "updatedAt": "2020-08-11T03:39:04.932Z",
  "networkType": "ethereum",
  "devdoc": {
    "kind": "dev",
    "methods": {
      "constructor": {
        "details": "Contract constructor"
      },
      "isOperational()": {
        "details": "Get operating status of contract",
        "returns": {
          "_0": "A bool that is the current operating status"
        }
      },
      "registerAirline(string)": {
        "details": "Add an airline to the registration queue"
      },
      "registerFlight()": {
        "details": "Register a future flight for insuring."
      },
      "setOperationalStatus(bool)": {
        "details": "Sets contract operations on/off When operational mode is disabled, all write transactions except for this one will fail"
      }
    },
    "version": 1
  },
  "userdoc": {
    "kind": "user",
    "methods": {},
    "version": 1
  }
}