{
  "contractName": "OperationalOwnable",
  "abi": [
    {
      "inputs": [],
      "stateMutability": "nonpayable",
      "type": "constructor"
    },
    {
      "anonymous": false,
      "inputs": [
        {
          "indexed": true,
          "internalType": "address",
          "name": "oldOwner",
          "type": "address"
        },
        {
          "indexed": true,
          "internalType": "address",
          "name": "newOwner",
          "type": "address"
        }
      ],
      "name": "TransferOwnership",
      "type": "event"
    },
    {
      "anonymous": false,
      "inputs": [
        {
          "indexed": false,
          "internalType": "bool",
          "name": "mode",
          "type": "bool"
        }
      ],
      "name": "UpdateOperationalStatus",
      "type": "event"
    },
    {
      "inputs": [],
      "name": "isOperational",
      "outputs": [
        {
          "internalType": "bool",
          "name": "",
          "type": "bool"
        }
      ],
      "stateMutability": "view",
      "type": "function"
    },
    {
      "inputs": [
        {
          "internalType": "bool",
          "name": "mode",
          "type": "bool"
        }
      ],
      "name": "setOperationalStatus",
      "outputs": [],
      "stateMutability": "nonpayable",
      "type": "function"
    },
    {
      "inputs": [],
      "name": "kill",
      "outputs": [],
      "stateMutability": "nonpayable",
      "type": "function"
    },
    {
      "inputs": [],
      "name": "owner",
      "outputs": [
        {
          "internalType": "address",
          "name": "",
          "type": "address"
        }
      ],
      "stateMutability": "view",
      "type": "function"
    },
    {
      "inputs": [],
      "name": "isOwner",
      "outputs": [
        {
          "internalType": "bool",
          "name": "",
          "type": "bool"
        }
      ],
      "stateMutability": "view",
      "type": "function"
    },
    {
      "inputs": [],
      "name": "renounceOwnership",
      "outputs": [],
      "stateMutability": "nonpayable",
      "type": "function"
    },
    {
      "inputs": [
        {
          "internalType": "address payable",
          "name": "newOwner",
          "type": "address"
        }
      ],
      "name": "transferOwnership",
      "outputs": [],
      "stateMutability": "nonpayable",
      "type": "function"
    }
  ],
  "bytecode": "0x608060405260016000806101000a81548160ff02191690831515021790555034801561002a57600080fd5b5033600060016101000a81548173ffffffffffffffffffffffffffffffffffffffff021916908373ffffffffffffffffffffffffffffffffffffffff160217905550600060019054906101000a900473ffffffffffffffffffffffffffffffffffffffff1673ffffffffffffffffffffffffffffffffffffffff16600073ffffffffffffffffffffffffffffffffffffffff167f5c486528ec3e3f0ea91181cff8116f02bfa350e03b8b6f12e00765adbb5af85c60405160405180910390a3610816806100f86000396000f3fe608060405234801561001057600080fd5b506004361061007d5760003560e01c80638da5cb5b1161005b5780638da5cb5b146100b25780638f32d59b146100d0578063cd905dff146100ee578063f2fde38b1461010c5761007d565b806341c0e1b5146100825780635122cb381461008c578063715018a6146100a8575b600080fd5b61008a610128565b005b6100a660048036038101906100a191906105c8565b6101bb565b005b6100b0610255565b005b6100ba61035c565b6040516100c791906106db565b60405180910390f35b6100d8610385565b6040516100e591906106f6565b60405180910390f35b6100f66103dc565b60405161010391906106f6565b60405180910390f35b6101266004803603810190610121919061059f565b6103f2565b005b600060019054906101000a900473ffffffffffffffffffffffffffffffffffffffff1673ffffffffffffffffffffffffffffffffffffffff163373ffffffffffffffffffffffffffffffffffffffff1614156101b957600060019054906101000a900473ffffffffffffffffffffffffffffffffffffffff1673ffffffffffffffffffffffffffffffffffffffff16ff5b565b6101c3610385565b610202576040517f08c379a00000000000000000000000000000000000000000000000000000000081526004016101f990610711565b60405180910390fd5b7fb6d5f5457d1c101e27891c7154e37f1578a63e19a5396705b34a4b3596b0cab58160405161023191906106f6565b60405180910390a1806000806101000a81548160ff02191690831515021790555050565b61025d610385565b61029c576040517f08c379a000000000000000000000000000000000000000000000000000000000815260040161029390610711565b60405180910390fd5b600073ffffffffffffffffffffffffffffffffffffffff16600060019054906101000a900473ffffffffffffffffffffffffffffffffffffffff1673ffffffffffffffffffffffffffffffffffffffff167f5c486528ec3e3f0ea91181cff8116f02bfa350e03b8b6f12e00765adbb5af85c60405160405180910390a360008060016101000a81548173ffffffffffffffffffffffffffffffffffffffff021916908373ffffffffffffffffffffffffffffffffffffffff160217905550565b60008060019054906101000a900473ffffffffffffffffffffffffffffffffffffffff16905090565b60008060019054906101000a900473ffffffffffffffffffffffffffffffffffffffff1673ffffffffffffffffffffffffffffffffffffffff163373ffffffffffffffffffffffffffffffffffffffff1614905090565b60008060009054906101000a900460ff16905090565b6103fa610385565b610439576040517f08c379a000000000000000000000000000000000000000000000000000000000815260040161043090610711565b60405180910390fd5b61044281610445565b50565b600073ffffffffffffffffffffffffffffffffffffffff168173ffffffffffffffffffffffffffffffffffffffff1614156104b5576040517f08c379a00000000000000000000000000000000000000000000000000000000081526004016104ac90610731565b60405180910390fd5b80600060016101000a81548173ffffffffffffffffffffffffffffffffffffffff021916908373ffffffffffffffffffffffffffffffffffffffff1602179055508073ffffffffffffffffffffffffffffffffffffffff16600060019054906101000a900473ffffffffffffffffffffffffffffffffffffffff1673ffffffffffffffffffffffffffffffffffffffff167f5c486528ec3e3f0ea91181cff8116f02bfa350e03b8b6f12e00765adbb5af85c60405160405180910390a350565b600081359050610584816107b2565b92915050565b600081359050610599816107c9565b92915050565b6000602082840312156105b157600080fd5b60006105bf84828501610575565b91505092915050565b6000602082840312156105da57600080fd5b60006105e88482850161058a565b91505092915050565b6105fa81610762565b82525050565b61060981610786565b82525050565b600061061c602983610751565b91507f4f6e6c7920746865206f776e65722063616e20706572666f726d20746869732060008301527f6f7065726174696f6e00000000000000000000000000000000000000000000006020830152604082019050919050565b6000610682602183610751565b91507f546865206e6577204f776e65722063616e6e6f7420626520616464726573732060008301527f30000000000000000000000000000000000000000000000000000000000000006020830152604082019050919050565b60006020820190506106f060008301846105f1565b92915050565b600060208201905061070b6000830184610600565b92915050565b6000602082019050818103600083015261072a8161060f565b9050919050565b6000602082019050818103600083015261074a81610675565b9050919050565b600082825260208201905092915050565b600061076d82610792565b9050919050565b600061077f82610792565b9050919050565b60008115159050919050565b600073ffffffffffffffffffffffffffffffffffffffff82169050919050565b6107bb81610774565b81146107c657600080fd5b50565b6107d281610786565b81146107dd57600080fd5b5056fea26469706673582212206e9eece91afbbc09315a6fde35ba3904e2d5cc1d799eed03bd8a788156b2e5e064736f6c63430008000033",
  "immutableReferences": {},
  "source": "// SPDX-License-Identifier: GPL-3.0\npragma solidity 0.8.0;\n\n\ncontract OperationalOwnable {\n    // Blocks all state changes throughout the contract if false\n    bool private operational = true;\n    // Account used to deploy contract\n    address payable private contractOwner;\n\n    // Define an Event\n    event UpdateOperationalStatus(bool mode);\n\n    // Define an Event\n    event TransferOwnership(address indexed oldOwner, address indexed newOwner);\n\n    // Assign the contract to an owner\n    constructor() {\n        contractOwner = payable(msg.sender);\n        emit TransferOwnership(address(0), contractOwner);\n    }\n\n    /**\n     * @dev Modifier that requires the \"operational\" boolean variable to be \"true\"\n     *      This is used on all state changing functions to pause the contract in\n     *      the event there is an issue that needs to be fixed\n     */\n\n    modifier onlyOperational() {\n        require(operational, \"Contract is currently not operational\");\n        _; // All modifiers require an \"_\" which indicates where the function body will be added\n    }\n\n    /**\n     * @dev Get operating status of contract\n     *\n     * @return A bool that is the current operating status\n     */\n\n    function isOperational() public view returns (bool) {\n        return operational;\n    }\n\n    /**\n     * @dev Sets contract operations on/off\n     *\n     * When operational mode is disabled, all write transactions except for this one will fail\n     */\n\n    function setOperationalStatus(bool mode) external onlyOwner {\n        emit UpdateOperationalStatus(mode);\n        operational = mode;\n    }\n\n    // Define a function 'kill' if required\n    function kill() public {\n        if (msg.sender == contractOwner) {\n            selfdestruct(contractOwner);\n        }\n    }\n\n    // Look up the address of the owner\n    function owner() public view returns (address) {\n        return contractOwner;\n    }\n\n    // Define a function modifier 'onlyOwner'\n    modifier onlyOwner() {\n        require(isOwner(), \"Only the owner can perform this operation\");\n        _;\n    }\n\n    // Check if the calling address is the owner of the contract\n    function isOwner() public view returns (bool) {\n        return msg.sender == contractOwner;\n    }\n\n    // Define a function to renounce ownerhip\n    function renounceOwnership() public onlyOwner {\n        emit TransferOwnership(contractOwner, address(0));\n        contractOwner = payable(address(0));\n    }\n\n    // Define a public function to transfer ownership\n    function transferOwnership(address payable newOwner) public onlyOwner {\n        _transferOwnership(newOwner);\n    }\n\n    // Define an internal function to transfer ownership\n    function _transferOwnership(address payable newOwner) internal {\n        require(newOwner != address(0), \"The new Owner cannot be address 0\");\n        contractOwner = newOwner;\n        emit TransferOwnership(contractOwner, newOwner);\n    }\n}\n",
  "sourcePath": "/media/indigo/backup/AXEL/Personal/Tutorials/blocksurety/blockchain-flight-surety/contracts/OperationalOwnable.sol",
  "compiler": {
    "name": "solc",
    "version": "0.8.0+commit.c7dfd78e.Emscripten.clang"
  },
  "schemaVersion": "3.3.1",
  "updatedAt": "2020-12-23T21:54:52.792Z",
  "devdoc": {
    "kind": "dev",
    "methods": {
      "isOperational()": {
        "details": "Get operating status of contract",
        "returns": {
          "_0": "A bool that is the current operating status"
        }
      },
      "setOperationalStatus(bool)": {
        "details": "Sets contract operations on/off When operational mode is disabled, all write transactions except for this one will fail"
      }
    },
    "version": 1
  },
  "userdoc": {
    "kind": "user",
    "methods": {},
    "version": 1
  }
}